{"contracts/RewardsDistributor.sol":{"RewardsDistributor":{"abi":[{"inputs":[],"stateMutability":"nonpayable","type":"constructor"},{"inputs":[{"internalType":"address","name":"owner","type":"address"}],"name":"OwnableInvalidOwner","type":"error"},{"inputs":[{"internalType":"address","name":"account","type":"address"}],"name":"OwnableUnauthorizedAccount","type":"error"},{"inputs":[],"name":"ReentrancyGuardReentrantCall","type":"error"},{"inputs":[{"internalType":"address","name":"token","type":"address"}],"name":"SafeERC20FailedOperation","type":"error"},{"anonymous":false,"inputs":[{"indexed":false,"internalType":"uint256","name":"amount","type":"uint256"}],"name":"FeesDistributed","type":"event"},{"anonymous":false,"inputs":[{"indexed":true,"internalType":"address","name":"previousOwner","type":"address"},{"indexed":true,"internalType":"address","name":"newOwner","type":"address"}],"name":"OwnershipTransferred","type":"event"},{"anonymous":false,"inputs":[{"indexed":true,"internalType":"address","name":"token","type":"address"}],"name":"RewardTokenSet","type":"event"},{"anonymous":false,"inputs":[{"indexed":true,"internalType":"address","name":"winner","type":"address"},{"indexed":false,"internalType":"uint256","name":"amount","type":"uint256"}],"name":"RewardsClaimed","type":"event"},{"anonymous":false,"inputs":[{"indexed":true,"internalType":"address","name":"tokenContract","type":"address"}],"name":"TokenContractSet","type":"event"},{"anonymous":false,"inputs":[{"indexed":false,"internalType":"address[5]","name":"winners","type":"address[5]"}],"name":"WinnersSet","type":"event"},{"inputs":[],"name":"claimRewards","outputs":[],"stateMutability":"nonpayable","type":"function"},{"inputs":[{"internalType":"address","name":"","type":"address"}],"name":"claimedRewards","outputs":[{"internalType":"uint256","name":"","type":"uint256"}],"stateMutability":"view","type":"function"},{"inputs":[{"internalType":"uint256","name":"amount","type":"uint256"}],"name":"distributeFees","outputs":[],"stateMutability":"nonpayable","type":"function"},{"inputs":[{"internalType":"address","name":"winner","type":"address"}],"name":"getClaimedRewards","outputs":[{"internalType":"uint256","name":"","type":"uint256"}],"stateMutability":"view","type":"function"},{"inputs":[{"internalType":"address","name":"winner","type":"address"}],"name":"getPendingRewards","outputs":[{"internalType":"uint256","name":"","type":"uint256"}],"stateMutability":"view","type":"function"},{"inputs":[],"name":"getWinners","outputs":[{"internalType":"address[5]","name":"","type":"address[5]"}],"stateMutability":"view","type":"function"},{"inputs":[{"internalType":"uint256","name":"","type":"uint256"}],"name":"lifetimeWinners","outputs":[{"internalType":"address","name":"","type":"address"}],"stateMutability":"view","type":"function"},{"inputs":[],"name":"owner","outputs":[{"internalType":"address","name":"","type":"address"}],"stateMutability":"view","type":"function"},{"inputs":[{"internalType":"address","name":"","type":"address"}],"name":"pendingRewards","outputs":[{"internalType":"uint256","name":"","type":"uint256"}],"stateMutability":"view","type":"function"},{"inputs":[],"name":"renounceOwnership","outputs":[],"stateMutability":"nonpayable","type":"function"},{"inputs":[],"name":"rewardToken","outputs":[{"internalType":"contract IERC20","name":"","type":"address"}],"stateMutability":"view","type":"function"},{"inputs":[{"internalType":"address[5]","name":"winners","type":"address[5]"}],"name":"setLifetimeWinners","outputs":[],"stateMutability":"nonpayable","type":"function"},{"inputs":[{"internalType":"address","name":"_token","type":"address"}],"name":"setRewardToken","outputs":[],"stateMutability":"nonpayable","type":"function"},{"inputs":[{"internalType":"address","name":"_tokenContract","type":"address"}],"name":"setTokenContract","outputs":[],"stateMutability":"nonpayable","type":"function"},{"inputs":[],"name":"tokenContract","outputs":[{"internalType":"address","name":"","type":"address"}],"stateMutability":"view","type":"function"},{"inputs":[],"name":"totalClaimed","outputs":[{"internalType":"uint256","name":"","type":"uint256"}],"stateMutability":"view","type":"function"},{"inputs":[],"name":"totalDistributed","outputs":[{"internalType":"uint256","name":"","type":"uint256"}],"stateMutability":"view","type":"function"},{"inputs":[{"internalType":"address","name":"newOwner","type":"address"}],"name":"transferOwnership","outputs":[],"stateMutability":"nonpayable","type":"function"},{"inputs":[],"name":"winnersSet","outputs":[{"internalType":"bool","name":"","type":"bool"}],"stateMutability":"view","type":"function"}],"evm":{"bytecode":{"linkReferences":{},"object":"608060405234801561001057600080fd5b50338061003757604051631e4fbdf760e01b81526000600482015260240160405180910390fd5b6100408161004a565b506001805561009a565b600080546001600160a01b038381166001600160a01b0319831681178455604051919092169283917f8be0079c531659141344cd1fd0a4f28419497f9722a3daafe3b4186f6b6457e09190a35050565b610d27806100a96000396000f3fe608060405234801561001057600080fd5b50600436106101215760003560e01c8063aaee56aa116100ad578063df15c37e11610071578063df15c37e14610275578063efca2eed1461028a578063f2fde38b14610293578063f6ed2017146102a6578063f7c618c1146102cf57600080fd5b8063aaee56aa146101fd578063b9e35db014610210578063bbcd5bbe14610239578063bd8343451461024c578063d54ad2a11461026c57600080fd5b80636029bf9f116100f45780636029bf9f146101ab578063715018a6146101be5780638aee8127146101c65780638da5cb5b146101d9578063a640a62a146101ea57600080fd5b806331d7a26214610126578063372500ab1461015957806355a373d6146101635780635f1721031461018e575b600080fd5b610146610134366004610b9b565b600a6020526000908152604090205481565b6040519081526020015b60405180910390f35b6101616102e2565b005b600354610176906001600160a01b031681565b6040516001600160a01b039091168152602001610150565b60095461019b9060ff1681565b6040519015158152602001610150565b6101616101b9366004610bbd565b610479565b610161610622565b6101616101d4366004610b9b565b610634565b6000546001600160a01b0316610176565b6101766101f8366004610bbd565b6106cc565b61016161020b366004610bd6565b6106ec565b61014661021e366004610b9b565b6001600160a01b03166000908152600b602052604090205490565b610161610247366004610b9b565b610871565b61014661025a366004610b9b565b600b6020526000908152604090205481565b610146600d5481565b61027d61090b565b6040516101509190610bfe565b610146600c5481565b6101616102a1366004610b9b565b610950565b6101466102b4366004610b9b565b6001600160a01b03166000908152600a602052604090205490565b600254610176906001600160a01b031681565b6102ea61098e565b60095460ff166103375760405162461bcd60e51b815260206004820152601360248201527215da5b9b995c9cc81b9bdd081cd95d081e595d606a1b60448201526064015b60405180910390fd5b610340336109b8565b6103845760405162461bcd60e51b81526020600482015260156024820152742737ba1030903634b332ba34b6b2903bb4b73732b960591b604482015260640161032e565b336000908152600a6020526040902054806103d75760405162461bcd60e51b81526020600482015260136024820152724e6f207265776172647320746f20636c61696d60681b604482015260640161032e565b336000908152600a60209081526040808320839055600b90915281208054839290610403908490610c4e565b9250508190555080600d600082825461041c9190610c4e565b9091555050600254610438906001600160a01b03163383610a16565b60405181815233907ffc30cddea38e2bf4d6ea7d3f9ed3b6ad7f176419f4963bd81318067a4aee73fe9060200160405180910390a25061047760018055565b565b6003546001600160a01b031633146104c25760405162461bcd60e51b815260206004820152600c60248201526b155b985d5d1a1bdc9a5e995960a21b604482015260640161032e565b60095460ff1661050a5760405162461bcd60e51b815260206004820152601360248201527215da5b9b995c9cc81b9bdd081cd95d081e595d606a1b604482015260640161032e565b6000811161054f5760405162461bcd60e51b81526020600482015260126024820152710416d6f756e74206d757374206265203e20360741b604482015260640161032e565b600061055c600583610c67565b90508060000361056a575050565b60005b60058110156105d35781600a60006004846005811061058e5761058e610c89565b01546001600160a01b031681526020810191909152604001600090812080549091906105bb908490610c4e565b909155508190506105cb81610c9f565b91505061056d565b5081600c60008282546105e69190610c4e565b90915550506040518281527f8959421a1320789a49eeec01a4750caf8a30733c3db14f000d84484df89300f99060200160405180910390a15050565b61062a610a6d565b6104776000610a9a565b61063c610a6d565b6001600160a01b0381166106825760405162461bcd60e51b815260206004820152600d60248201526c24b73b30b634b2103a37b5b2b760991b604482015260640161032e565b600280546001600160a01b0319166001600160a01b0383169081179091556040517f2d6b04df9b7d358407d1a014f1114b064add34c19d63d395db155a7e533e967a90600090a250565b600481600581106106dc57600080fd5b01546001600160a01b0316905081565b6106f4610a6d565b60095460ff161561073d5760405162461bcd60e51b815260206004820152601360248201527215da5b9b995c9cc8185b1c9958591e481cd95d606a1b604482015260640161032e565b60005b600581101561082857600082826005811061075d5761075d610c89565b6020020160208101906107709190610b9b565b6001600160a01b0316036107bf5760405162461bcd60e51b8152602060048201526016602482015275496e76616c69642077696e6e6572206164647265737360501b604482015260640161032e565b8181600581106107d1576107d1610c89565b6020020160208101906107e49190610b9b565b600482600581106107f7576107f7610c89565b0180546001600160a01b0319166001600160a01b03929092169190911790558061082081610c9f565b915050610740565b506009805460ff191660011790556040517f1a1a4c349d88dd872b0ccddadfd17058f30128c742efff54da51f58860512d7790610866908390610cb8565b60405180910390a150565b610879610a6d565b6001600160a01b0381166108c15760405162461bcd60e51b815260206004820152600f60248201526e496e76616c6964206164647265737360881b604482015260640161032e565b600380546001600160a01b0319166001600160a01b0383169081179091556040517f9b64004f1a50e51d3c2809b6a8efbae432bfa889e0b4bf67f75e7db8ca816dba90600090a250565b610913610b61565b6040805160a08101918290529060049060059082845b81546001600160a01b03168152600190910190602001808311610929575050505050905090565b610958610a6d565b6001600160a01b03811661098257604051631e4fbdf760e01b81526000600482015260240161032e565b61098b81610a9a565b50565b6002600154036109b157604051633ee5aeb560e01b815260040160405180910390fd5b6002600155565b6000805b6005811015610a0d57826001600160a01b0316600482600581106109e2576109e2610c89565b01546001600160a01b0316036109fb5750600192915050565b80610a0581610c9f565b9150506109bc565b50600092915050565b604080516001600160a01b038416602482015260448082018490528251808303909101815260649091019091526020810180516001600160e01b031663a9059cbb60e01b179052610a68908490610aea565b505050565b6000546001600160a01b031633146104775760405163118cdaa760e01b815233600482015260240161032e565b600080546001600160a01b038381166001600160a01b0319831681178455604051919092169283917f8be0079c531659141344cd1fd0a4f28419497f9722a3daafe3b4186f6b6457e09190a35050565b600080602060008451602086016000885af180610b0d576040513d6000823e3d81fd5b50506000513d91508115610b25578060011415610b32565b6001600160a01b0384163b155b15610b5b57604051635274afe760e01b81526001600160a01b038516600482015260240161032e565b50505050565b6040518060a001604052806005906020820280368337509192915050565b80356001600160a01b0381168114610b9657600080fd5b919050565b600060208284031215610bad57600080fd5b610bb682610b7f565b9392505050565b600060208284031215610bcf57600080fd5b5035919050565b600060a08284031215610be857600080fd5b8260a083011115610bf857600080fd5b50919050565b60a08101818360005b6005811015610c2f5781516001600160a01b0316835260209283019290910190600101610c07565b50505092915050565b634e487b7160e01b600052601160045260246000fd5b80820180821115610c6157610c61610c38565b92915050565b600082610c8457634e487b7160e01b600052601260045260246000fd5b500490565b634e487b7160e01b600052603260045260246000fd5b600060018201610cb157610cb1610c38565b5060010190565b60a08101818360005b6005811015610c2f576001600160a01b03610cdb83610b7f565b1683526020928301929190910190600101610cc156fea26469706673582212208866b2b821066491304519644dc5de4a27df36ba683ed614292ef42c1985d09a64736f6c63430008140033","opcodes":"PUSH1 0x80 PUSH1 0x40 MSTORE CALLVALUE DUP1 ISZERO PUSH2 0x10 JUMPI PUSH1 0x0 DUP1 REVERT JUMPDEST POP CALLER DUP1 PUSH2 0x37 JUMPI PUSH1 0x40 MLOAD PUSH4 0x1E4FBDF7 PUSH1 0xE0 SHL DUP2 MSTORE PUSH1 0x0 PUSH1 0x4 DUP3 ADD MSTORE PUSH1 0x24 ADD PUSH1 0x40 MLOAD DUP1 SWAP2 SUB SWAP1 REVERT JUMPDEST PUSH2 0x40 DUP2 PUSH2 0x4A JUMP JUMPDEST POP PUSH1 0x1 DUP1 SSTORE PUSH2 0x9A JUMP JUMPDEST PUSH1 0x0 DUP1 SLOAD PUSH1 0x1 PUSH1 0x1 PUSH1 0xA0 SHL SUB DUP4 DUP2 AND PUSH1 0x1 PUSH1 0x1 PUSH1 0xA0 SHL SUB NOT DUP4 AND DUP2 OR DUP5 SSTORE PUSH1 0x40 MLOAD SWAP2 SWAP1 SWAP3 AND SWAP3 DUP4 SWAP2 PUSH32 0x8BE0079C531659141344CD1FD0A4F28419497F9722A3DAAFE3B4186F6B6457E0 SWAP2 SWAP1 LOG3 POP POP JUMP JUMPDEST PUSH2 0xD27 DUP1 PUSH2 0xA9 PUSH1 0x0 CODECOPY PUSH1 0x0 RETURN INVALID PUSH1 0x80 PUSH1 0x40 MSTORE CALLVALUE DUP1 ISZERO PUSH2 0x10 JUMPI PUSH1 0x0 DUP1 REVERT JUMPDEST POP PUSH1 0x4 CALLDATASIZE LT PUSH2 0x121 JUMPI PUSH1 0x0 CALLDATALOAD PUSH1 0xE0 SHR DUP1 PUSH4 0xAAEE56AA GT PUSH2 0xAD JUMPI DUP1 PUSH4 0xDF15C37E GT PUSH2 0x71 JUMPI DUP1 PUSH4 0xDF15C37E EQ PUSH2 0x275 JUMPI DUP1 PUSH4 0xEFCA2EED EQ PUSH2 0x28A JUMPI DUP1 PUSH4 0xF2FDE38B EQ PUSH2 0x293 JUMPI DUP1 PUSH4 0xF6ED2017 EQ PUSH2 0x2A6 JUMPI DUP1 PUSH4 0xF7C618C1 EQ PUSH2 0x2CF JUMPI PUSH1 0x0 DUP1 REVERT JUMPDEST DUP1 PUSH4 0xAAEE56AA EQ PUSH2 0x1FD JUMPI DUP1 PUSH4 0xB9E35DB0 EQ PUSH2 0x210 JUMPI DUP1 PUSH4 0xBBCD5BBE EQ PUSH2 0x239 JUMPI DUP1 PUSH4 0xBD834345 EQ PUSH2 0x24C JUMPI DUP1 PUSH4 0xD54AD2A1 EQ PUSH2 0x26C JUMPI PUSH1 0x0 DUP1 REVERT JUMPDEST DUP1 PUSH4 0x6029BF9F GT PUSH2 0xF4 JUMPI DUP1 PUSH4 0x6029BF9F EQ PUSH2 0x1AB JUMPI DUP1 PUSH4 0x715018A6 EQ PUSH2 0x1BE JUMPI DUP1 PUSH4 0x8AEE8127 EQ PUSH2 0x1C6 JUMPI DUP1 PUSH4 0x8DA5CB5B EQ PUSH2 0x1D9 JUMPI DUP1 PUSH4 0xA640A62A EQ PUSH2 0x1EA JUMPI PUSH1 0x0 DUP1 REVERT JUMPDEST DUP1 PUSH4 0x31D7A262 EQ PUSH2 0x126 JUMPI DUP1 PUSH4 0x372500AB EQ PUSH2 0x159 JUMPI DUP1 PUSH4 0x55A373D6 EQ PUSH2 0x163 JUMPI DUP1 PUSH4 0x5F172103 EQ PUSH2 0x18E JUMPI JUMPDEST PUSH1 0x0 DUP1 REVERT JUMPDEST PUSH2 0x146 PUSH2 0x134 CALLDATASIZE PUSH1 0x4 PUSH2 0xB9B JUMP JUMPDEST PUSH1 0xA PUSH1 0x20 MSTORE PUSH1 0x0 SWAP1 DUP2 MSTORE PUSH1 0x40 SWAP1 KECCAK256 SLOAD DUP2 JUMP JUMPDEST PUSH1 0x40 MLOAD SWAP1 DUP2 MSTORE PUSH1 0x20 ADD JUMPDEST PUSH1 0x40 MLOAD DUP1 SWAP2 SUB SWAP1 RETURN JUMPDEST PUSH2 0x161 PUSH2 0x2E2 JUMP JUMPDEST STOP JUMPDEST PUSH1 0x3 SLOAD PUSH2 0x176 SWAP1 PUSH1 0x1 PUSH1 0x1 PUSH1 0xA0 SHL SUB AND DUP2 JUMP JUMPDEST PUSH1 0x40 MLOAD PUSH1 0x1 PUSH1 0x1 PUSH1 0xA0 SHL SUB SWAP1 SWAP2 AND DUP2 MSTORE PUSH1 0x20 ADD PUSH2 0x150 JUMP JUMPDEST PUSH1 0x9 SLOAD PUSH2 0x19B SWAP1 PUSH1 0xFF AND DUP2 JUMP JUMPDEST PUSH1 0x40 MLOAD SWAP1 ISZERO ISZERO DUP2 MSTORE PUSH1 0x20 ADD PUSH2 0x150 JUMP JUMPDEST PUSH2 0x161 PUSH2 0x1B9 CALLDATASIZE PUSH1 0x4 PUSH2 0xBBD JUMP JUMPDEST PUSH2 0x479 JUMP JUMPDEST PUSH2 0x161 PUSH2 0x622 JUMP JUMPDEST PUSH2 0x161 PUSH2 0x1D4 CALLDATASIZE PUSH1 0x4 PUSH2 0xB9B JUMP JUMPDEST PUSH2 0x634 JUMP JUMPDEST PUSH1 0x0 SLOAD PUSH1 0x1 PUSH1 0x1 PUSH1 0xA0 SHL SUB AND PUSH2 0x176 JUMP JUMPDEST PUSH2 0x176 PUSH2 0x1F8 CALLDATASIZE PUSH1 0x4 PUSH2 0xBBD JUMP JUMPDEST PUSH2 0x6CC JUMP JUMPDEST PUSH2 0x161 PUSH2 0x20B CALLDATASIZE PUSH1 0x4 PUSH2 0xBD6 JUMP JUMPDEST PUSH2 0x6EC JUMP JUMPDEST PUSH2 0x146 PUSH2 0x21E CALLDATASIZE PUSH1 0x4 PUSH2 0xB9B JUMP JUMPDEST PUSH1 0x1 PUSH1 0x1 PUSH1 0xA0 SHL SUB AND PUSH1 0x0 SWAP1 DUP2 MSTORE PUSH1 0xB PUSH1 0x20 MSTORE PUSH1 0x40 SWAP1 KECCAK256 SLOAD SWAP1 JUMP JUMPDEST PUSH2 0x161 PUSH2 0x247 CALLDATASIZE PUSH1 0x4 PUSH2 0xB9B JUMP JUMPDEST PUSH2 0x871 JUMP JUMPDEST PUSH2 0x146 PUSH2 0x25A CALLDATASIZE PUSH1 0x4 PUSH2 0xB9B JUMP JUMPDEST PUSH1 0xB PUSH1 0x20 MSTORE PUSH1 0x0 SWAP1 DUP2 MSTORE PUSH1 0x40 SWAP1 KECCAK256 SLOAD DUP2 JUMP JUMPDEST PUSH2 0x146 PUSH1 0xD SLOAD DUP2 JUMP JUMPDEST PUSH2 0x27D PUSH2 0x90B JUMP JUMPDEST PUSH1 0x40 MLOAD PUSH2 0x150 SWAP2 SWAP1 PUSH2 0xBFE JUMP JUMPDEST PUSH2 0x146 PUSH1 0xC SLOAD DUP2 JUMP JUMPDEST PUSH2 0x161 PUSH2 0x2A1 CALLDATASIZE PUSH1 0x4 PUSH2 0xB9B JUMP JUMPDEST PUSH2 0x950 JUMP JUMPDEST PUSH2 0x146 PUSH2 0x2B4 CALLDATASIZE PUSH1 0x4 PUSH2 0xB9B JUMP JUMPDEST PUSH1 0x1 PUSH1 0x1 PUSH1 0xA0 SHL SUB AND PUSH1 0x0 SWAP1 DUP2 MSTORE PUSH1 0xA PUSH1 0x20 MSTORE PUSH1 0x40 SWAP1 KECCAK256 SLOAD SWAP1 JUMP JUMPDEST PUSH1 0x2 SLOAD PUSH2 0x176 SWAP1 PUSH1 0x1 PUSH1 0x1 PUSH1 0xA0 SHL SUB AND DUP2 JUMP JUMPDEST PUSH2 0x2EA PUSH2 0x98E JUMP JUMPDEST PUSH1 0x9 SLOAD PUSH1 0xFF AND PUSH2 0x337 JUMPI PUSH1 0x40 MLOAD PUSH3 0x461BCD PUSH1 0xE5 SHL DUP2 MSTORE PUSH1 0x20 PUSH1 0x4 DUP3 ADD MSTORE PUSH1 0x13 PUSH1 0x24 DUP3 ADD MSTORE PUSH19 0x15DA5B9B995C9CC81B9BDD081CD95D081E595D PUSH1 0x6A SHL PUSH1 0x44 DUP3 ADD MSTORE PUSH1 0x64 ADD JUMPDEST PUSH1 0x40 MLOAD DUP1 SWAP2 SUB SWAP1 REVERT JUMPDEST PUSH2 0x340 CALLER PUSH2 0x9B8 JUMP JUMPDEST PUSH2 0x384 JUMPI PUSH1 0x40 MLOAD PUSH3 0x461BCD PUSH1 0xE5 SHL DUP2 MSTORE PUSH1 0x20 PUSH1 0x4 DUP3 ADD MSTORE PUSH1 0x15 PUSH1 0x24 DUP3 ADD MSTORE PUSH21 0x2737BA1030903634B332BA34B6B2903BB4B73732B9 PUSH1 0x59 SHL PUSH1 0x44 DUP3 ADD MSTORE PUSH1 0x64 ADD PUSH2 0x32E JUMP JUMPDEST CALLER PUSH1 0x0 SWAP1 DUP2 MSTORE PUSH1 0xA PUSH1 0x20 MSTORE PUSH1 0x40 SWAP1 KECCAK256 SLOAD DUP1 PUSH2 0x3D7 JUMPI PUSH1 0x40 MLOAD PUSH3 0x461BCD PUSH1 0xE5 SHL DUP2 MSTORE PUSH1 0x20 PUSH1 0x4 DUP3 ADD MSTORE PUSH1 0x13 PUSH1 0x24 DUP3 ADD MSTORE PUSH19 0x4E6F207265776172647320746F20636C61696D PUSH1 0x68 SHL PUSH1 0x44 DUP3 ADD MSTORE PUSH1 0x64 ADD PUSH2 0x32E JUMP JUMPDEST CALLER PUSH1 0x0 SWAP1 DUP2 MSTORE PUSH1 0xA PUSH1 0x20 SWAP1 DUP2 MSTORE PUSH1 0x40 DUP1 DUP4 KECCAK256 DUP4 SWAP1 SSTORE PUSH1 0xB SWAP1 SWAP2 MSTORE DUP2 KECCAK256 DUP1 SLOAD DUP4 SWAP3 SWAP1 PUSH2 0x403 SWAP1 DUP5 SWAP1 PUSH2 0xC4E JUMP JUMPDEST SWAP3 POP POP DUP2 SWAP1 SSTORE POP DUP1 PUSH1 0xD PUSH1 0x0 DUP3 DUP3 SLOAD PUSH2 0x41C SWAP2 SWAP1 PUSH2 0xC4E JUMP JUMPDEST SWAP1 SWAP2 SSTORE POP POP PUSH1 0x2 SLOAD PUSH2 0x438 SWAP1 PUSH1 0x1 PUSH1 0x1 PUSH1 0xA0 SHL SUB AND CALLER DUP4 PUSH2 0xA16 JUMP JUMPDEST PUSH1 0x40 MLOAD DUP2 DUP2 MSTORE CALLER SWAP1 PUSH32 0xFC30CDDEA38E2BF4D6EA7D3F9ED3B6AD7F176419F4963BD81318067A4AEE73FE SWAP1 PUSH1 0x20 ADD PUSH1 0x40 MLOAD DUP1 SWAP2 SUB SWAP1 LOG2 POP PUSH2 0x477 PUSH1 0x1 DUP1 SSTORE JUMP JUMPDEST JUMP JUMPDEST PUSH1 0x3 SLOAD PUSH1 0x1 PUSH1 0x1 PUSH1 0xA0 SHL SUB AND CALLER EQ PUSH2 0x4C2 JUMPI PUSH1 0x40 MLOAD PUSH3 0x461BCD PUSH1 0xE5 SHL DUP2 MSTORE PUSH1 0x20 PUSH1 0x4 DUP3 ADD MSTORE PUSH1 0xC PUSH1 0x24 DUP3 ADD MSTORE PUSH12 0x155B985D5D1A1BDC9A5E9959 PUSH1 0xA2 SHL PUSH1 0x44 DUP3 ADD MSTORE PUSH1 0x64 ADD PUSH2 0x32E JUMP JUMPDEST PUSH1 0x9 SLOAD PUSH1 0xFF AND PUSH2 0x50A JUMPI PUSH1 0x40 MLOAD PUSH3 0x461BCD PUSH1 0xE5 SHL DUP2 MSTORE PUSH1 0x20 PUSH1 0x4 DUP3 ADD MSTORE PUSH1 0x13 PUSH1 0x24 DUP3 ADD MSTORE PUSH19 0x15DA5B9B995C9CC81B9BDD081CD95D081E595D PUSH1 0x6A SHL PUSH1 0x44 DUP3 ADD MSTORE PUSH1 0x64 ADD PUSH2 0x32E JUMP JUMPDEST PUSH1 0x0 DUP2 GT PUSH2 0x54F JUMPI PUSH1 0x40 MLOAD PUSH3 0x461BCD PUSH1 0xE5 SHL DUP2 MSTORE PUSH1 0x20 PUSH1 0x4 DUP3 ADD MSTORE PUSH1 0x12 PUSH1 0x24 DUP3 ADD MSTORE PUSH18 0x416D6F756E74206D757374206265203E203 PUSH1 0x74 SHL PUSH1 0x44 DUP3 ADD MSTORE PUSH1 0x64 ADD PUSH2 0x32E JUMP JUMPDEST PUSH1 0x0 PUSH2 0x55C PUSH1 0x5 DUP4 PUSH2 0xC67 JUMP JUMPDEST SWAP1 POP DUP1 PUSH1 0x0 SUB PUSH2 0x56A JUMPI POP POP JUMP JUMPDEST PUSH1 0x0 JUMPDEST PUSH1 0x5 DUP2 LT ISZERO PUSH2 0x5D3 JUMPI DUP2 PUSH1 0xA PUSH1 0x0 PUSH1 0x4 DUP5 PUSH1 0x5 DUP2 LT PUSH2 0x58E JUMPI PUSH2 0x58E PUSH2 0xC89 JUMP JUMPDEST ADD SLOAD PUSH1 0x1 PUSH1 0x1 PUSH1 0xA0 SHL SUB AND DUP2 MSTORE PUSH1 0x20 DUP2 ADD SWAP2 SWAP1 SWAP2 MSTORE PUSH1 0x40 ADD PUSH1 0x0 SWAP1 DUP2 KECCAK256 DUP1 SLOAD SWAP1 SWAP2 SWAP1 PUSH2 0x5BB SWAP1 DUP5 SWAP1 PUSH2 0xC4E JUMP JUMPDEST SWAP1 SWAP2 SSTORE POP DUP2 SWAP1 POP PUSH2 0x5CB DUP2 PUSH2 0xC9F JUMP JUMPDEST SWAP2 POP POP PUSH2 0x56D JUMP JUMPDEST POP DUP2 PUSH1 0xC PUSH1 0x0 DUP3 DUP3 SLOAD PUSH2 0x5E6 SWAP2 SWAP1 PUSH2 0xC4E JUMP JUMPDEST SWAP1 SWAP2 SSTORE POP POP PUSH1 0x40 MLOAD DUP3 DUP2 MSTORE PUSH32 0x8959421A1320789A49EEEC01A4750CAF8A30733C3DB14F000D84484DF89300F9 SWAP1 PUSH1 0x20 ADD PUSH1 0x40 MLOAD DUP1 SWAP2 SUB SWAP1 LOG1 POP POP JUMP JUMPDEST PUSH2 0x62A PUSH2 0xA6D JUMP JUMPDEST PUSH2 0x477 PUSH1 0x0 PUSH2 0xA9A JUMP JUMPDEST PUSH2 0x63C PUSH2 0xA6D JUMP JUMPDEST PUSH1 0x1 PUSH1 0x1 PUSH1 0xA0 SHL SUB DUP2 AND PUSH2 0x682 JUMPI PUSH1 0x40 MLOAD PUSH3 0x461BCD PUSH1 0xE5 SHL DUP2 MSTORE PUSH1 0x20 PUSH1 0x4 DUP3 ADD MSTORE PUSH1 0xD PUSH1 0x24 DUP3 ADD MSTORE PUSH13 0x24B73B30B634B2103A37B5B2B7 PUSH1 0x99 SHL PUSH1 0x44 DUP3 ADD MSTORE PUSH1 0x64 ADD PUSH2 0x32E JUMP JUMPDEST PUSH1 0x2 DUP1 SLOAD PUSH1 0x1 PUSH1 0x1 PUSH1 0xA0 SHL SUB NOT AND PUSH1 0x1 PUSH1 0x1 PUSH1 0xA0 SHL SUB DUP4 AND SWAP1 DUP2 OR SWAP1 SWAP2 SSTORE PUSH1 0x40 MLOAD PUSH32 0x2D6B04DF9B7D358407D1A014F1114B064ADD34C19D63D395DB155A7E533E967A SWAP1 PUSH1 0x0 SWAP1 LOG2 POP JUMP JUMPDEST PUSH1 0x4 DUP2 PUSH1 0x5 DUP2 LT PUSH2 0x6DC JUMPI PUSH1 0x0 DUP1 REVERT JUMPDEST ADD SLOAD PUSH1 0x1 PUSH1 0x1 PUSH1 0xA0 SHL SUB AND SWAP1 POP DUP2 JUMP JUMPDEST PUSH2 0x6F4 PUSH2 0xA6D JUMP JUMPDEST PUSH1 0x9 SLOAD PUSH1 0xFF AND ISZERO PUSH2 0x73D JUMPI PUSH1 0x40 MLOAD PUSH3 0x461BCD PUSH1 0xE5 SHL DUP2 MSTORE PUSH1 0x20 PUSH1 0x4 DUP3 ADD MSTORE PUSH1 0x13 PUSH1 0x24 DUP3 ADD MSTORE PUSH19 0x15DA5B9B995C9CC8185B1C9958591E481CD95D PUSH1 0x6A SHL PUSH1 0x44 DUP3 ADD MSTORE PUSH1 0x64 ADD PUSH2 0x32E JUMP JUMPDEST PUSH1 0x0 JUMPDEST PUSH1 0x5 DUP2 LT ISZERO PUSH2 0x828 JUMPI PUSH1 0x0 DUP3 DUP3 PUSH1 0x5 DUP2 LT PUSH2 0x75D JUMPI PUSH2 0x75D PUSH2 0xC89 JUMP JUMPDEST PUSH1 0x20 MUL ADD PUSH1 0x20 DUP2 ADD SWAP1 PUSH2 0x770 SWAP2 SWAP1 PUSH2 0xB9B JUMP JUMPDEST PUSH1 0x1 PUSH1 0x1 PUSH1 0xA0 SHL SUB AND SUB PUSH2 0x7BF JUMPI PUSH1 0x40 MLOAD PUSH3 0x461BCD PUSH1 0xE5 SHL DUP2 MSTORE PUSH1 0x20 PUSH1 0x4 DUP3 ADD MSTORE PUSH1 0x16 PUSH1 0x24 DUP3 ADD MSTORE PUSH22 0x496E76616C69642077696E6E65722061646472657373 PUSH1 0x50 SHL PUSH1 0x44 DUP3 ADD MSTORE PUSH1 0x64 ADD PUSH2 0x32E JUMP JUMPDEST DUP2 DUP2 PUSH1 0x5 DUP2 LT PUSH2 0x7D1 JUMPI PUSH2 0x7D1 PUSH2 0xC89 JUMP JUMPDEST PUSH1 0x20 MUL ADD PUSH1 0x20 DUP2 ADD SWAP1 PUSH2 0x7E4 SWAP2 SWAP1 PUSH2 0xB9B JUMP JUMPDEST PUSH1 0x4 DUP3 PUSH1 0x5 DUP2 LT PUSH2 0x7F7 JUMPI PUSH2 0x7F7 PUSH2 0xC89 JUMP JUMPDEST ADD DUP1 SLOAD PUSH1 0x1 PUSH1 0x1 PUSH1 0xA0 SHL SUB NOT AND PUSH1 0x1 PUSH1 0x1 PUSH1 0xA0 SHL SUB SWAP3 SWAP1 SWAP3 AND SWAP2 SWAP1 SWAP2 OR SWAP1 SSTORE DUP1 PUSH2 0x820 DUP2 PUSH2 0xC9F JUMP JUMPDEST SWAP2 POP POP PUSH2 0x740 JUMP JUMPDEST POP PUSH1 0x9 DUP1 SLOAD PUSH1 0xFF NOT AND PUSH1 0x1 OR SWAP1 SSTORE PUSH1 0x40 MLOAD PUSH32 0x1A1A4C349D88DD872B0CCDDADFD17058F30128C742EFFF54DA51F58860512D77 SWAP1 PUSH2 0x866 SWAP1 DUP4 SWAP1 PUSH2 0xCB8 JUMP JUMPDEST PUSH1 0x40 MLOAD DUP1 SWAP2 SUB SWAP1 LOG1 POP JUMP JUMPDEST PUSH2 0x879 PUSH2 0xA6D JUMP JUMPDEST PUSH1 0x1 PUSH1 0x1 PUSH1 0xA0 SHL SUB DUP2 AND PUSH2 0x8C1 JUMPI PUSH1 0x40 MLOAD PUSH3 0x461BCD PUSH1 0xE5 SHL DUP2 MSTORE PUSH1 0x20 PUSH1 0x4 DUP3 ADD MSTORE PUSH1 0xF PUSH1 0x24 DUP3 ADD MSTORE PUSH15 0x496E76616C69642061646472657373 PUSH1 0x88 SHL PUSH1 0x44 DUP3 ADD MSTORE PUSH1 0x64 ADD PUSH2 0x32E JUMP JUMPDEST PUSH1 0x3 DUP1 SLOAD PUSH1 0x1 PUSH1 0x1 PUSH1 0xA0 SHL SUB NOT AND PUSH1 0x1 PUSH1 0x1 PUSH1 0xA0 SHL SUB DUP4 AND SWAP1 DUP2 OR SWAP1 SWAP2 SSTORE PUSH1 0x40 MLOAD PUSH32 0x9B64004F1A50E51D3C2809B6A8EFBAE432BFA889E0B4BF67F75E7DB8CA816DBA SWAP1 PUSH1 0x0 SWAP1 LOG2 POP JUMP JUMPDEST PUSH2 0x913 PUSH2 0xB61 JUMP JUMPDEST PUSH1 0x40 DUP1 MLOAD PUSH1 0xA0 DUP2 ADD SWAP2 DUP3 SWAP1 MSTORE SWAP1 PUSH1 0x4 SWAP1 PUSH1 0x5 SWAP1 DUP3 DUP5 JUMPDEST DUP2 SLOAD PUSH1 0x1 PUSH1 0x1 PUSH1 0xA0 SHL SUB AND DUP2 MSTORE PUSH1 0x1 SWAP1 SWAP2 ADD SWAP1 PUSH1 0x20 ADD DUP1 DUP4 GT PUSH2 0x929 JUMPI POP POP POP POP POP SWAP1 POP SWAP1 JUMP JUMPDEST PUSH2 0x958 PUSH2 0xA6D JUMP JUMPDEST PUSH1 0x1 PUSH1 0x1 PUSH1 0xA0 SHL SUB DUP2 AND PUSH2 0x982 JUMPI PUSH1 0x40 MLOAD PUSH4 0x1E4FBDF7 PUSH1 0xE0 SHL DUP2 MSTORE PUSH1 0x0 PUSH1 0x4 DUP3 ADD MSTORE PUSH1 0x24 ADD PUSH2 0x32E JUMP JUMPDEST PUSH2 0x98B DUP2 PUSH2 0xA9A JUMP JUMPDEST POP JUMP JUMPDEST PUSH1 0x2 PUSH1 0x1 SLOAD SUB PUSH2 0x9B1 JUMPI PUSH1 0x40 MLOAD PUSH4 0x3EE5AEB5 PUSH1 0xE0 SHL DUP2 MSTORE PUSH1 0x4 ADD PUSH1 0x40 MLOAD DUP1 SWAP2 SUB SWAP1 REVERT JUMPDEST PUSH1 0x2 PUSH1 0x1 SSTORE JUMP JUMPDEST PUSH1 0x0 DUP1 JUMPDEST PUSH1 0x5 DUP2 LT ISZERO PUSH2 0xA0D JUMPI DUP3 PUSH1 0x1 PUSH1 0x1 PUSH1 0xA0 SHL SUB AND PUSH1 0x4 DUP3 PUSH1 0x5 DUP2 LT PUSH2 0x9E2 JUMPI PUSH2 0x9E2 PUSH2 0xC89 JUMP JUMPDEST ADD SLOAD PUSH1 0x1 PUSH1 0x1 PUSH1 0xA0 SHL SUB AND SUB PUSH2 0x9FB JUMPI POP PUSH1 0x1 SWAP3 SWAP2 POP POP JUMP JUMPDEST DUP1 PUSH2 0xA05 DUP2 PUSH2 0xC9F JUMP JUMPDEST SWAP2 POP POP PUSH2 0x9BC JUMP JUMPDEST POP PUSH1 0x0 SWAP3 SWAP2 POP POP JUMP JUMPDEST PUSH1 0x40 DUP1 MLOAD PUSH1 0x1 PUSH1 0x1 PUSH1 0xA0 SHL SUB DUP5 AND PUSH1 0x24 DUP3 ADD MSTORE PUSH1 0x44 DUP1 DUP3 ADD DUP5 SWAP1 MSTORE DUP3 MLOAD DUP1 DUP4 SUB SWAP1 SWAP2 ADD DUP2 MSTORE PUSH1 0x64 SWAP1 SWAP2 ADD SWAP1 SWAP2 MSTORE PUSH1 0x20 DUP2 ADD DUP1 MLOAD PUSH1 0x1 PUSH1 0x1 PUSH1 0xE0 SHL SUB AND PUSH4 0xA9059CBB PUSH1 0xE0 SHL OR SWAP1 MSTORE PUSH2 0xA68 SWAP1 DUP5 SWAP1 PUSH2 0xAEA JUMP JUMPDEST POP POP POP JUMP JUMPDEST PUSH1 0x0 SLOAD PUSH1 0x1 PUSH1 0x1 PUSH1 0xA0 SHL SUB AND CALLER EQ PUSH2 0x477 JUMPI PUSH1 0x40 MLOAD PUSH4 0x118CDAA7 PUSH1 0xE0 SHL DUP2 MSTORE CALLER PUSH1 0x4 DUP3 ADD MSTORE PUSH1 0x24 ADD PUSH2 0x32E JUMP JUMPDEST PUSH1 0x0 DUP1 SLOAD PUSH1 0x1 PUSH1 0x1 PUSH1 0xA0 SHL SUB DUP4 DUP2 AND PUSH1 0x1 PUSH1 0x1 PUSH1 0xA0 SHL SUB NOT DUP4 AND DUP2 OR DUP5 SSTORE PUSH1 0x40 MLOAD SWAP2 SWAP1 SWAP3 AND SWAP3 DUP4 SWAP2 PUSH32 0x8BE0079C531659141344CD1FD0A4F28419497F9722A3DAAFE3B4186F6B6457E0 SWAP2 SWAP1 LOG3 POP POP JUMP JUMPDEST PUSH1 0x0 DUP1 PUSH1 0x20 PUSH1 0x0 DUP5 MLOAD PUSH1 0x20 DUP7 ADD PUSH1 0x0 DUP9 GAS CALL DUP1 PUSH2 0xB0D JUMPI PUSH1 0x40 MLOAD RETURNDATASIZE PUSH1 0x0 DUP3 RETURNDATACOPY RETURNDATASIZE DUP2 REVERT JUMPDEST POP POP PUSH1 0x0 MLOAD RETURNDATASIZE SWAP2 POP DUP2 ISZERO PUSH2 0xB25 JUMPI DUP1 PUSH1 0x1 EQ ISZERO PUSH2 0xB32 JUMP JUMPDEST PUSH1 0x1 PUSH1 0x1 PUSH1 0xA0 SHL SUB DUP5 AND EXTCODESIZE ISZERO JUMPDEST ISZERO PUSH2 0xB5B JUMPI PUSH1 0x40 MLOAD PUSH4 0x5274AFE7 PUSH1 0xE0 SHL DUP2 MSTORE PUSH1 0x1 PUSH1 0x1 PUSH1 0xA0 SHL SUB DUP6 AND PUSH1 0x4 DUP3 ADD MSTORE PUSH1 0x24 ADD PUSH2 0x32E JUMP JUMPDEST POP POP POP POP JUMP JUMPDEST PUSH1 0x40 MLOAD DUP1 PUSH1 0xA0 ADD PUSH1 0x40 MSTORE DUP1 PUSH1 0x5 SWAP1 PUSH1 0x20 DUP3 MUL DUP1 CALLDATASIZE DUP4 CALLDATACOPY POP SWAP2 SWAP3 SWAP2 POP POP JUMP JUMPDEST DUP1 CALLDATALOAD PUSH1 0x1 PUSH1 0x1 PUSH1 0xA0 SHL SUB DUP2 AND DUP2 EQ PUSH2 0xB96 JUMPI PUSH1 0x0 DUP1 REVERT JUMPDEST SWAP2 SWAP1 POP JUMP JUMPDEST PUSH1 0x0 PUSH1 0x20 DUP3 DUP5 SUB SLT ISZERO PUSH2 0xBAD JUMPI PUSH1 0x0 DUP1 REVERT JUMPDEST PUSH2 0xBB6 DUP3 PUSH2 0xB7F JUMP JUMPDEST SWAP4 SWAP3 POP POP POP JUMP JUMPDEST PUSH1 0x0 PUSH1 0x20 DUP3 DUP5 SUB SLT ISZERO PUSH2 0xBCF JUMPI PUSH1 0x0 DUP1 REVERT JUMPDEST POP CALLDATALOAD SWAP2 SWAP1 POP JUMP JUMPDEST PUSH1 0x0 PUSH1 0xA0 DUP3 DUP5 SUB SLT ISZERO PUSH2 0xBE8 JUMPI PUSH1 0x0 DUP1 REVERT JUMPDEST DUP3 PUSH1 0xA0 DUP4 ADD GT ISZERO PUSH2 0xBF8 JUMPI PUSH1 0x0 DUP1 REVERT JUMPDEST POP SWAP2 SWAP1 POP JUMP JUMPDEST PUSH1 0xA0 DUP2 ADD DUP2 DUP4 PUSH1 0x0 JUMPDEST PUSH1 0x5 DUP2 LT ISZERO PUSH2 0xC2F JUMPI DUP2 MLOAD PUSH1 0x1 PUSH1 0x1 PUSH1 0xA0 SHL SUB AND DUP4 MSTORE PUSH1 0x20 SWAP3 DUP4 ADD SWAP3 SWAP1 SWAP2 ADD SWAP1 PUSH1 0x1 ADD PUSH2 0xC07 JUMP JUMPDEST POP POP POP SWAP3 SWAP2 POP POP JUMP JUMPDEST PUSH4 0x4E487B71 PUSH1 0xE0 SHL PUSH1 0x0 MSTORE PUSH1 0x11 PUSH1 0x4 MSTORE PUSH1 0x24 PUSH1 0x0 REVERT JUMPDEST DUP1 DUP3 ADD DUP1 DUP3 GT ISZERO PUSH2 0xC61 JUMPI PUSH2 0xC61 PUSH2 0xC38 JUMP JUMPDEST SWAP3 SWAP2 POP POP JUMP JUMPDEST PUSH1 0x0 DUP3 PUSH2 0xC84 JUMPI PUSH4 0x4E487B71 PUSH1 0xE0 SHL PUSH1 0x0 MSTORE PUSH1 0x12 PUSH1 0x4 MSTORE PUSH1 0x24 PUSH1 0x0 REVERT JUMPDEST POP DIV SWAP1 JUMP JUMPDEST PUSH4 0x4E487B71 PUSH1 0xE0 SHL PUSH1 0x0 MSTORE PUSH1 0x32 PUSH1 0x4 MSTORE PUSH1 0x24 PUSH1 0x0 REVERT JUMPDEST PUSH1 0x0 PUSH1 0x1 DUP3 ADD PUSH2 0xCB1 JUMPI PUSH2 0xCB1 PUSH2 0xC38 JUMP JUMPDEST POP PUSH1 0x1 ADD SWAP1 JUMP JUMPDEST PUSH1 0xA0 DUP2 ADD DUP2 DUP4 PUSH1 0x0 JUMPDEST PUSH1 0x5 DUP2 LT ISZERO PUSH2 0xC2F JUMPI PUSH1 0x1 PUSH1 0x1 PUSH1 0xA0 SHL SUB PUSH2 0xCDB DUP4 PUSH2 0xB7F JUMP JUMPDEST AND DUP4 MSTORE PUSH1 0x20 SWAP3 DUP4 ADD SWAP3 SWAP2 SWAP1 SWAP2 ADD SWAP1 PUSH1 0x1 ADD PUSH2 0xCC1 JUMP INVALID LOG2 PUSH5 0x6970667358 0x22 SLT KECCAK256 DUP9 PUSH7 0xB2B82106649130 GASLIMIT NOT PUSH5 0x4DC5DE4A27 0xDF CALLDATASIZE 0xBA PUSH9 0x3ED614292EF42C1985 0xD0 SWAP11 PUSH5 0x736F6C6343 STOP ADDMOD EQ STOP CALLER "},"methodIdentifiers":{"claimRewards()":"372500ab","claimedRewards(address)":"bd834345","distributeFees(uint256)":"6029bf9f","getClaimedRewards(address)":"b9e35db0","getPendingRewards(address)":"f6ed2017","getWinners()":"df15c37e","lifetimeWinners(uint256)":"a640a62a","owner()":"8da5cb5b","pendingRewards(address)":"31d7a262","renounceOwnership()":"715018a6","rewardToken()":"f7c618c1","setLifetimeWinners(address[5])":"aaee56aa","setRewardToken(address)":"8aee8127","setTokenContract(address)":"bbcd5bbe","tokenContract()":"55a373d6","totalClaimed()":"d54ad2a1","totalDistributed()":"efca2eed","transferOwnership(address)":"f2fde38b","winnersSet()":"5f172103"}}}}}