{"contracts/VerifyzVerifier.sol":{"VerifyzVerifier":{"abi":[{"inputs":[{"internalType":"string","name":"name_","type":"string"},{"internalType":"string","name":"symbol_","type":"string"},{"internalType":"address","name":"treasury_","type":"address"}],"stateMutability":"nonpayable","type":"constructor"},{"inputs":[{"internalType":"address","name":"spender","type":"address"},{"internalType":"uint256","name":"allowance","type":"uint256"},{"internalType":"uint256","name":"needed","type":"uint256"}],"name":"ERC20InsufficientAllowance","type":"error"},{"inputs":[{"internalType":"address","name":"sender","type":"address"},{"internalType":"uint256","name":"balance","type":"uint256"},{"internalType":"uint256","name":"needed","type":"uint256"}],"name":"ERC20InsufficientBalance","type":"error"},{"inputs":[{"internalType":"address","name":"approver","type":"address"}],"name":"ERC20InvalidApprover","type":"error"},{"inputs":[{"internalType":"address","name":"receiver","type":"address"}],"name":"ERC20InvalidReceiver","type":"error"},{"inputs":[{"internalType":"address","name":"sender","type":"address"}],"name":"ERC20InvalidSender","type":"error"},{"inputs":[{"internalType":"address","name":"spender","type":"address"}],"name":"ERC20InvalidSpender","type":"error"},{"inputs":[{"internalType":"address","name":"owner","type":"address"}],"name":"OwnableInvalidOwner","type":"error"},{"inputs":[{"internalType":"address","name":"account","type":"address"}],"name":"OwnableUnauthorizedAccount","type":"error"},{"inputs":[],"name":"ReentrancyGuardReentrantCall","type":"error"},{"anonymous":false,"inputs":[{"indexed":true,"internalType":"address","name":"owner","type":"address"},{"indexed":true,"internalType":"address","name":"spender","type":"address"},{"indexed":false,"internalType":"uint256","name":"value","type":"uint256"}],"name":"Approval","type":"event"},{"anonymous":false,"inputs":[{"indexed":true,"internalType":"address","name":"account","type":"address"},{"indexed":false,"internalType":"bool","name":"exempt","type":"bool"}],"name":"FeeExemptionSet","type":"event"},{"anonymous":false,"inputs":[{"indexed":false,"internalType":"bool","name":"enabled","type":"bool"}],"name":"FeesEnabled","type":"event"},{"anonymous":false,"inputs":[{"indexed":true,"internalType":"address","name":"previousOwner","type":"address"},{"indexed":true,"internalType":"address","name":"newOwner","type":"address"}],"name":"OwnershipTransferred","type":"event"},{"anonymous":false,"inputs":[{"indexed":true,"internalType":"address","name":"distributor","type":"address"}],"name":"RewardsDistributorSet","type":"event"},{"anonymous":false,"inputs":[{"indexed":true,"internalType":"address","name":"from","type":"address"},{"indexed":true,"internalType":"address","name":"to","type":"address"},{"indexed":false,"internalType":"uint256","name":"value","type":"uint256"}],"name":"Transfer","type":"event"},{"anonymous":false,"inputs":[{"indexed":true,"internalType":"address","name":"treasury","type":"address"}],"name":"TreasurySet","type":"event"},{"inputs":[],"name":"FEE_PERCENTAGE","outputs":[{"internalType":"uint256","name":"","type":"uint256"}],"stateMutability":"view","type":"function"},{"inputs":[],"name":"REWARD_WINNERS_FEE","outputs":[{"internalType":"uint256","name":"","type":"uint256"}],"stateMutability":"view","type":"function"},{"inputs":[],"name":"TOTAL_SUPPLY","outputs":[{"internalType":"uint256","name":"","type":"uint256"}],"stateMutability":"view","type":"function"},{"inputs":[],"name":"TREASURY_FEE","outputs":[{"internalType":"uint256","name":"","type":"uint256"}],"stateMutability":"view","type":"function"},{"inputs":[{"internalType":"address","name":"owner","type":"address"},{"internalType":"address","name":"spender","type":"address"}],"name":"allowance","outputs":[{"internalType":"uint256","name":"","type":"uint256"}],"stateMutability":"view","type":"function"},{"inputs":[{"internalType":"address","name":"spender","type":"address"},{"internalType":"uint256","name":"value","type":"uint256"}],"name":"approve","outputs":[{"internalType":"bool","name":"","type":"bool"}],"stateMutability":"nonpayable","type":"function"},{"inputs":[{"internalType":"address","name":"account","type":"address"}],"name":"balanceOf","outputs":[{"internalType":"uint256","name":"","type":"uint256"}],"stateMutability":"view","type":"function"},{"inputs":[],"name":"decimals","outputs":[{"internalType":"uint8","name":"","type":"uint8"}],"stateMutability":"view","type":"function"},{"inputs":[{"internalType":"address","name":"","type":"address"}],"name":"feeExempt","outputs":[{"internalType":"bool","name":"","type":"bool"}],"stateMutability":"view","type":"function"},{"inputs":[],"name":"feesEnabled","outputs":[{"internalType":"bool","name":"","type":"bool"}],"stateMutability":"view","type":"function"},{"inputs":[],"name":"name","outputs":[{"internalType":"string","name":"","type":"string"}],"stateMutability":"view","type":"function"},{"inputs":[],"name":"owner","outputs":[{"internalType":"address","name":"","type":"address"}],"stateMutability":"view","type":"function"},{"inputs":[],"name":"renounceOwnership","outputs":[],"stateMutability":"nonpayable","type":"function"},{"inputs":[],"name":"rewardsDistributor","outputs":[{"internalType":"address","name":"","type":"address"}],"stateMutability":"view","type":"function"},{"inputs":[{"internalType":"address","name":"account","type":"address"},{"internalType":"bool","name":"exempt","type":"bool"}],"name":"setFeeExemption","outputs":[],"stateMutability":"nonpayable","type":"function"},{"inputs":[{"internalType":"bool","name":"_enabled","type":"bool"}],"name":"setFeesEnabled","outputs":[],"stateMutability":"nonpayable","type":"function"},{"inputs":[{"internalType":"address","name":"_rewardsDistributor","type":"address"}],"name":"setRewardsDistributor","outputs":[],"stateMutability":"nonpayable","type":"function"},{"inputs":[{"internalType":"address","name":"_treasury","type":"address"}],"name":"setTreasury","outputs":[],"stateMutability":"nonpayable","type":"function"},{"inputs":[],"name":"symbol","outputs":[{"internalType":"string","name":"","type":"string"}],"stateMutability":"view","type":"function"},{"inputs":[],"name":"totalSupply","outputs":[{"internalType":"uint256","name":"","type":"uint256"}],"stateMutability":"view","type":"function"},{"inputs":[{"internalType":"address","name":"to","type":"address"},{"internalType":"uint256","name":"value","type":"uint256"}],"name":"transfer","outputs":[{"internalType":"bool","name":"","type":"bool"}],"stateMutability":"nonpayable","type":"function"},{"inputs":[{"internalType":"address","name":"from","type":"address"},{"internalType":"address","name":"to","type":"address"},{"internalType":"uint256","name":"value","type":"uint256"}],"name":"transferFrom","outputs":[{"internalType":"bool","name":"","type":"bool"}],"stateMutability":"nonpayable","type":"function"},{"inputs":[{"internalType":"address","name":"newOwner","type":"address"}],"name":"transferOwnership","outputs":[],"stateMutability":"nonpayable","type":"function"},{"inputs":[],"name":"treasury","outputs":[{"internalType":"address","name":"","type":"address"}],"stateMutability":"view","type":"function"}],"evm":{"bytecode":{"linkReferences":{},"object":"60806040526008805460ff60a01b191690553480156200001e57600080fd5b50604051620016513803806200165183398101604081905262000041916200057e565b338383600362000052838262000699565b50600462000061828262000699565b5050506001600160a01b0381166200009457604051631e4fbdf760e01b8152600060048201526024015b60405180910390fd5b6200009f81620000fb565b506001600655600880546001600160a01b0319166001600160a01b038316179055620000d8336b019d971e4fe8401e740000006200014d565b5050336000908152600960205260409020805460ff1916600117905550620007ea565b600580546001600160a01b038381166001600160a01b0319831681179093556040519116919082907f8be0079c531659141344cd1fd0a4f28419497f9722a3daafe3b4186f6b6457e090600090a35050565b6001600160a01b038216620001795760405163ec442f0560e01b8152600060048201526024016200008b565b62000187600083836200018b565b5050565b6001600160a01b03831615801590620001ac57506001600160a01b03821615155b8015620001c25750600854600160a01b900460ff165b8015620001e857506001600160a01b03831660009081526009602052604090205460ff16155b80156200020e57506001600160a01b03821660009081526009602052604090205460ff16155b15620003745760006064620002256005846200077b565b6200023191906200079b565b90506000620002418284620007be565b905081156200036057600060646200025b6001866200077b565b6200026791906200079b565b90506000620002778285620007be565b6007549091506001600160a01b031615801590620002955750600082115b156200031b57600754620002b59088906001600160a01b03168462000386565b600754604051636029bf9f60e01b8152600481018490526001600160a01b0390911690636029bf9f90602401600060405180830381600087803b158015620002fc57600080fd5b505af115801562000311573d6000803e3d6000fd5b505050506200032a565b620003278282620007d4565b90505b80156200034b576008546200034b9088906001600160a01b03168362000386565b6200035887878562000386565b50506200036d565b6200036d85858562000386565b5050505050565b6200038183838362000386565b505050565b6001600160a01b038316620003b5578060026000828254620003a99190620007d4565b90915550620004299050565b6001600160a01b038316600090815260208190526040902054818110156200040a5760405163391434e360e21b81526001600160a01b038516600482015260248101829052604481018390526064016200008b565b6001600160a01b03841660009081526020819052604090209082900390555b6001600160a01b038216620004475760028054829003905562000466565b6001600160a01b03821660009081526020819052604090208054820190555b816001600160a01b0316836001600160a01b03167fddf252ad1be2c89b69c2b068fc378daa952ba7f163c4a11628f55a4df523b3ef83604051620004ac91815260200190565b60405180910390a3505050565b634e487b7160e01b600052604160045260246000fd5b600082601f830112620004e157600080fd5b81516001600160401b0380821115620004fe57620004fe620004b9565b604051601f8301601f19908116603f01168101908282118183101715620005295762000529620004b9565b816040528381526020925086838588010111156200054657600080fd5b600091505b838210156200056a57858201830151818301840152908201906200054b565b600093810190920192909252949350505050565b6000806000606084860312156200059457600080fd5b83516001600160401b0380821115620005ac57600080fd5b620005ba87838801620004cf565b94506020860151915080821115620005d157600080fd5b50620005e086828701620004cf565b604086015190935090506001600160a01b03811681146200060057600080fd5b809150509250925092565b600181811c908216806200062057607f821691505b6020821081036200064157634e487b7160e01b600052602260045260246000fd5b50919050565b601f8211156200038157600081815260208120601f850160051c81016020861015620006705750805b601f850160051c820191505b8181101562000691578281556001016200067c565b505050505050565b81516001600160401b03811115620006b557620006b5620004b9565b620006cd81620006c684546200060b565b8462000647565b602080601f831160018114620007055760008415620006ec5750858301515b600019600386901b1c1916600185901b17855562000691565b600085815260208120601f198616915b82811015620007365788860151825594840194600190910190840162000715565b5085821015620007555787850151600019600388901b60f8161c191681555b5050505050600190811b01905550565b634e487b7160e01b600052601160045260246000fd5b808202811582820484141762000795576200079562000765565b92915050565b600082620007b957634e487b7160e01b600052601260045260246000fd5b500490565b8181038181111562000795576200079562000765565b8082018082111562000795576200079562000765565b610e5780620007fa6000396000f3fe608060405234801561001057600080fd5b50600436106101575760003560e01c8063751fd179116100c3578063a901dd921161007c578063a901dd92146102d0578063a9059cbb146102e3578063d1f5c33b146102f6578063dd62ed3e14610309578063f0f4426014610342578063f2fde38b1461035557600080fd5b8063751fd179146102755780638ce1a483146102885780638da5cb5b14610290578063902d55a5146102a157806395d89b41146102b4578063a64e4f8a146102bc57600080fd5b8063398daa8511610115578063398daa85146101d95780633f2a5540146101fc5780634105e3ef1461022757806361d027b31461022f57806370a0823114610242578063715018a61461026b57600080fd5b80620b46f81461015c57806306fdde0314610177578063095ea7b31461018c57806318160ddd146101af57806323b872dd146101b7578063313ce567146101ca575b600080fd5b610164600581565b6040519081526020015b60405180910390f35b61017f610368565b60405161016e9190610bf8565b61019f61019a366004610c62565b6103fa565b604051901515815260200161016e565b600254610164565b61019f6101c5366004610c8c565b610414565b6040516012815260200161016e565b61019f6101e7366004610cc8565b60096020526000908152604090205460ff1681565b60075461020f906001600160a01b031681565b6040516001600160a01b03909116815260200161016e565b610164600181565b60085461020f906001600160a01b031681565b610164610250366004610cc8565b6001600160a01b031660009081526020819052604090205490565b610273610438565b005b610273610283366004610cfa565b61044c565b610164600481565b6005546001600160a01b031661020f565b6101646b019d971e4fe8401e7400000081565b61017f6104b3565b60085461019f90600160a01b900460ff1681565b6102736102de366004610d2d565b6104c2565b61019f6102f1366004610c62565b610522565b610273610304366004610cc8565b610530565b610164610317366004610d48565b6001600160a01b03918216600090815260016020908152604080832093909416825291909152205490565b610273610350366004610cc8565b6105e5565b610273610363366004610cc8565b61067f565b60606003805461037790610d72565b80601f01602080910402602001604051908101604052809291908181526020018280546103a390610d72565b80156103f05780601f106103c5576101008083540402835291602001916103f0565b820191906000526020600020905b8154815290600101906020018083116103d357829003601f168201915b5050505050905090565b6000336104088185856106bd565b60019150505b92915050565b6000336104228582856106cf565b61042d85858561074e565b506001949350505050565b6104406107ad565b61044a60006107da565b565b6104546107ad565b6001600160a01b038216600081815260096020908152604091829020805460ff191685151590811790915591519182527f210f2a4a589e25d95b24cbdb060d26ae79bbe123a564d0f973503d48badd00ca910160405180910390a25050565b60606004805461037790610d72565b6104ca6107ad565b60088054821515600160a01b0260ff60a01b199091161790556040517fa0ecf0a5fbb822896523e7519379813a2d69d92a1d7e408139c60d90041f23ae9061051790831515815260200190565b60405180910390a150565b60003361040881858561074e565b6105386107ad565b6001600160a01b0381166105855760405162461bcd60e51b815260206004820152600f60248201526e496e76616c6964206164647265737360881b60448201526064015b60405180910390fd5b600780546001600160a01b0319166001600160a01b038316908117909155600081815260096020526040808220805460ff19166001179055517f950a88e6770f863d57a76f0536e93cc7c318c1188c4c189aa9d7a98a6e62f8649190a250565b6105ed6107ad565b6001600160a01b0381166106355760405162461bcd60e51b815260206004820152600f60248201526e496e76616c6964206164647265737360881b604482015260640161057c565b600880546001600160a01b0319166001600160a01b0383169081179091556040517f3c864541ef71378c6229510ed90f376565ee42d9c5e0904a984a9e863e6db44f90600090a250565b6106876107ad565b6001600160a01b0381166106b157604051631e4fbdf760e01b81526000600482015260240161057c565b6106ba816107da565b50565b6106ca838383600161082c565b505050565b6001600160a01b03838116600090815260016020908152604080832093861683529290522054600019811015610748578181101561073957604051637dc7a0d960e11b81526001600160a01b0384166004820152602481018290526044810183905260640161057c565b6107488484848403600061082c565b50505050565b6001600160a01b03831661077857604051634b637e8f60e11b81526000600482015260240161057c565b6001600160a01b0382166107a25760405163ec442f0560e01b81526000600482015260240161057c565b6106ca838383610901565b6005546001600160a01b0316331461044a5760405163118cdaa760e01b815233600482015260240161057c565b600580546001600160a01b038381166001600160a01b0319831681179093556040519116919082907f8be0079c531659141344cd1fd0a4f28419497f9722a3daafe3b4186f6b6457e090600090a35050565b6001600160a01b0384166108565760405163e602df0560e01b81526000600482015260240161057c565b6001600160a01b03831661088057604051634a1406b160e11b81526000600482015260240161057c565b6001600160a01b038085166000908152600160209081526040808320938716835292905220829055801561074857826001600160a01b0316846001600160a01b03167f8c5be1e5ebec7d5bd14f71427d1e84f3dd0314c0f7b2291e5b200ac8c7c3b925846040516108f391815260200190565b60405180910390a350505050565b6001600160a01b0383161580159061092157506001600160a01b03821615155b80156109365750600854600160a01b900460ff165b801561095b57506001600160a01b03831660009081526009602052604090205460ff16155b801561098057506001600160a01b03821660009081526009602052604090205460ff16155b15610ac75760006064610994600584610dc2565b61099e9190610dd9565b905060006109ac8284610dfb565b90508115610ab557600060646109c3600186610dc2565b6109cd9190610dd9565b905060006109db8285610dfb565b6007549091506001600160a01b0316158015906109f85750600082115b15610a7857600754610a159088906001600160a01b031684610ace565b600754604051636029bf9f60e01b8152600481018490526001600160a01b0390911690636029bf9f90602401600060405180830381600087803b158015610a5b57600080fd5b505af1158015610a6f573d6000803e3d6000fd5b50505050610a85565b610a828282610e0e565b90505b8015610aa357600854610aa39088906001600160a01b031683610ace565b610aae878785610ace565b5050610ac0565b610ac0858585610ace565b5050505050565b6106ca8383835b6001600160a01b038316610af9578060026000828254610aee9190610e0e565b90915550610b6b9050565b6001600160a01b03831660009081526020819052604090205481811015610b4c5760405163391434e360e21b81526001600160a01b0385166004820152602481018290526044810183905260640161057c565b6001600160a01b03841660009081526020819052604090209082900390555b6001600160a01b038216610b8757600280548290039055610ba6565b6001600160a01b03821660009081526020819052604090208054820190555b816001600160a01b0316836001600160a01b03167fddf252ad1be2c89b69c2b068fc378daa952ba7f163c4a11628f55a4df523b3ef83604051610beb91815260200190565b60405180910390a3505050565b600060208083528351808285015260005b81811015610c2557858101830151858201604001528201610c09565b506000604082860101526040601f19601f8301168501019250505092915050565b80356001600160a01b0381168114610c5d57600080fd5b919050565b60008060408385031215610c7557600080fd5b610c7e83610c46565b946020939093013593505050565b600080600060608486031215610ca157600080fd5b610caa84610c46565b9250610cb860208501610c46565b9150604084013590509250925092565b600060208284031215610cda57600080fd5b610ce382610c46565b9392505050565b80358015158114610c5d57600080fd5b60008060408385031215610d0d57600080fd5b610d1683610c46565b9150610d2460208401610cea565b90509250929050565b600060208284031215610d3f57600080fd5b610ce382610cea565b60008060408385031215610d5b57600080fd5b610d6483610c46565b9150610d2460208401610c46565b600181811c90821680610d8657607f821691505b602082108103610da657634e487b7160e01b600052602260045260246000fd5b50919050565b634e487b7160e01b600052601160045260246000fd5b808202811582820484141761040e5761040e610dac565b600082610df657634e487b7160e01b600052601260045260246000fd5b500490565b8181038181111561040e5761040e610dac565b8082018082111561040e5761040e610dac56fea2646970667358221220ef390e96abcc21293f51dfad5dc0e45d572cd17f2bcf695e3f441509383c62d264736f6c63430008140033","opcodes":"PUSH1 0x80 PUSH1 0x40 MSTORE PUSH1 0x8 DUP1 SLOAD PUSH1 0xFF PUSH1 0xA0 SHL NOT AND SWAP1 SSTORE CALLVALUE DUP1 ISZERO PUSH3 0x1E JUMPI PUSH1 0x0 DUP1 REVERT JUMPDEST POP PUSH1 0x40 MLOAD PUSH3 0x1651 CODESIZE SUB DUP1 PUSH3 0x1651 DUP4 CODECOPY DUP2 ADD PUSH1 0x40 DUP2 SWAP1 MSTORE PUSH3 0x41 SWAP2 PUSH3 0x57E JUMP JUMPDEST CALLER DUP4 DUP4 PUSH1 0x3 PUSH3 0x52 DUP4 DUP3 PUSH3 0x699 JUMP JUMPDEST POP PUSH1 0x4 PUSH3 0x61 DUP3 DUP3 PUSH3 0x699 JUMP JUMPDEST POP POP POP PUSH1 0x1 PUSH1 0x1 PUSH1 0xA0 SHL SUB DUP2 AND PUSH3 0x94 JUMPI PUSH1 0x40 MLOAD PUSH4 0x1E4FBDF7 PUSH1 0xE0 SHL DUP2 MSTORE PUSH1 0x0 PUSH1 0x4 DUP3 ADD MSTORE PUSH1 0x24 ADD JUMPDEST PUSH1 0x40 MLOAD DUP1 SWAP2 SUB SWAP1 REVERT JUMPDEST PUSH3 0x9F DUP2 PUSH3 0xFB JUMP JUMPDEST POP PUSH1 0x1 PUSH1 0x6 SSTORE PUSH1 0x8 DUP1 SLOAD PUSH1 0x1 PUSH1 0x1 PUSH1 0xA0 SHL SUB NOT AND PUSH1 0x1 PUSH1 0x1 PUSH1 0xA0 SHL SUB DUP4 AND OR SWAP1 SSTORE PUSH3 0xD8 CALLER PUSH12 0x19D971E4FE8401E74000000 PUSH3 0x14D JUMP JUMPDEST POP POP CALLER PUSH1 0x0 SWAP1 DUP2 MSTORE PUSH1 0x9 PUSH1 0x20 MSTORE PUSH1 0x40 SWAP1 KECCAK256 DUP1 SLOAD PUSH1 0xFF NOT AND PUSH1 0x1 OR SWAP1 SSTORE POP PUSH3 0x7EA JUMP JUMPDEST PUSH1 0x5 DUP1 SLOAD PUSH1 0x1 PUSH1 0x1 PUSH1 0xA0 SHL SUB DUP4 DUP2 AND PUSH1 0x1 PUSH1 0x1 PUSH1 0xA0 SHL SUB NOT DUP4 AND DUP2 OR SWAP1 SWAP4 SSTORE PUSH1 0x40 MLOAD SWAP2 AND SWAP2 SWAP1 DUP3 SWAP1 PUSH32 0x8BE0079C531659141344CD1FD0A4F28419497F9722A3DAAFE3B4186F6B6457E0 SWAP1 PUSH1 0x0 SWAP1 LOG3 POP POP JUMP JUMPDEST PUSH1 0x1 PUSH1 0x1 PUSH1 0xA0 SHL SUB DUP3 AND PUSH3 0x179 JUMPI PUSH1 0x40 MLOAD PUSH4 0xEC442F05 PUSH1 0xE0 SHL DUP2 MSTORE PUSH1 0x0 PUSH1 0x4 DUP3 ADD MSTORE PUSH1 0x24 ADD PUSH3 0x8B JUMP JUMPDEST PUSH3 0x187 PUSH1 0x0 DUP4 DUP4 PUSH3 0x18B JUMP JUMPDEST POP POP JUMP JUMPDEST PUSH1 0x1 PUSH1 0x1 PUSH1 0xA0 SHL SUB DUP4 AND ISZERO DUP1 ISZERO SWAP1 PUSH3 0x1AC JUMPI POP PUSH1 0x1 PUSH1 0x1 PUSH1 0xA0 SHL SUB DUP3 AND ISZERO ISZERO JUMPDEST DUP1 ISZERO PUSH3 0x1C2 JUMPI POP PUSH1 0x8 SLOAD PUSH1 0x1 PUSH1 0xA0 SHL SWAP1 DIV PUSH1 0xFF AND JUMPDEST DUP1 ISZERO PUSH3 0x1E8 JUMPI POP PUSH1 0x1 PUSH1 0x1 PUSH1 0xA0 SHL SUB DUP4 AND PUSH1 0x0 SWAP1 DUP2 MSTORE PUSH1 0x9 PUSH1 0x20 MSTORE PUSH1 0x40 SWAP1 KECCAK256 SLOAD PUSH1 0xFF AND ISZERO JUMPDEST DUP1 ISZERO PUSH3 0x20E JUMPI POP PUSH1 0x1 PUSH1 0x1 PUSH1 0xA0 SHL SUB DUP3 AND PUSH1 0x0 SWAP1 DUP2 MSTORE PUSH1 0x9 PUSH1 0x20 MSTORE PUSH1 0x40 SWAP1 KECCAK256 SLOAD PUSH1 0xFF AND ISZERO JUMPDEST ISZERO PUSH3 0x374 JUMPI PUSH1 0x0 PUSH1 0x64 PUSH3 0x225 PUSH1 0x5 DUP5 PUSH3 0x77B JUMP JUMPDEST PUSH3 0x231 SWAP2 SWAP1 PUSH3 0x79B JUMP JUMPDEST SWAP1 POP PUSH1 0x0 PUSH3 0x241 DUP3 DUP5 PUSH3 0x7BE JUMP JUMPDEST SWAP1 POP DUP2 ISZERO PUSH3 0x360 JUMPI PUSH1 0x0 PUSH1 0x64 PUSH3 0x25B PUSH1 0x1 DUP7 PUSH3 0x77B JUMP JUMPDEST PUSH3 0x267 SWAP2 SWAP1 PUSH3 0x79B JUMP JUMPDEST SWAP1 POP PUSH1 0x0 PUSH3 0x277 DUP3 DUP6 PUSH3 0x7BE JUMP JUMPDEST PUSH1 0x7 SLOAD SWAP1 SWAP2 POP PUSH1 0x1 PUSH1 0x1 PUSH1 0xA0 SHL SUB AND ISZERO DUP1 ISZERO SWAP1 PUSH3 0x295 JUMPI POP PUSH1 0x0 DUP3 GT JUMPDEST ISZERO PUSH3 0x31B JUMPI PUSH1 0x7 SLOAD PUSH3 0x2B5 SWAP1 DUP9 SWAP1 PUSH1 0x1 PUSH1 0x1 PUSH1 0xA0 SHL SUB AND DUP5 PUSH3 0x386 JUMP JUMPDEST PUSH1 0x7 SLOAD PUSH1 0x40 MLOAD PUSH4 0x6029BF9F PUSH1 0xE0 SHL DUP2 MSTORE PUSH1 0x4 DUP2 ADD DUP5 SWAP1 MSTORE PUSH1 0x1 PUSH1 0x1 PUSH1 0xA0 SHL SUB SWAP1 SWAP2 AND SWAP1 PUSH4 0x6029BF9F SWAP1 PUSH1 0x24 ADD PUSH1 0x0 PUSH1 0x40 MLOAD DUP1 DUP4 SUB DUP2 PUSH1 0x0 DUP8 DUP1 EXTCODESIZE ISZERO DUP1 ISZERO PUSH3 0x2FC JUMPI PUSH1 0x0 DUP1 REVERT JUMPDEST POP GAS CALL ISZERO DUP1 ISZERO PUSH3 0x311 JUMPI RETURNDATASIZE PUSH1 0x0 DUP1 RETURNDATACOPY RETURNDATASIZE PUSH1 0x0 REVERT JUMPDEST POP POP POP POP PUSH3 0x32A JUMP JUMPDEST PUSH3 0x327 DUP3 DUP3 PUSH3 0x7D4 JUMP JUMPDEST SWAP1 POP JUMPDEST DUP1 ISZERO PUSH3 0x34B JUMPI PUSH1 0x8 SLOAD PUSH3 0x34B SWAP1 DUP9 SWAP1 PUSH1 0x1 PUSH1 0x1 PUSH1 0xA0 SHL SUB AND DUP4 PUSH3 0x386 JUMP JUMPDEST PUSH3 0x358 DUP8 DUP8 DUP6 PUSH3 0x386 JUMP JUMPDEST POP POP PUSH3 0x36D JUMP JUMPDEST PUSH3 0x36D DUP6 DUP6 DUP6 PUSH3 0x386 JUMP JUMPDEST POP POP POP POP POP JUMP JUMPDEST PUSH3 0x381 DUP4 DUP4 DUP4 PUSH3 0x386 JUMP JUMPDEST POP POP POP JUMP JUMPDEST PUSH1 0x1 PUSH1 0x1 PUSH1 0xA0 SHL SUB DUP4 AND PUSH3 0x3B5 JUMPI DUP1 PUSH1 0x2 PUSH1 0x0 DUP3 DUP3 SLOAD PUSH3 0x3A9 SWAP2 SWAP1 PUSH3 0x7D4 JUMP JUMPDEST SWAP1 SWAP2 SSTORE POP PUSH3 0x429 SWAP1 POP JUMP JUMPDEST PUSH1 0x1 PUSH1 0x1 PUSH1 0xA0 SHL SUB DUP4 AND PUSH1 0x0 SWAP1 DUP2 MSTORE PUSH1 0x20 DUP2 SWAP1 MSTORE PUSH1 0x40 SWAP1 KECCAK256 SLOAD DUP2 DUP2 LT ISZERO PUSH3 0x40A JUMPI PUSH1 0x40 MLOAD PUSH4 0x391434E3 PUSH1 0xE2 SHL DUP2 MSTORE PUSH1 0x1 PUSH1 0x1 PUSH1 0xA0 SHL SUB DUP6 AND PUSH1 0x4 DUP3 ADD MSTORE PUSH1 0x24 DUP2 ADD DUP3 SWAP1 MSTORE PUSH1 0x44 DUP2 ADD DUP4 SWAP1 MSTORE PUSH1 0x64 ADD PUSH3 0x8B JUMP JUMPDEST PUSH1 0x1 PUSH1 0x1 PUSH1 0xA0 SHL SUB DUP5 AND PUSH1 0x0 SWAP1 DUP2 MSTORE PUSH1 0x20 DUP2 SWAP1 MSTORE PUSH1 0x40 SWAP1 KECCAK256 SWAP1 DUP3 SWAP1 SUB SWAP1 SSTORE JUMPDEST PUSH1 0x1 PUSH1 0x1 PUSH1 0xA0 SHL SUB DUP3 AND PUSH3 0x447 JUMPI PUSH1 0x2 DUP1 SLOAD DUP3 SWAP1 SUB SWAP1 SSTORE PUSH3 0x466 JUMP JUMPDEST PUSH1 0x1 PUSH1 0x1 PUSH1 0xA0 SHL SUB DUP3 AND PUSH1 0x0 SWAP1 DUP2 MSTORE PUSH1 0x20 DUP2 SWAP1 MSTORE PUSH1 0x40 SWAP1 KECCAK256 DUP1 SLOAD DUP3 ADD SWAP1 SSTORE JUMPDEST DUP2 PUSH1 0x1 PUSH1 0x1 PUSH1 0xA0 SHL SUB AND DUP4 PUSH1 0x1 PUSH1 0x1 PUSH1 0xA0 SHL SUB AND PUSH32 0xDDF252AD1BE2C89B69C2B068FC378DAA952BA7F163C4A11628F55A4DF523B3EF DUP4 PUSH1 0x40 MLOAD PUSH3 0x4AC SWAP2 DUP2 MSTORE PUSH1 0x20 ADD SWAP1 JUMP JUMPDEST PUSH1 0x40 MLOAD DUP1 SWAP2 SUB SWAP1 LOG3 POP POP POP JUMP JUMPDEST PUSH4 0x4E487B71 PUSH1 0xE0 SHL PUSH1 0x0 MSTORE PUSH1 0x41 PUSH1 0x4 MSTORE PUSH1 0x24 PUSH1 0x0 REVERT JUMPDEST PUSH1 0x0 DUP3 PUSH1 0x1F DUP4 ADD SLT PUSH3 0x4E1 JUMPI PUSH1 0x0 DUP1 REVERT JUMPDEST DUP2 MLOAD PUSH1 0x1 PUSH1 0x1 PUSH1 0x40 SHL SUB DUP1 DUP3 GT ISZERO PUSH3 0x4FE JUMPI PUSH3 0x4FE PUSH3 0x4B9 JUMP JUMPDEST PUSH1 0x40 MLOAD PUSH1 0x1F DUP4 ADD PUSH1 0x1F NOT SWAP1 DUP2 AND PUSH1 0x3F ADD AND DUP2 ADD SWAP1 DUP3 DUP3 GT DUP2 DUP4 LT OR ISZERO PUSH3 0x529 JUMPI PUSH3 0x529 PUSH3 0x4B9 JUMP JUMPDEST DUP2 PUSH1 0x40 MSTORE DUP4 DUP2 MSTORE PUSH1 0x20 SWAP3 POP DUP7 DUP4 DUP6 DUP9 ADD ADD GT ISZERO PUSH3 0x546 JUMPI PUSH1 0x0 DUP1 REVERT JUMPDEST PUSH1 0x0 SWAP2 POP JUMPDEST DUP4 DUP3 LT ISZERO PUSH3 0x56A JUMPI DUP6 DUP3 ADD DUP4 ADD MLOAD DUP2 DUP4 ADD DUP5 ADD MSTORE SWAP1 DUP3 ADD SWAP1 PUSH3 0x54B JUMP JUMPDEST PUSH1 0x0 SWAP4 DUP2 ADD SWAP1 SWAP3 ADD SWAP3 SWAP1 SWAP3 MSTORE SWAP5 SWAP4 POP POP POP POP JUMP JUMPDEST PUSH1 0x0 DUP1 PUSH1 0x0 PUSH1 0x60 DUP5 DUP7 SUB SLT ISZERO PUSH3 0x594 JUMPI PUSH1 0x0 DUP1 REVERT JUMPDEST DUP4 MLOAD PUSH1 0x1 PUSH1 0x1 PUSH1 0x40 SHL SUB DUP1 DUP3 GT ISZERO PUSH3 0x5AC JUMPI PUSH1 0x0 DUP1 REVERT JUMPDEST PUSH3 0x5BA DUP8 DUP4 DUP9 ADD PUSH3 0x4CF JUMP JUMPDEST SWAP5 POP PUSH1 0x20 DUP7 ADD MLOAD SWAP2 POP DUP1 DUP3 GT ISZERO PUSH3 0x5D1 JUMPI PUSH1 0x0 DUP1 REVERT JUMPDEST POP PUSH3 0x5E0 DUP7 DUP3 DUP8 ADD PUSH3 0x4CF JUMP JUMPDEST PUSH1 0x40 DUP7 ADD MLOAD SWAP1 SWAP4 POP SWAP1 POP PUSH1 0x1 PUSH1 0x1 PUSH1 0xA0 SHL SUB DUP2 AND DUP2 EQ PUSH3 0x600 JUMPI PUSH1 0x0 DUP1 REVERT JUMPDEST DUP1 SWAP2 POP POP SWAP3 POP SWAP3 POP SWAP3 JUMP JUMPDEST PUSH1 0x1 DUP2 DUP2 SHR SWAP1 DUP3 AND DUP1 PUSH3 0x620 JUMPI PUSH1 0x7F DUP3 AND SWAP2 POP JUMPDEST PUSH1 0x20 DUP3 LT DUP2 SUB PUSH3 0x641 JUMPI PUSH4 0x4E487B71 PUSH1 0xE0 SHL PUSH1 0x0 MSTORE PUSH1 0x22 PUSH1 0x4 MSTORE PUSH1 0x24 PUSH1 0x0 REVERT JUMPDEST POP SWAP2 SWAP1 POP JUMP JUMPDEST PUSH1 0x1F DUP3 GT ISZERO PUSH3 0x381 JUMPI PUSH1 0x0 DUP2 DUP2 MSTORE PUSH1 0x20 DUP2 KECCAK256 PUSH1 0x1F DUP6 ADD PUSH1 0x5 SHR DUP2 ADD PUSH1 0x20 DUP7 LT ISZERO PUSH3 0x670 JUMPI POP DUP1 JUMPDEST PUSH1 0x1F DUP6 ADD PUSH1 0x5 SHR DUP3 ADD SWAP2 POP JUMPDEST DUP2 DUP2 LT ISZERO PUSH3 0x691 JUMPI DUP3 DUP2 SSTORE PUSH1 0x1 ADD PUSH3 0x67C JUMP JUMPDEST POP POP POP POP POP POP JUMP JUMPDEST DUP2 MLOAD PUSH1 0x1 PUSH1 0x1 PUSH1 0x40 SHL SUB DUP2 GT ISZERO PUSH3 0x6B5 JUMPI PUSH3 0x6B5 PUSH3 0x4B9 JUMP JUMPDEST PUSH3 0x6CD DUP2 PUSH3 0x6C6 DUP5 SLOAD PUSH3 0x60B JUMP JUMPDEST DUP5 PUSH3 0x647 JUMP JUMPDEST PUSH1 0x20 DUP1 PUSH1 0x1F DUP4 GT PUSH1 0x1 DUP2 EQ PUSH3 0x705 JUMPI PUSH1 0x0 DUP5 ISZERO PUSH3 0x6EC JUMPI POP DUP6 DUP4 ADD MLOAD JUMPDEST PUSH1 0x0 NOT PUSH1 0x3 DUP7 SWAP1 SHL SHR NOT AND PUSH1 0x1 DUP6 SWAP1 SHL OR DUP6 SSTORE PUSH3 0x691 JUMP JUMPDEST PUSH1 0x0 DUP6 DUP2 MSTORE PUSH1 0x20 DUP2 KECCAK256 PUSH1 0x1F NOT DUP7 AND SWAP2 JUMPDEST DUP3 DUP2 LT ISZERO PUSH3 0x736 JUMPI DUP9 DUP7 ADD MLOAD DUP3 SSTORE SWAP5 DUP5 ADD SWAP5 PUSH1 0x1 SWAP1 SWAP2 ADD SWAP1 DUP5 ADD PUSH3 0x715 JUMP JUMPDEST POP DUP6 DUP3 LT ISZERO PUSH3 0x755 JUMPI DUP8 DUP6 ADD MLOAD PUSH1 0x0 NOT PUSH1 0x3 DUP9 SWAP1 SHL PUSH1 0xF8 AND SHR NOT AND DUP2 SSTORE JUMPDEST POP POP POP POP POP PUSH1 0x1 SWAP1 DUP2 SHL ADD SWAP1 SSTORE POP JUMP JUMPDEST PUSH4 0x4E487B71 PUSH1 0xE0 SHL PUSH1 0x0 MSTORE PUSH1 0x11 PUSH1 0x4 MSTORE PUSH1 0x24 PUSH1 0x0 REVERT JUMPDEST DUP1 DUP3 MUL DUP2 ISZERO DUP3 DUP3 DIV DUP5 EQ OR PUSH3 0x795 JUMPI PUSH3 0x795 PUSH3 0x765 JUMP JUMPDEST SWAP3 SWAP2 POP POP JUMP JUMPDEST PUSH1 0x0 DUP3 PUSH3 0x7B9 JUMPI PUSH4 0x4E487B71 PUSH1 0xE0 SHL PUSH1 0x0 MSTORE PUSH1 0x12 PUSH1 0x4 MSTORE PUSH1 0x24 PUSH1 0x0 REVERT JUMPDEST POP DIV SWAP1 JUMP JUMPDEST DUP2 DUP2 SUB DUP2 DUP2 GT ISZERO PUSH3 0x795 JUMPI PUSH3 0x795 PUSH3 0x765 JUMP JUMPDEST DUP1 DUP3 ADD DUP1 DUP3 GT ISZERO PUSH3 0x795 JUMPI PUSH3 0x795 PUSH3 0x765 JUMP JUMPDEST PUSH2 0xE57 DUP1 PUSH3 0x7FA PUSH1 0x0 CODECOPY PUSH1 0x0 RETURN INVALID PUSH1 0x80 PUSH1 0x40 MSTORE CALLVALUE DUP1 ISZERO PUSH2 0x10 JUMPI PUSH1 0x0 DUP1 REVERT JUMPDEST POP PUSH1 0x4 CALLDATASIZE LT PUSH2 0x157 JUMPI PUSH1 0x0 CALLDATALOAD PUSH1 0xE0 SHR DUP1 PUSH4 0x751FD179 GT PUSH2 0xC3 JUMPI DUP1 PUSH4 0xA901DD92 GT PUSH2 0x7C JUMPI DUP1 PUSH4 0xA901DD92 EQ PUSH2 0x2D0 JUMPI DUP1 PUSH4 0xA9059CBB EQ PUSH2 0x2E3 JUMPI DUP1 PUSH4 0xD1F5C33B EQ PUSH2 0x2F6 JUMPI DUP1 PUSH4 0xDD62ED3E EQ PUSH2 0x309 JUMPI DUP1 PUSH4 0xF0F44260 EQ PUSH2 0x342 JUMPI DUP1 PUSH4 0xF2FDE38B EQ PUSH2 0x355 JUMPI PUSH1 0x0 DUP1 REVERT JUMPDEST DUP1 PUSH4 0x751FD179 EQ PUSH2 0x275 JUMPI DUP1 PUSH4 0x8CE1A483 EQ PUSH2 0x288 JUMPI DUP1 PUSH4 0x8DA5CB5B EQ PUSH2 0x290 JUMPI DUP1 PUSH4 0x902D55A5 EQ PUSH2 0x2A1 JUMPI DUP1 PUSH4 0x95D89B41 EQ PUSH2 0x2B4 JUMPI DUP1 PUSH4 0xA64E4F8A EQ PUSH2 0x2BC JUMPI PUSH1 0x0 DUP1 REVERT JUMPDEST DUP1 PUSH4 0x398DAA85 GT PUSH2 0x115 JUMPI DUP1 PUSH4 0x398DAA85 EQ PUSH2 0x1D9 JUMPI DUP1 PUSH4 0x3F2A5540 EQ PUSH2 0x1FC JUMPI DUP1 PUSH4 0x4105E3EF EQ PUSH2 0x227 JUMPI DUP1 PUSH4 0x61D027B3 EQ PUSH2 0x22F JUMPI DUP1 PUSH4 0x70A08231 EQ PUSH2 0x242 JUMPI DUP1 PUSH4 0x715018A6 EQ PUSH2 0x26B JUMPI PUSH1 0x0 DUP1 REVERT JUMPDEST DUP1 PUSH3 0xB46F8 EQ PUSH2 0x15C JUMPI DUP1 PUSH4 0x6FDDE03 EQ PUSH2 0x177 JUMPI DUP1 PUSH4 0x95EA7B3 EQ PUSH2 0x18C JUMPI DUP1 PUSH4 0x18160DDD EQ PUSH2 0x1AF JUMPI DUP1 PUSH4 0x23B872DD EQ PUSH2 0x1B7 JUMPI DUP1 PUSH4 0x313CE567 EQ PUSH2 0x1CA JUMPI JUMPDEST PUSH1 0x0 DUP1 REVERT JUMPDEST PUSH2 0x164 PUSH1 0x5 DUP2 JUMP JUMPDEST PUSH1 0x40 MLOAD SWAP1 DUP2 MSTORE PUSH1 0x20 ADD JUMPDEST PUSH1 0x40 MLOAD DUP1 SWAP2 SUB SWAP1 RETURN JUMPDEST PUSH2 0x17F PUSH2 0x368 JUMP JUMPDEST PUSH1 0x40 MLOAD PUSH2 0x16E SWAP2 SWAP1 PUSH2 0xBF8 JUMP JUMPDEST PUSH2 0x19F PUSH2 0x19A CALLDATASIZE PUSH1 0x4 PUSH2 0xC62 JUMP JUMPDEST PUSH2 0x3FA JUMP JUMPDEST PUSH1 0x40 MLOAD SWAP1 ISZERO ISZERO DUP2 MSTORE PUSH1 0x20 ADD PUSH2 0x16E JUMP JUMPDEST PUSH1 0x2 SLOAD PUSH2 0x164 JUMP JUMPDEST PUSH2 0x19F PUSH2 0x1C5 CALLDATASIZE PUSH1 0x4 PUSH2 0xC8C JUMP JUMPDEST PUSH2 0x414 JUMP JUMPDEST PUSH1 0x40 MLOAD PUSH1 0x12 DUP2 MSTORE PUSH1 0x20 ADD PUSH2 0x16E JUMP JUMPDEST PUSH2 0x19F PUSH2 0x1E7 CALLDATASIZE PUSH1 0x4 PUSH2 0xCC8 JUMP JUMPDEST PUSH1 0x9 PUSH1 0x20 MSTORE PUSH1 0x0 SWAP1 DUP2 MSTORE PUSH1 0x40 SWAP1 KECCAK256 SLOAD PUSH1 0xFF AND DUP2 JUMP JUMPDEST PUSH1 0x7 SLOAD PUSH2 0x20F SWAP1 PUSH1 0x1 PUSH1 0x1 PUSH1 0xA0 SHL SUB AND DUP2 JUMP JUMPDEST PUSH1 0x40 MLOAD PUSH1 0x1 PUSH1 0x1 PUSH1 0xA0 SHL SUB SWAP1 SWAP2 AND DUP2 MSTORE PUSH1 0x20 ADD PUSH2 0x16E JUMP JUMPDEST PUSH2 0x164 PUSH1 0x1 DUP2 JUMP JUMPDEST PUSH1 0x8 SLOAD PUSH2 0x20F SWAP1 PUSH1 0x1 PUSH1 0x1 PUSH1 0xA0 SHL SUB AND DUP2 JUMP JUMPDEST PUSH2 0x164 PUSH2 0x250 CALLDATASIZE PUSH1 0x4 PUSH2 0xCC8 JUMP JUMPDEST PUSH1 0x1 PUSH1 0x1 PUSH1 0xA0 SHL SUB AND PUSH1 0x0 SWAP1 DUP2 MSTORE PUSH1 0x20 DUP2 SWAP1 MSTORE PUSH1 0x40 SWAP1 KECCAK256 SLOAD SWAP1 JUMP JUMPDEST PUSH2 0x273 PUSH2 0x438 JUMP JUMPDEST STOP JUMPDEST PUSH2 0x273 PUSH2 0x283 CALLDATASIZE PUSH1 0x4 PUSH2 0xCFA JUMP JUMPDEST PUSH2 0x44C JUMP JUMPDEST PUSH2 0x164 PUSH1 0x4 DUP2 JUMP JUMPDEST PUSH1 0x5 SLOAD PUSH1 0x1 PUSH1 0x1 PUSH1 0xA0 SHL SUB AND PUSH2 0x20F JUMP JUMPDEST PUSH2 0x164 PUSH12 0x19D971E4FE8401E74000000 DUP2 JUMP JUMPDEST PUSH2 0x17F PUSH2 0x4B3 JUMP JUMPDEST PUSH1 0x8 SLOAD PUSH2 0x19F SWAP1 PUSH1 0x1 PUSH1 0xA0 SHL SWAP1 DIV PUSH1 0xFF AND DUP2 JUMP JUMPDEST PUSH2 0x273 PUSH2 0x2DE CALLDATASIZE PUSH1 0x4 PUSH2 0xD2D JUMP JUMPDEST PUSH2 0x4C2 JUMP JUMPDEST PUSH2 0x19F PUSH2 0x2F1 CALLDATASIZE PUSH1 0x4 PUSH2 0xC62 JUMP JUMPDEST PUSH2 0x522 JUMP JUMPDEST PUSH2 0x273 PUSH2 0x304 CALLDATASIZE PUSH1 0x4 PUSH2 0xCC8 JUMP JUMPDEST PUSH2 0x530 JUMP JUMPDEST PUSH2 0x164 PUSH2 0x317 CALLDATASIZE PUSH1 0x4 PUSH2 0xD48 JUMP JUMPDEST PUSH1 0x1 PUSH1 0x1 PUSH1 0xA0 SHL SUB SWAP2 DUP3 AND PUSH1 0x0 SWAP1 DUP2 MSTORE PUSH1 0x1 PUSH1 0x20 SWAP1 DUP2 MSTORE PUSH1 0x40 DUP1 DUP4 KECCAK256 SWAP4 SWAP1 SWAP5 AND DUP3 MSTORE SWAP2 SWAP1 SWAP2 MSTORE KECCAK256 SLOAD SWAP1 JUMP JUMPDEST PUSH2 0x273 PUSH2 0x350 CALLDATASIZE PUSH1 0x4 PUSH2 0xCC8 JUMP JUMPDEST PUSH2 0x5E5 JUMP JUMPDEST PUSH2 0x273 PUSH2 0x363 CALLDATASIZE PUSH1 0x4 PUSH2 0xCC8 JUMP JUMPDEST PUSH2 0x67F JUMP JUMPDEST PUSH1 0x60 PUSH1 0x3 DUP1 SLOAD PUSH2 0x377 SWAP1 PUSH2 0xD72 JUMP JUMPDEST DUP1 PUSH1 0x1F ADD PUSH1 0x20 DUP1 SWAP2 DIV MUL PUSH1 0x20 ADD PUSH1 0x40 MLOAD SWAP1 DUP2 ADD PUSH1 0x40 MSTORE DUP1 SWAP3 SWAP2 SWAP1 DUP2 DUP2 MSTORE PUSH1 0x20 ADD DUP3 DUP1 SLOAD PUSH2 0x3A3 SWAP1 PUSH2 0xD72 JUMP JUMPDEST DUP1 ISZERO PUSH2 0x3F0 JUMPI DUP1 PUSH1 0x1F LT PUSH2 0x3C5 JUMPI PUSH2 0x100 DUP1 DUP4 SLOAD DIV MUL DUP4 MSTORE SWAP2 PUSH1 0x20 ADD SWAP2 PUSH2 0x3F0 JUMP JUMPDEST DUP3 ADD SWAP2 SWAP1 PUSH1 0x0 MSTORE PUSH1 0x20 PUSH1 0x0 KECCAK256 SWAP1 JUMPDEST DUP2 SLOAD DUP2 MSTORE SWAP1 PUSH1 0x1 ADD SWAP1 PUSH1 0x20 ADD DUP1 DUP4 GT PUSH2 0x3D3 JUMPI DUP3 SWAP1 SUB PUSH1 0x1F AND DUP3 ADD SWAP2 JUMPDEST POP POP POP POP POP SWAP1 POP SWAP1 JUMP JUMPDEST PUSH1 0x0 CALLER PUSH2 0x408 DUP2 DUP6 DUP6 PUSH2 0x6BD JUMP JUMPDEST PUSH1 0x1 SWAP2 POP POP JUMPDEST SWAP3 SWAP2 POP POP JUMP JUMPDEST PUSH1 0x0 CALLER PUSH2 0x422 DUP6 DUP3 DUP6 PUSH2 0x6CF JUMP JUMPDEST PUSH2 0x42D DUP6 DUP6 DUP6 PUSH2 0x74E JUMP JUMPDEST POP PUSH1 0x1 SWAP5 SWAP4 POP POP POP POP JUMP JUMPDEST PUSH2 0x440 PUSH2 0x7AD JUMP JUMPDEST PUSH2 0x44A PUSH1 0x0 PUSH2 0x7DA JUMP JUMPDEST JUMP JUMPDEST PUSH2 0x454 PUSH2 0x7AD JUMP JUMPDEST PUSH1 0x1 PUSH1 0x1 PUSH1 0xA0 SHL SUB DUP3 AND PUSH1 0x0 DUP2 DUP2 MSTORE PUSH1 0x9 PUSH1 0x20 SWAP1 DUP2 MSTORE PUSH1 0x40 SWAP2 DUP3 SWAP1 KECCAK256 DUP1 SLOAD PUSH1 0xFF NOT AND DUP6 ISZERO ISZERO SWAP1 DUP2 OR SWAP1 SWAP2 SSTORE SWAP2 MLOAD SWAP2 DUP3 MSTORE PUSH32 0x210F2A4A589E25D95B24CBDB060D26AE79BBE123A564D0F973503D48BADD00CA SWAP2 ADD PUSH1 0x40 MLOAD DUP1 SWAP2 SUB SWAP1 LOG2 POP POP JUMP JUMPDEST PUSH1 0x60 PUSH1 0x4 DUP1 SLOAD PUSH2 0x377 SWAP1 PUSH2 0xD72 JUMP JUMPDEST PUSH2 0x4CA PUSH2 0x7AD JUMP JUMPDEST PUSH1 0x8 DUP1 SLOAD DUP3 ISZERO ISZERO PUSH1 0x1 PUSH1 0xA0 SHL MUL PUSH1 0xFF PUSH1 0xA0 SHL NOT SWAP1 SWAP2 AND OR SWAP1 SSTORE PUSH1 0x40 MLOAD PUSH32 0xA0ECF0A5FBB822896523E7519379813A2D69D92A1D7E408139C60D90041F23AE SWAP1 PUSH2 0x517 SWAP1 DUP4 ISZERO ISZERO DUP2 MSTORE PUSH1 0x20 ADD SWAP1 JUMP JUMPDEST PUSH1 0x40 MLOAD DUP1 SWAP2 SUB SWAP1 LOG1 POP JUMP JUMPDEST PUSH1 0x0 CALLER PUSH2 0x408 DUP2 DUP6 DUP6 PUSH2 0x74E JUMP JUMPDEST PUSH2 0x538 PUSH2 0x7AD JUMP JUMPDEST PUSH1 0x1 PUSH1 0x1 PUSH1 0xA0 SHL SUB DUP2 AND PUSH2 0x585 JUMPI PUSH1 0x40 MLOAD PUSH3 0x461BCD PUSH1 0xE5 SHL DUP2 MSTORE PUSH1 0x20 PUSH1 0x4 DUP3 ADD MSTORE PUSH1 0xF PUSH1 0x24 DUP3 ADD MSTORE PUSH15 0x496E76616C69642061646472657373 PUSH1 0x88 SHL PUSH1 0x44 DUP3 ADD MSTORE PUSH1 0x64 ADD JUMPDEST PUSH1 0x40 MLOAD DUP1 SWAP2 SUB SWAP1 REVERT JUMPDEST PUSH1 0x7 DUP1 SLOAD PUSH1 0x1 PUSH1 0x1 PUSH1 0xA0 SHL SUB NOT AND PUSH1 0x1 PUSH1 0x1 PUSH1 0xA0 SHL SUB DUP4 AND SWAP1 DUP2 OR SWAP1 SWAP2 SSTORE PUSH1 0x0 DUP2 DUP2 MSTORE PUSH1 0x9 PUSH1 0x20 MSTORE PUSH1 0x40 DUP1 DUP3 KECCAK256 DUP1 SLOAD PUSH1 0xFF NOT AND PUSH1 0x1 OR SWAP1 SSTORE MLOAD PUSH32 0x950A88E6770F863D57A76F0536E93CC7C318C1188C4C189AA9D7A98A6E62F864 SWAP2 SWAP1 LOG2 POP JUMP JUMPDEST PUSH2 0x5ED PUSH2 0x7AD JUMP JUMPDEST PUSH1 0x1 PUSH1 0x1 PUSH1 0xA0 SHL SUB DUP2 AND PUSH2 0x635 JUMPI PUSH1 0x40 MLOAD PUSH3 0x461BCD PUSH1 0xE5 SHL DUP2 MSTORE PUSH1 0x20 PUSH1 0x4 DUP3 ADD MSTORE PUSH1 0xF PUSH1 0x24 DUP3 ADD MSTORE PUSH15 0x496E76616C69642061646472657373 PUSH1 0x88 SHL PUSH1 0x44 DUP3 ADD MSTORE PUSH1 0x64 ADD PUSH2 0x57C JUMP JUMPDEST PUSH1 0x8 DUP1 SLOAD PUSH1 0x1 PUSH1 0x1 PUSH1 0xA0 SHL SUB NOT AND PUSH1 0x1 PUSH1 0x1 PUSH1 0xA0 SHL SUB DUP4 AND SWAP1 DUP2 OR SWAP1 SWAP2 SSTORE PUSH1 0x40 MLOAD PUSH32 0x3C864541EF71378C6229510ED90F376565EE42D9C5E0904A984A9E863E6DB44F SWAP1 PUSH1 0x0 SWAP1 LOG2 POP JUMP JUMPDEST PUSH2 0x687 PUSH2 0x7AD JUMP JUMPDEST PUSH1 0x1 PUSH1 0x1 PUSH1 0xA0 SHL SUB DUP2 AND PUSH2 0x6B1 JUMPI PUSH1 0x40 MLOAD PUSH4 0x1E4FBDF7 PUSH1 0xE0 SHL DUP2 MSTORE PUSH1 0x0 PUSH1 0x4 DUP3 ADD MSTORE PUSH1 0x24 ADD PUSH2 0x57C JUMP JUMPDEST PUSH2 0x6BA DUP2 PUSH2 0x7DA JUMP JUMPDEST POP JUMP JUMPDEST PUSH2 0x6CA DUP4 DUP4 DUP4 PUSH1 0x1 PUSH2 0x82C JUMP JUMPDEST POP POP POP JUMP JUMPDEST PUSH1 0x1 PUSH1 0x1 PUSH1 0xA0 SHL SUB DUP4 DUP2 AND PUSH1 0x0 SWAP1 DUP2 MSTORE PUSH1 0x1 PUSH1 0x20 SWAP1 DUP2 MSTORE PUSH1 0x40 DUP1 DUP4 KECCAK256 SWAP4 DUP7 AND DUP4 MSTORE SWAP3 SWAP1 MSTORE KECCAK256 SLOAD PUSH1 0x0 NOT DUP2 LT ISZERO PUSH2 0x748 JUMPI DUP2 DUP2 LT ISZERO PUSH2 0x739 JUMPI PUSH1 0x40 MLOAD PUSH4 0x7DC7A0D9 PUSH1 0xE1 SHL DUP2 MSTORE PUSH1 0x1 PUSH1 0x1 PUSH1 0xA0 SHL SUB DUP5 AND PUSH1 0x4 DUP3 ADD MSTORE PUSH1 0x24 DUP2 ADD DUP3 SWAP1 MSTORE PUSH1 0x44 DUP2 ADD DUP4 SWAP1 MSTORE PUSH1 0x64 ADD PUSH2 0x57C JUMP JUMPDEST PUSH2 0x748 DUP5 DUP5 DUP5 DUP5 SUB PUSH1 0x0 PUSH2 0x82C JUMP JUMPDEST POP POP POP POP JUMP JUMPDEST PUSH1 0x1 PUSH1 0x1 PUSH1 0xA0 SHL SUB DUP4 AND PUSH2 0x778 JUMPI PUSH1 0x40 MLOAD PUSH4 0x4B637E8F PUSH1 0xE1 SHL DUP2 MSTORE PUSH1 0x0 PUSH1 0x4 DUP3 ADD MSTORE PUSH1 0x24 ADD PUSH2 0x57C JUMP JUMPDEST PUSH1 0x1 PUSH1 0x1 PUSH1 0xA0 SHL SUB DUP3 AND PUSH2 0x7A2 JUMPI PUSH1 0x40 MLOAD PUSH4 0xEC442F05 PUSH1 0xE0 SHL DUP2 MSTORE PUSH1 0x0 PUSH1 0x4 DUP3 ADD MSTORE PUSH1 0x24 ADD PUSH2 0x57C JUMP JUMPDEST PUSH2 0x6CA DUP4 DUP4 DUP4 PUSH2 0x901 JUMP JUMPDEST PUSH1 0x5 SLOAD PUSH1 0x1 PUSH1 0x1 PUSH1 0xA0 SHL SUB AND CALLER EQ PUSH2 0x44A JUMPI PUSH1 0x40 MLOAD PUSH4 0x118CDAA7 PUSH1 0xE0 SHL DUP2 MSTORE CALLER PUSH1 0x4 DUP3 ADD MSTORE PUSH1 0x24 ADD PUSH2 0x57C JUMP JUMPDEST PUSH1 0x5 DUP1 SLOAD PUSH1 0x1 PUSH1 0x1 PUSH1 0xA0 SHL SUB DUP4 DUP2 AND PUSH1 0x1 PUSH1 0x1 PUSH1 0xA0 SHL SUB NOT DUP4 AND DUP2 OR SWAP1 SWAP4 SSTORE PUSH1 0x40 MLOAD SWAP2 AND SWAP2 SWAP1 DUP3 SWAP1 PUSH32 0x8BE0079C531659141344CD1FD0A4F28419497F9722A3DAAFE3B4186F6B6457E0 SWAP1 PUSH1 0x0 SWAP1 LOG3 POP POP JUMP JUMPDEST PUSH1 0x1 PUSH1 0x1 PUSH1 0xA0 SHL SUB DUP5 AND PUSH2 0x856 JUMPI PUSH1 0x40 MLOAD PUSH4 0xE602DF05 PUSH1 0xE0 SHL DUP2 MSTORE PUSH1 0x0 PUSH1 0x4 DUP3 ADD MSTORE PUSH1 0x24 ADD PUSH2 0x57C JUMP JUMPDEST PUSH1 0x1 PUSH1 0x1 PUSH1 0xA0 SHL SUB DUP4 AND PUSH2 0x880 JUMPI PUSH1 0x40 MLOAD PUSH4 0x4A1406B1 PUSH1 0xE1 SHL DUP2 MSTORE PUSH1 0x0 PUSH1 0x4 DUP3 ADD MSTORE PUSH1 0x24 ADD PUSH2 0x57C JUMP JUMPDEST PUSH1 0x1 PUSH1 0x1 PUSH1 0xA0 SHL SUB DUP1 DUP6 AND PUSH1 0x0 SWAP1 DUP2 MSTORE PUSH1 0x1 PUSH1 0x20 SWAP1 DUP2 MSTORE PUSH1 0x40 DUP1 DUP4 KECCAK256 SWAP4 DUP8 AND DUP4 MSTORE SWAP3 SWAP1 MSTORE KECCAK256 DUP3 SWAP1 SSTORE DUP1 ISZERO PUSH2 0x748 JUMPI DUP3 PUSH1 0x1 PUSH1 0x1 PUSH1 0xA0 SHL SUB AND DUP5 PUSH1 0x1 PUSH1 0x1 PUSH1 0xA0 SHL SUB AND PUSH32 0x8C5BE1E5EBEC7D5BD14F71427D1E84F3DD0314C0F7B2291E5B200AC8C7C3B925 DUP5 PUSH1 0x40 MLOAD PUSH2 0x8F3 SWAP2 DUP2 MSTORE PUSH1 0x20 ADD SWAP1 JUMP JUMPDEST PUSH1 0x40 MLOAD DUP1 SWAP2 SUB SWAP1 LOG3 POP POP POP POP JUMP JUMPDEST PUSH1 0x1 PUSH1 0x1 PUSH1 0xA0 SHL SUB DUP4 AND ISZERO DUP1 ISZERO SWAP1 PUSH2 0x921 JUMPI POP PUSH1 0x1 PUSH1 0x1 PUSH1 0xA0 SHL SUB DUP3 AND ISZERO ISZERO JUMPDEST DUP1 ISZERO PUSH2 0x936 JUMPI POP PUSH1 0x8 SLOAD PUSH1 0x1 PUSH1 0xA0 SHL SWAP1 DIV PUSH1 0xFF AND JUMPDEST DUP1 ISZERO PUSH2 0x95B JUMPI POP PUSH1 0x1 PUSH1 0x1 PUSH1 0xA0 SHL SUB DUP4 AND PUSH1 0x0 SWAP1 DUP2 MSTORE PUSH1 0x9 PUSH1 0x20 MSTORE PUSH1 0x40 SWAP1 KECCAK256 SLOAD PUSH1 0xFF AND ISZERO JUMPDEST DUP1 ISZERO PUSH2 0x980 JUMPI POP PUSH1 0x1 PUSH1 0x1 PUSH1 0xA0 SHL SUB DUP3 AND PUSH1 0x0 SWAP1 DUP2 MSTORE PUSH1 0x9 PUSH1 0x20 MSTORE PUSH1 0x40 SWAP1 KECCAK256 SLOAD PUSH1 0xFF AND ISZERO JUMPDEST ISZERO PUSH2 0xAC7 JUMPI PUSH1 0x0 PUSH1 0x64 PUSH2 0x994 PUSH1 0x5 DUP5 PUSH2 0xDC2 JUMP JUMPDEST PUSH2 0x99E SWAP2 SWAP1 PUSH2 0xDD9 JUMP JUMPDEST SWAP1 POP PUSH1 0x0 PUSH2 0x9AC DUP3 DUP5 PUSH2 0xDFB JUMP JUMPDEST SWAP1 POP DUP2 ISZERO PUSH2 0xAB5 JUMPI PUSH1 0x0 PUSH1 0x64 PUSH2 0x9C3 PUSH1 0x1 DUP7 PUSH2 0xDC2 JUMP JUMPDEST PUSH2 0x9CD SWAP2 SWAP1 PUSH2 0xDD9 JUMP JUMPDEST SWAP1 POP PUSH1 0x0 PUSH2 0x9DB DUP3 DUP6 PUSH2 0xDFB JUMP JUMPDEST PUSH1 0x7 SLOAD SWAP1 SWAP2 POP PUSH1 0x1 PUSH1 0x1 PUSH1 0xA0 SHL SUB AND ISZERO DUP1 ISZERO SWAP1 PUSH2 0x9F8 JUMPI POP PUSH1 0x0 DUP3 GT JUMPDEST ISZERO PUSH2 0xA78 JUMPI PUSH1 0x7 SLOAD PUSH2 0xA15 SWAP1 DUP9 SWAP1 PUSH1 0x1 PUSH1 0x1 PUSH1 0xA0 SHL SUB AND DUP5 PUSH2 0xACE JUMP JUMPDEST PUSH1 0x7 SLOAD PUSH1 0x40 MLOAD PUSH4 0x6029BF9F PUSH1 0xE0 SHL DUP2 MSTORE PUSH1 0x4 DUP2 ADD DUP5 SWAP1 MSTORE PUSH1 0x1 PUSH1 0x1 PUSH1 0xA0 SHL SUB SWAP1 SWAP2 AND SWAP1 PUSH4 0x6029BF9F SWAP1 PUSH1 0x24 ADD PUSH1 0x0 PUSH1 0x40 MLOAD DUP1 DUP4 SUB DUP2 PUSH1 0x0 DUP8 DUP1 EXTCODESIZE ISZERO DUP1 ISZERO PUSH2 0xA5B JUMPI PUSH1 0x0 DUP1 REVERT JUMPDEST POP GAS CALL ISZERO DUP1 ISZERO PUSH2 0xA6F JUMPI RETURNDATASIZE PUSH1 0x0 DUP1 RETURNDATACOPY RETURNDATASIZE PUSH1 0x0 REVERT JUMPDEST POP POP POP POP PUSH2 0xA85 JUMP JUMPDEST PUSH2 0xA82 DUP3 DUP3 PUSH2 0xE0E JUMP JUMPDEST SWAP1 POP JUMPDEST DUP1 ISZERO PUSH2 0xAA3 JUMPI PUSH1 0x8 SLOAD PUSH2 0xAA3 SWAP1 DUP9 SWAP1 PUSH1 0x1 PUSH1 0x1 PUSH1 0xA0 SHL SUB AND DUP4 PUSH2 0xACE JUMP JUMPDEST PUSH2 0xAAE DUP8 DUP8 DUP6 PUSH2 0xACE JUMP JUMPDEST POP POP PUSH2 0xAC0 JUMP JUMPDEST PUSH2 0xAC0 DUP6 DUP6 DUP6 PUSH2 0xACE JUMP JUMPDEST POP POP POP POP POP JUMP JUMPDEST PUSH2 0x6CA DUP4 DUP4 DUP4 JUMPDEST PUSH1 0x1 PUSH1 0x1 PUSH1 0xA0 SHL SUB DUP4 AND PUSH2 0xAF9 JUMPI DUP1 PUSH1 0x2 PUSH1 0x0 DUP3 DUP3 SLOAD PUSH2 0xAEE SWAP2 SWAP1 PUSH2 0xE0E JUMP JUMPDEST SWAP1 SWAP2 SSTORE POP PUSH2 0xB6B SWAP1 POP JUMP JUMPDEST PUSH1 0x1 PUSH1 0x1 PUSH1 0xA0 SHL SUB DUP4 AND PUSH1 0x0 SWAP1 DUP2 MSTORE PUSH1 0x20 DUP2 SWAP1 MSTORE PUSH1 0x40 SWAP1 KECCAK256 SLOAD DUP2 DUP2 LT ISZERO PUSH2 0xB4C JUMPI PUSH1 0x40 MLOAD PUSH4 0x391434E3 PUSH1 0xE2 SHL DUP2 MSTORE PUSH1 0x1 PUSH1 0x1 PUSH1 0xA0 SHL SUB DUP6 AND PUSH1 0x4 DUP3 ADD MSTORE PUSH1 0x24 DUP2 ADD DUP3 SWAP1 MSTORE PUSH1 0x44 DUP2 ADD DUP4 SWAP1 MSTORE PUSH1 0x64 ADD PUSH2 0x57C JUMP JUMPDEST PUSH1 0x1 PUSH1 0x1 PUSH1 0xA0 SHL SUB DUP5 AND PUSH1 0x0 SWAP1 DUP2 MSTORE PUSH1 0x20 DUP2 SWAP1 MSTORE PUSH1 0x40 SWAP1 KECCAK256 SWAP1 DUP3 SWAP1 SUB SWAP1 SSTORE JUMPDEST PUSH1 0x1 PUSH1 0x1 PUSH1 0xA0 SHL SUB DUP3 AND PUSH2 0xB87 JUMPI PUSH1 0x2 DUP1 SLOAD DUP3 SWAP1 SUB SWAP1 SSTORE PUSH2 0xBA6 JUMP JUMPDEST PUSH1 0x1 PUSH1 0x1 PUSH1 0xA0 SHL SUB DUP3 AND PUSH1 0x0 SWAP1 DUP2 MSTORE PUSH1 0x20 DUP2 SWAP1 MSTORE PUSH1 0x40 SWAP1 KECCAK256 DUP1 SLOAD DUP3 ADD SWAP1 SSTORE JUMPDEST DUP2 PUSH1 0x1 PUSH1 0x1 PUSH1 0xA0 SHL SUB AND DUP4 PUSH1 0x1 PUSH1 0x1 PUSH1 0xA0 SHL SUB AND PUSH32 0xDDF252AD1BE2C89B69C2B068FC378DAA952BA7F163C4A11628F55A4DF523B3EF DUP4 PUSH1 0x40 MLOAD PUSH2 0xBEB SWAP2 DUP2 MSTORE PUSH1 0x20 ADD SWAP1 JUMP JUMPDEST PUSH1 0x40 MLOAD DUP1 SWAP2 SUB SWAP1 LOG3 POP POP POP JUMP JUMPDEST PUSH1 0x0 PUSH1 0x20 DUP1 DUP4 MSTORE DUP4 MLOAD DUP1 DUP3 DUP6 ADD MSTORE PUSH1 0x0 JUMPDEST DUP2 DUP2 LT ISZERO PUSH2 0xC25 JUMPI DUP6 DUP2 ADD DUP4 ADD MLOAD DUP6 DUP3 ADD PUSH1 0x40 ADD MSTORE DUP3 ADD PUSH2 0xC09 JUMP JUMPDEST POP PUSH1 0x0 PUSH1 0x40 DUP3 DUP7 ADD ADD MSTORE PUSH1 0x40 PUSH1 0x1F NOT PUSH1 0x1F DUP4 ADD AND DUP6 ADD ADD SWAP3 POP POP POP SWAP3 SWAP2 POP POP JUMP JUMPDEST DUP1 CALLDATALOAD PUSH1 0x1 PUSH1 0x1 PUSH1 0xA0 SHL SUB DUP2 AND DUP2 EQ PUSH2 0xC5D JUMPI PUSH1 0x0 DUP1 REVERT JUMPDEST SWAP2 SWAP1 POP JUMP JUMPDEST PUSH1 0x0 DUP1 PUSH1 0x40 DUP4 DUP6 SUB SLT ISZERO PUSH2 0xC75 JUMPI PUSH1 0x0 DUP1 REVERT JUMPDEST PUSH2 0xC7E DUP4 PUSH2 0xC46 JUMP JUMPDEST SWAP5 PUSH1 0x20 SWAP4 SWAP1 SWAP4 ADD CALLDATALOAD SWAP4 POP POP POP JUMP JUMPDEST PUSH1 0x0 DUP1 PUSH1 0x0 PUSH1 0x60 DUP5 DUP7 SUB SLT ISZERO PUSH2 0xCA1 JUMPI PUSH1 0x0 DUP1 REVERT JUMPDEST PUSH2 0xCAA DUP5 PUSH2 0xC46 JUMP JUMPDEST SWAP3 POP PUSH2 0xCB8 PUSH1 0x20 DUP6 ADD PUSH2 0xC46 JUMP JUMPDEST SWAP2 POP PUSH1 0x40 DUP5 ADD CALLDATALOAD SWAP1 POP SWAP3 POP SWAP3 POP SWAP3 JUMP JUMPDEST PUSH1 0x0 PUSH1 0x20 DUP3 DUP5 SUB SLT ISZERO PUSH2 0xCDA JUMPI PUSH1 0x0 DUP1 REVERT JUMPDEST PUSH2 0xCE3 DUP3 PUSH2 0xC46 JUMP JUMPDEST SWAP4 SWAP3 POP POP POP JUMP JUMPDEST DUP1 CALLDATALOAD DUP1 ISZERO ISZERO DUP2 EQ PUSH2 0xC5D JUMPI PUSH1 0x0 DUP1 REVERT JUMPDEST PUSH1 0x0 DUP1 PUSH1 0x40 DUP4 DUP6 SUB SLT ISZERO PUSH2 0xD0D JUMPI PUSH1 0x0 DUP1 REVERT JUMPDEST PUSH2 0xD16 DUP4 PUSH2 0xC46 JUMP JUMPDEST SWAP2 POP PUSH2 0xD24 PUSH1 0x20 DUP5 ADD PUSH2 0xCEA JUMP JUMPDEST SWAP1 POP SWAP3 POP SWAP3 SWAP1 POP JUMP JUMPDEST PUSH1 0x0 PUSH1 0x20 DUP3 DUP5 SUB SLT ISZERO PUSH2 0xD3F JUMPI PUSH1 0x0 DUP1 REVERT JUMPDEST PUSH2 0xCE3 DUP3 PUSH2 0xCEA JUMP JUMPDEST PUSH1 0x0 DUP1 PUSH1 0x40 DUP4 DUP6 SUB SLT ISZERO PUSH2 0xD5B JUMPI PUSH1 0x0 DUP1 REVERT JUMPDEST PUSH2 0xD64 DUP4 PUSH2 0xC46 JUMP JUMPDEST SWAP2 POP PUSH2 0xD24 PUSH1 0x20 DUP5 ADD PUSH2 0xC46 JUMP JUMPDEST PUSH1 0x1 DUP2 DUP2 SHR SWAP1 DUP3 AND DUP1 PUSH2 0xD86 JUMPI PUSH1 0x7F DUP3 AND SWAP2 POP JUMPDEST PUSH1 0x20 DUP3 LT DUP2 SUB PUSH2 0xDA6 JUMPI PUSH4 0x4E487B71 PUSH1 0xE0 SHL PUSH1 0x0 MSTORE PUSH1 0x22 PUSH1 0x4 MSTORE PUSH1 0x24 PUSH1 0x0 REVERT JUMPDEST POP SWAP2 SWAP1 POP JUMP JUMPDEST PUSH4 0x4E487B71 PUSH1 0xE0 SHL PUSH1 0x0 MSTORE PUSH1 0x11 PUSH1 0x4 MSTORE PUSH1 0x24 PUSH1 0x0 REVERT JUMPDEST DUP1 DUP3 MUL DUP2 ISZERO DUP3 DUP3 DIV DUP5 EQ OR PUSH2 0x40E JUMPI PUSH2 0x40E PUSH2 0xDAC JUMP JUMPDEST PUSH1 0x0 DUP3 PUSH2 0xDF6 JUMPI PUSH4 0x4E487B71 PUSH1 0xE0 SHL PUSH1 0x0 MSTORE PUSH1 0x12 PUSH1 0x4 MSTORE PUSH1 0x24 PUSH1 0x0 REVERT JUMPDEST POP DIV SWAP1 JUMP JUMPDEST DUP2 DUP2 SUB DUP2 DUP2 GT ISZERO PUSH2 0x40E JUMPI PUSH2 0x40E PUSH2 0xDAC JUMP JUMPDEST DUP1 DUP3 ADD DUP1 DUP3 GT ISZERO PUSH2 0x40E JUMPI PUSH2 0x40E PUSH2 0xDAC JUMP INVALID LOG2 PUSH5 0x6970667358 0x22 SLT KECCAK256 0xEF CODECOPY 0xE SWAP7 0xAB 0xCC 0x21 0x29 EXTCODEHASH MLOAD 0xDF 0xAD 0x5D 0xC0 0xE4 0x5D JUMPI 0x2C 0xD1 PUSH32 0x2BCF695E3F441509383C62D264736F6C63430008140033000000000000000000 "},"methodIdentifiers":{"FEE_PERCENTAGE()":"000b46f8","REWARD_WINNERS_FEE()":"4105e3ef","TOTAL_SUPPLY()":"902d55a5","TREASURY_FEE()":"8ce1a483","allowance(address,address)":"dd62ed3e","approve(address,uint256)":"095ea7b3","balanceOf(address)":"70a08231","decimals()":"313ce567","feeExempt(address)":"398daa85","feesEnabled()":"a64e4f8a","name()":"06fdde03","owner()":"8da5cb5b","renounceOwnership()":"715018a6","rewardsDistributor()":"3f2a5540","setFeeExemption(address,bool)":"751fd179","setFeesEnabled(bool)":"a901dd92","setRewardsDistributor(address)":"d1f5c33b","setTreasury(address)":"f0f44260","symbol()":"95d89b41","totalSupply()":"18160ddd","transfer(address,uint256)":"a9059cbb","transferFrom(address,address,uint256)":"23b872dd","transferOwnership(address)":"f2fde38b","treasury()":"61d027b3"}}}}}