{"contracts/VerifyzVerifierV2.sol":{"VerifyzVerifierV2":{"abi":[{"inputs":[],"name":"LAUNCH_DATE","outputs":[{"internalType":"uint256","name":"","type":"uint256"}],"stateMutability":"view","type":"function"},{"inputs":[],"name":"PRESALE_END","outputs":[{"internalType":"uint256","name":"","type":"uint256"}],"stateMutability":"view","type":"function"},{"inputs":[],"name":"PRESALE_START","outputs":[{"internalType":"uint256","name":"","type":"uint256"}],"stateMutability":"view","type":"function"}],"evm":{"bytecode":{"linkReferences":{},"object":"6080604052348015600f57600080fd5b5060a78061001e6000396000f3fe6080604052348015600f57600080fd5b5060043610603c5760003560e01c8063bd93f493146041578063d336468714605d578063e8b50802146067575b600080fd5b604b6368f57b8081565b60405190815260200160405180910390f35b604b6368d0918081565b604b6368ed21ff8156fea264697066735822122037abc958d58d75a67950d19c8b6ff8812e120b26a9b13d3461da9ab0d6ae143364736f6c63430008140033","opcodes":"PUSH1 0x80 PUSH1 0x40 MSTORE CALLVALUE DUP1 ISZERO PUSH1 0xF JUMPI PUSH1 0x0 DUP1 REVERT JUMPDEST POP PUSH1 0xA7 DUP1 PUSH2 0x1E PUSH1 0x0 CODECOPY PUSH1 0x0 RETURN INVALID PUSH1 0x80 PUSH1 0x40 MSTORE CALLVALUE DUP1 ISZERO PUSH1 0xF JUMPI PUSH1 0x0 DUP1 REVERT JUMPDEST POP PUSH1 0x4 CALLDATASIZE LT PUSH1 0x3C JUMPI PUSH1 0x0 CALLDATALOAD PUSH1 0xE0 SHR DUP1 PUSH4 0xBD93F493 EQ PUSH1 0x41 JUMPI DUP1 PUSH4 0xD3364687 EQ PUSH1 0x5D JUMPI DUP1 PUSH4 0xE8B50802 EQ PUSH1 0x67 JUMPI JUMPDEST PUSH1 0x0 DUP1 REVERT JUMPDEST PUSH1 0x4B PUSH4 0x68F57B80 DUP2 JUMP JUMPDEST PUSH1 0x40 MLOAD SWAP1 DUP2 MSTORE PUSH1 0x20 ADD PUSH1 0x40 MLOAD DUP1 SWAP2 SUB SWAP1 RETURN JUMPDEST PUSH1 0x4B PUSH4 0x68D09180 DUP2 JUMP JUMPDEST PUSH1 0x4B PUSH4 0x68ED21FF DUP2 JUMP INVALID LOG2 PUSH5 0x6970667358 0x22 SLT KECCAK256 CALLDATACOPY 0xAB 0xC9 PC 0xD5 DUP14 PUSH22 0xA67950D19C8B6FF8812E120B26A9B13D3461DA9AB0D6 0xAE EQ CALLER PUSH5 0x736F6C6343 STOP ADDMOD EQ STOP CALLER "},"methodIdentifiers":{"LAUNCH_DATE()":"bd93f493","PRESALE_END()":"e8b50802","PRESALE_START()":"d3364687"}}}}}