{
  "_format": "hh-sol-artifact-1",
  "contractName": "VerifyzVerifier",
  "sourceName": "contracts/VerifyzVerifier.sol",
  "abi": [
    {
      "inputs": [
        {
          "internalType": "string",
          "name": "name_",
          "type": "string"
        },
        {
          "internalType": "string",
          "name": "symbol_",
          "type": "string"
        },
        {
          "internalType": "address",
          "name": "treasury_",
          "type": "address"
        }
      ],
      "stateMutability": "nonpayable",
      "type": "constructor"
    },
    {
      "inputs": [
        {
          "internalType": "address",
          "name": "spender",
          "type": "address"
        },
        {
          "internalType": "uint256",
          "name": "allowance",
          "type": "uint256"
        },
        {
          "internalType": "uint256",
          "name": "needed",
          "type": "uint256"
        }
      ],
      "name": "ERC20InsufficientAllowance",
      "type": "error"
    },
    {
      "inputs": [
        {
          "internalType": "address",
          "name": "sender",
          "type": "address"
        },
        {
          "internalType": "uint256",
          "name": "balance",
          "type": "uint256"
        },
        {
          "internalType": "uint256",
          "name": "needed",
          "type": "uint256"
        }
      ],
      "name": "ERC20InsufficientBalance",
      "type": "error"
    },
    {
      "inputs": [
        {
          "internalType": "address",
          "name": "approver",
          "type": "address"
        }
      ],
      "name": "ERC20InvalidApprover",
      "type": "error"
    },
    {
      "inputs": [
        {
          "internalType": "address",
          "name": "receiver",
          "type": "address"
        }
      ],
      "name": "ERC20InvalidReceiver",
      "type": "error"
    },
    {
      "inputs": [
        {
          "internalType": "address",
          "name": "sender",
          "type": "address"
        }
      ],
      "name": "ERC20InvalidSender",
      "type": "error"
    },
    {
      "inputs": [
        {
          "internalType": "address",
          "name": "spender",
          "type": "address"
        }
      ],
      "name": "ERC20InvalidSpender",
      "type": "error"
    },
    {
      "inputs": [
        {
          "internalType": "address",
          "name": "owner",
          "type": "address"
        }
      ],
      "name": "OwnableInvalidOwner",
      "type": "error"
    },
    {
      "inputs": [
        {
          "internalType": "address",
          "name": "account",
          "type": "address"
        }
      ],
      "name": "OwnableUnauthorizedAccount",
      "type": "error"
    },
    {
      "inputs": [],
      "name": "ReentrancyGuardReentrantCall",
      "type": "error"
    },
    {
      "anonymous": false,
      "inputs": [
        {
          "indexed": true,
          "internalType": "address",
          "name": "owner",
          "type": "address"
        },
        {
          "indexed": true,
          "internalType": "address",
          "name": "spender",
          "type": "address"
        },
        {
          "indexed": false,
          "internalType": "uint256",
          "name": "value",
          "type": "uint256"
        }
      ],
      "name": "Approval",
      "type": "event"
    },
    {
      "anonymous": false,
      "inputs": [
        {
          "indexed": true,
          "internalType": "address",
          "name": "account",
          "type": "address"
        },
        {
          "indexed": false,
          "internalType": "bool",
          "name": "exempt",
          "type": "bool"
        }
      ],
      "name": "FeeExemptionSet",
      "type": "event"
    },
    {
      "anonymous": false,
      "inputs": [
        {
          "indexed": false,
          "internalType": "bool",
          "name": "enabled",
          "type": "bool"
        }
      ],
      "name": "FeesEnabled",
      "type": "event"
    },
    {
      "anonymous": false,
      "inputs": [
        {
          "indexed": true,
          "internalType": "address",
          "name": "previousOwner",
          "type": "address"
        },
        {
          "indexed": true,
          "internalType": "address",
          "name": "newOwner",
          "type": "address"
        }
      ],
      "name": "OwnershipTransferred",
      "type": "event"
    },
    {
      "anonymous": false,
      "inputs": [
        {
          "indexed": true,
          "internalType": "address",
          "name": "distributor",
          "type": "address"
        }
      ],
      "name": "RewardsDistributorSet",
      "type": "event"
    },
    {
      "anonymous": false,
      "inputs": [
        {
          "indexed": true,
          "internalType": "address",
          "name": "from",
          "type": "address"
        },
        {
          "indexed": true,
          "internalType": "address",
          "name": "to",
          "type": "address"
        },
        {
          "indexed": false,
          "internalType": "uint256",
          "name": "value",
          "type": "uint256"
        }
      ],
      "name": "Transfer",
      "type": "event"
    },
    {
      "anonymous": false,
      "inputs": [
        {
          "indexed": true,
          "internalType": "address",
          "name": "treasury",
          "type": "address"
        }
      ],
      "name": "TreasurySet",
      "type": "event"
    },
    {
      "inputs": [],
      "name": "FEE_PERCENTAGE",
      "outputs": [
        {
          "internalType": "uint256",
          "name": "",
          "type": "uint256"
        }
      ],
      "stateMutability": "view",
      "type": "function"
    },
    {
      "inputs": [],
      "name": "REWARD_WINNERS_FEE",
      "outputs": [
        {
          "internalType": "uint256",
          "name": "",
          "type": "uint256"
        }
      ],
      "stateMutability": "view",
      "type": "function"
    },
    {
      "inputs": [],
      "name": "TOTAL_SUPPLY",
      "outputs": [
        {
          "internalType": "uint256",
          "name": "",
          "type": "uint256"
        }
      ],
      "stateMutability": "view",
      "type": "function"
    },
    {
      "inputs": [],
      "name": "TREASURY_FEE",
      "outputs": [
        {
          "internalType": "uint256",
          "name": "",
          "type": "uint256"
        }
      ],
      "stateMutability": "view",
      "type": "function"
    },
    {
      "inputs": [
        {
          "internalType": "address",
          "name": "owner",
          "type": "address"
        },
        {
          "internalType": "address",
          "name": "spender",
          "type": "address"
        }
      ],
      "name": "allowance",
      "outputs": [
        {
          "internalType": "uint256",
          "name": "",
          "type": "uint256"
        }
      ],
      "stateMutability": "view",
      "type": "function"
    },
    {
      "inputs": [
        {
          "internalType": "address",
          "name": "spender",
          "type": "address"
        },
        {
          "internalType": "uint256",
          "name": "value",
          "type": "uint256"
        }
      ],
      "name": "approve",
      "outputs": [
        {
          "internalType": "bool",
          "name": "",
          "type": "bool"
        }
      ],
      "stateMutability": "nonpayable",
      "type": "function"
    },
    {
      "inputs": [
        {
          "internalType": "address",
          "name": "account",
          "type": "address"
        }
      ],
      "name": "balanceOf",
      "outputs": [
        {
          "internalType": "uint256",
          "name": "",
          "type": "uint256"
        }
      ],
      "stateMutability": "view",
      "type": "function"
    },
    {
      "inputs": [],
      "name": "decimals",
      "outputs": [
        {
          "internalType": "uint8",
          "name": "",
          "type": "uint8"
        }
      ],
      "stateMutability": "view",
      "type": "function"
    },
    {
      "inputs": [
        {
          "internalType": "address",
          "name": "",
          "type": "address"
        }
      ],
      "name": "feeExempt",
      "outputs": [
        {
          "internalType": "bool",
          "name": "",
          "type": "bool"
        }
      ],
      "stateMutability": "view",
      "type": "function"
    },
    {
      "inputs": [],
      "name": "feesEnabled",
      "outputs": [
        {
          "internalType": "bool",
          "name": "",
          "type": "bool"
        }
      ],
      "stateMutability": "view",
      "type": "function"
    },
    {
      "inputs": [],
      "name": "name",
      "outputs": [
        {
          "internalType": "string",
          "name": "",
          "type": "string"
        }
      ],
      "stateMutability": "view",
      "type": "function"
    },
    {
      "inputs": [],
      "name": "owner",
      "outputs": [
        {
          "internalType": "address",
          "name": "",
          "type": "address"
        }
      ],
      "stateMutability": "view",
      "type": "function"
    },
    {
      "inputs": [],
      "name": "renounceOwnership",
      "outputs": [],
      "stateMutability": "nonpayable",
      "type": "function"
    },
    {
      "inputs": [],
      "name": "rewardsDistributor",
      "outputs": [
        {
          "internalType": "address",
          "name": "",
          "type": "address"
        }
      ],
      "stateMutability": "view",
      "type": "function"
    },
    {
      "inputs": [
        {
          "internalType": "address",
          "name": "account",
          "type": "address"
        },
        {
          "internalType": "bool",
          "name": "exempt",
          "type": "bool"
        }
      ],
      "name": "setFeeExemption",
      "outputs": [],
      "stateMutability": "nonpayable",
      "type": "function"
    },
    {
      "inputs": [
        {
          "internalType": "bool",
          "name": "_enabled",
          "type": "bool"
        }
      ],
      "name": "setFeesEnabled",
      "outputs": [],
      "stateMutability": "nonpayable",
      "type": "function"
    },
    {
      "inputs": [
        {
          "internalType": "address",
          "name": "_rewardsDistributor",
          "type": "address"
        }
      ],
      "name": "setRewardsDistributor",
      "outputs": [],
      "stateMutability": "nonpayable",
      "type": "function"
    },
    {
      "inputs": [
        {
          "internalType": "address",
          "name": "_treasury",
          "type": "address"
        }
      ],
      "name": "setTreasury",
      "outputs": [],
      "stateMutability": "nonpayable",
      "type": "function"
    },
    {
      "inputs": [],
      "name": "symbol",
      "outputs": [
        {
          "internalType": "string",
          "name": "",
          "type": "string"
        }
      ],
      "stateMutability": "view",
      "type": "function"
    },
    {
      "inputs": [],
      "name": "totalSupply",
      "outputs": [
        {
          "internalType": "uint256",
          "name": "",
          "type": "uint256"
        }
      ],
      "stateMutability": "view",
      "type": "function"
    },
    {
      "inputs": [
        {
          "internalType": "address",
          "name": "to",
          "type": "address"
        },
        {
          "internalType": "uint256",
          "name": "value",
          "type": "uint256"
        }
      ],
      "name": "transfer",
      "outputs": [
        {
          "internalType": "bool",
          "name": "",
          "type": "bool"
        }
      ],
      "stateMutability": "nonpayable",
      "type": "function"
    },
    {
      "inputs": [
        {
          "internalType": "address",
          "name": "from",
          "type": "address"
        },
        {
          "internalType": "address",
          "name": "to",
          "type": "address"
        },
        {
          "internalType": "uint256",
          "name": "value",
          "type": "uint256"
        }
      ],
      "name": "transferFrom",
      "outputs": [
        {
          "internalType": "bool",
          "name": "",
          "type": "bool"
        }
      ],
      "stateMutability": "nonpayable",
      "type": "function"
    },
    {
      "inputs": [
        {
          "internalType": "address",
          "name": "newOwner",
          "type": "address"
        }
      ],
      "name": "transferOwnership",
      "outputs": [],
      "stateMutability": "nonpayable",
      "type": "function"
    },
    {
      "inputs": [],
      "name": "treasury",
      "outputs": [
        {
          "internalType": "address",
          "name": "",
          "type": "address"
        }
      ],
      "stateMutability": "view",
      "type": "function"
    }
  ],
  "bytecode": "0x60806040526008805460ff60a01b191690553480156200001e57600080fd5b50604051620016513803806200165183398101604081905262000041916200057e565b338383600362000052838262000699565b50600462000061828262000699565b5050506001600160a01b0381166200009457604051631e4fbdf760e01b8152600060048201526024015b60405180910390fd5b6200009f81620000fb565b506001600655600880546001600160a01b0319166001600160a01b038316179055620000d8336b019d971e4fe8401e740000006200014d565b5050336000908152600960205260409020805460ff1916600117905550620007ea565b600580546001600160a01b038381166001600160a01b0319831681179093556040519116919082907f8be0079c531659141344cd1fd0a4f28419497f9722a3daafe3b4186f6b6457e090600090a35050565b6001600160a01b038216620001795760405163ec442f0560e01b8152600060048201526024016200008b565b62000187600083836200018b565b5050565b6001600160a01b03831615801590620001ac57506001600160a01b03821615155b8015620001c25750600854600160a01b900460ff165b8015620001e857506001600160a01b03831660009081526009602052604090205460ff16155b80156200020e57506001600160a01b03821660009081526009602052604090205460ff16155b15620003745760006064620002256005846200077b565b6200023191906200079b565b90506000620002418284620007be565b905081156200036057600060646200025b6001866200077b565b6200026791906200079b565b90506000620002778285620007be565b6007549091506001600160a01b031615801590620002955750600082115b156200031b57600754620002b59088906001600160a01b03168462000386565b600754604051636029bf9f60e01b8152600481018490526001600160a01b0390911690636029bf9f90602401600060405180830381600087803b158015620002fc57600080fd5b505af115801562000311573d6000803e3d6000fd5b505050506200032a565b620003278282620007d4565b90505b80156200034b576008546200034b9088906001600160a01b03168362000386565b6200035887878562000386565b50506200036d565b6200036d85858562000386565b5050505050565b6200038183838362000386565b505050565b6001600160a01b038316620003b5578060026000828254620003a99190620007d4565b90915550620004299050565b6001600160a01b038316600090815260208190526040902054818110156200040a5760405163391434e360e21b81526001600160a01b038516600482015260248101829052604481018390526064016200008b565b6001600160a01b03841660009081526020819052604090209082900390555b6001600160a01b038216620004475760028054829003905562000466565b6001600160a01b03821660009081526020819052604090208054820190555b816001600160a01b0316836001600160a01b03167fddf252ad1be2c89b69c2b068fc378daa952ba7f163c4a11628f55a4df523b3ef83604051620004ac91815260200190565b60405180910390a3505050565b634e487b7160e01b600052604160045260246000fd5b600082601f830112620004e157600080fd5b81516001600160401b0380821115620004fe57620004fe620004b9565b604051601f8301601f19908116603f01168101908282118183101715620005295762000529620004b9565b816040528381526020925086838588010111156200054657600080fd5b600091505b838210156200056a57858201830151818301840152908201906200054b565b600093810190920192909252949350505050565b6000806000606084860312156200059457600080fd5b83516001600160401b0380821115620005ac57600080fd5b620005ba87838801620004cf565b94506020860151915080821115620005d157600080fd5b50620005e086828701620004cf565b604086015190935090506001600160a01b03811681146200060057600080fd5b809150509250925092565b600181811c908216806200062057607f821691505b6020821081036200064157634e487b7160e01b600052602260045260246000fd5b50919050565b601f8211156200038157600081815260208120601f850160051c81016020861015620006705750805b601f850160051c820191505b8181101562000691578281556001016200067c565b505050505050565b81516001600160401b03811115620006b557620006b5620004b9565b620006cd81620006c684546200060b565b8462000647565b602080601f831160018114620007055760008415620006ec5750858301515b600019600386901b1c1916600185901b17855562000691565b600085815260208120601f198616915b82811015620007365788860151825594840194600190910190840162000715565b5085821015620007555787850151600019600388901b60f8161c191681555b5050505050600190811b01905550565b634e487b7160e01b600052601160045260246000fd5b808202811582820484141762000795576200079562000765565b92915050565b600082620007b957634e487b7160e01b600052601260045260246000fd5b500490565b8181038181111562000795576200079562000765565b8082018082111562000795576200079562000765565b610e5780620007fa6000396000f3fe608060405234801561001057600080fd5b50600436106101575760003560e01c8063751fd179116100c3578063a901dd921161007c578063a901dd92146102d0578063a9059cbb146102e3578063d1f5c33b146102f6578063dd62ed3e14610309578063f0f4426014610342578063f2fde38b1461035557600080fd5b8063751fd179146102755780638ce1a483146102885780638da5cb5b14610290578063902d55a5146102a157806395d89b41146102b4578063a64e4f8a146102bc57600080fd5b8063398daa8511610115578063398daa85146101d95780633f2a5540146101fc5780634105e3ef1461022757806361d027b31461022f57806370a0823114610242578063715018a61461026b57600080fd5b80620b46f81461015c57806306fdde0314610177578063095ea7b31461018c57806318160ddd146101af57806323b872dd146101b7578063313ce567146101ca575b600080fd5b610164600581565b6040519081526020015b60405180910390f35b61017f610368565b60405161016e9190610bf8565b61019f61019a366004610c62565b6103fa565b604051901515815260200161016e565b600254610164565b61019f6101c5366004610c8c565b610414565b6040516012815260200161016e565b61019f6101e7366004610cc8565b60096020526000908152604090205460ff1681565b60075461020f906001600160a01b031681565b6040516001600160a01b03909116815260200161016e565b610164600181565b60085461020f906001600160a01b031681565b610164610250366004610cc8565b6001600160a01b031660009081526020819052604090205490565b610273610438565b005b610273610283366004610cfa565b61044c565b610164600481565b6005546001600160a01b031661020f565b6101646b019d971e4fe8401e7400000081565b61017f6104b3565b60085461019f90600160a01b900460ff1681565b6102736102de366004610d2d565b6104c2565b61019f6102f1366004610c62565b610522565b610273610304366004610cc8565b610530565b610164610317366004610d48565b6001600160a01b03918216600090815260016020908152604080832093909416825291909152205490565b610273610350366004610cc8565b6105e5565b610273610363366004610cc8565b61067f565b60606003805461037790610d72565b80601f01602080910402602001604051908101604052809291908181526020018280546103a390610d72565b80156103f05780601f106103c5576101008083540402835291602001916103f0565b820191906000526020600020905b8154815290600101906020018083116103d357829003601f168201915b5050505050905090565b6000336104088185856106bd565b60019150505b92915050565b6000336104228582856106cf565b61042d85858561074e565b506001949350505050565b6104406107ad565b61044a60006107da565b565b6104546107ad565b6001600160a01b038216600081815260096020908152604091829020805460ff191685151590811790915591519182527f210f2a4a589e25d95b24cbdb060d26ae79bbe123a564d0f973503d48badd00ca910160405180910390a25050565b60606004805461037790610d72565b6104ca6107ad565b60088054821515600160a01b0260ff60a01b199091161790556040517fa0ecf0a5fbb822896523e7519379813a2d69d92a1d7e408139c60d90041f23ae9061051790831515815260200190565b60405180910390a150565b60003361040881858561074e565b6105386107ad565b6001600160a01b0381166105855760405162461bcd60e51b815260206004820152600f60248201526e496e76616c6964206164647265737360881b60448201526064015b60405180910390fd5b600780546001600160a01b0319166001600160a01b038316908117909155600081815260096020526040808220805460ff19166001179055517f950a88e6770f863d57a76f0536e93cc7c318c1188c4c189aa9d7a98a6e62f8649190a250565b6105ed6107ad565b6001600160a01b0381166106355760405162461bcd60e51b815260206004820152600f60248201526e496e76616c6964206164647265737360881b604482015260640161057c565b600880546001600160a01b0319166001600160a01b0383169081179091556040517f3c864541ef71378c6229510ed90f376565ee42d9c5e0904a984a9e863e6db44f90600090a250565b6106876107ad565b6001600160a01b0381166106b157604051631e4fbdf760e01b81526000600482015260240161057c565b6106ba816107da565b50565b6106ca838383600161082c565b505050565b6001600160a01b03838116600090815260016020908152604080832093861683529290522054600019811015610748578181101561073957604051637dc7a0d960e11b81526001600160a01b0384166004820152602481018290526044810183905260640161057c565b6107488484848403600061082c565b50505050565b6001600160a01b03831661077857604051634b637e8f60e11b81526000600482015260240161057c565b6001600160a01b0382166107a25760405163ec442f0560e01b81526000600482015260240161057c565b6106ca838383610901565b6005546001600160a01b0316331461044a5760405163118cdaa760e01b815233600482015260240161057c565b600580546001600160a01b038381166001600160a01b0319831681179093556040519116919082907f8be0079c531659141344cd1fd0a4f28419497f9722a3daafe3b4186f6b6457e090600090a35050565b6001600160a01b0384166108565760405163e602df0560e01b81526000600482015260240161057c565b6001600160a01b03831661088057604051634a1406b160e11b81526000600482015260240161057c565b6001600160a01b038085166000908152600160209081526040808320938716835292905220829055801561074857826001600160a01b0316846001600160a01b03167f8c5be1e5ebec7d5bd14f71427d1e84f3dd0314c0f7b2291e5b200ac8c7c3b925846040516108f391815260200190565b60405180910390a350505050565b6001600160a01b0383161580159061092157506001600160a01b03821615155b80156109365750600854600160a01b900460ff165b801561095b57506001600160a01b03831660009081526009602052604090205460ff16155b801561098057506001600160a01b03821660009081526009602052604090205460ff16155b15610ac75760006064610994600584610dc2565b61099e9190610dd9565b905060006109ac8284610dfb565b90508115610ab557600060646109c3600186610dc2565b6109cd9190610dd9565b905060006109db8285610dfb565b6007549091506001600160a01b0316158015906109f85750600082115b15610a7857600754610a159088906001600160a01b031684610ace565b600754604051636029bf9f60e01b8152600481018490526001600160a01b0390911690636029bf9f90602401600060405180830381600087803b158015610a5b57600080fd5b505af1158015610a6f573d6000803e3d6000fd5b50505050610a85565b610a828282610e0e565b90505b8015610aa357600854610aa39088906001600160a01b031683610ace565b610aae878785610ace565b5050610ac0565b610ac0858585610ace565b5050505050565b6106ca8383835b6001600160a01b038316610af9578060026000828254610aee9190610e0e565b90915550610b6b9050565b6001600160a01b03831660009081526020819052604090205481811015610b4c5760405163391434e360e21b81526001600160a01b0385166004820152602481018290526044810183905260640161057c565b6001600160a01b03841660009081526020819052604090209082900390555b6001600160a01b038216610b8757600280548290039055610ba6565b6001600160a01b03821660009081526020819052604090208054820190555b816001600160a01b0316836001600160a01b03167fddf252ad1be2c89b69c2b068fc378daa952ba7f163c4a11628f55a4df523b3ef83604051610beb91815260200190565b60405180910390a3505050565b600060208083528351808285015260005b81811015610c2557858101830151858201604001528201610c09565b506000604082860101526040601f19601f8301168501019250505092915050565b80356001600160a01b0381168114610c5d57600080fd5b919050565b60008060408385031215610c7557600080fd5b610c7e83610c46565b946020939093013593505050565b600080600060608486031215610ca157600080fd5b610caa84610c46565b9250610cb860208501610c46565b9150604084013590509250925092565b600060208284031215610cda57600080fd5b610ce382610c46565b9392505050565b80358015158114610c5d57600080fd5b60008060408385031215610d0d57600080fd5b610d1683610c46565b9150610d2460208401610cea565b90509250929050565b600060208284031215610d3f57600080fd5b610ce382610cea565b60008060408385031215610d5b57600080fd5b610d6483610c46565b9150610d2460208401610c46565b600181811c90821680610d8657607f821691505b602082108103610da657634e487b7160e01b600052602260045260246000fd5b50919050565b634e487b7160e01b600052601160045260246000fd5b808202811582820484141761040e5761040e610dac565b600082610df657634e487b7160e01b600052601260045260246000fd5b500490565b8181038181111561040e5761040e610dac565b8082018082111561040e5761040e610dac56fea2646970667358221220ef390e96abcc21293f51dfad5dc0e45d572cd17f2bcf695e3f441509383c62d264736f6c63430008140033",
  "linkReferences": {},
  "deployedLinkReferences": {}
}