{
  "_format": "hh-sol-artifact-1",
  "contractName": "VerifyzVerifierV2",
  "sourceName": "contracts/VerifyzVerifierV2.sol",
  "abi": [
    {
      "inputs": [],
      "name": "LAUNCH_DATE",
      "outputs": [
        {
          "internalType": "uint256",
          "name": "",
          "type": "uint256"
        }
      ],
      "stateMutability": "view",
      "type": "function"
    },
    {
      "inputs": [],
      "name": "PRESALE_END",
      "outputs": [
        {
          "internalType": "uint256",
          "name": "",
          "type": "uint256"
        }
      ],
      "stateMutability": "view",
      "type": "function"
    },
    {
      "inputs": [],
      "name": "PRESALE_START",
      "outputs": [
        {
          "internalType": "uint256",
          "name": "",
          "type": "uint256"
        }
      ],
      "stateMutability": "view",
      "type": "function"
    }
  ],
  "bytecode": "0x6080604052348015600f57600080fd5b5060a78061001e6000396000f3fe6080604052348015600f57600080fd5b5060043610603c5760003560e01c8063bd93f493146041578063d336468714605d578063e8b50802146067575b600080fd5b604b6368f57b8081565b60405190815260200160405180910390f35b604b6368d0918081565b604b6368ed21ff8156fea264697066735822122037abc958d58d75a67950d19c8b6ff8812e120b26a9b13d3461da9ab0d6ae143364736f6c63430008140033",
  "linkReferences": {},
  "deployedLinkReferences": {}
}