{
  "_format": "hh-sol-artifact-1",
  "contractName": "RewardsDistributor",
  "sourceName": "contracts/RewardsDistributor.sol",
  "abi": [
    {
      "inputs": [],
      "stateMutability": "nonpayable",
      "type": "constructor"
    },
    {
      "inputs": [
        {
          "internalType": "address",
          "name": "owner",
          "type": "address"
        }
      ],
      "name": "OwnableInvalidOwner",
      "type": "error"
    },
    {
      "inputs": [
        {
          "internalType": "address",
          "name": "account",
          "type": "address"
        }
      ],
      "name": "OwnableUnauthorizedAccount",
      "type": "error"
    },
    {
      "inputs": [],
      "name": "ReentrancyGuardReentrantCall",
      "type": "error"
    },
    {
      "inputs": [
        {
          "internalType": "address",
          "name": "token",
          "type": "address"
        }
      ],
      "name": "SafeERC20FailedOperation",
      "type": "error"
    },
    {
      "anonymous": false,
      "inputs": [
        {
          "indexed": false,
          "internalType": "uint256",
          "name": "amount",
          "type": "uint256"
        }
      ],
      "name": "FeesDistributed",
      "type": "event"
    },
    {
      "anonymous": false,
      "inputs": [
        {
          "indexed": true,
          "internalType": "address",
          "name": "previousOwner",
          "type": "address"
        },
        {
          "indexed": true,
          "internalType": "address",
          "name": "newOwner",
          "type": "address"
        }
      ],
      "name": "OwnershipTransferred",
      "type": "event"
    },
    {
      "anonymous": false,
      "inputs": [
        {
          "indexed": true,
          "internalType": "address",
          "name": "token",
          "type": "address"
        }
      ],
      "name": "RewardTokenSet",
      "type": "event"
    },
    {
      "anonymous": false,
      "inputs": [
        {
          "indexed": true,
          "internalType": "address",
          "name": "winner",
          "type": "address"
        },
        {
          "indexed": false,
          "internalType": "uint256",
          "name": "amount",
          "type": "uint256"
        }
      ],
      "name": "RewardsClaimed",
      "type": "event"
    },
    {
      "anonymous": false,
      "inputs": [
        {
          "indexed": true,
          "internalType": "address",
          "name": "tokenContract",
          "type": "address"
        }
      ],
      "name": "TokenContractSet",
      "type": "event"
    },
    {
      "anonymous": false,
      "inputs": [
        {
          "indexed": false,
          "internalType": "address[5]",
          "name": "winners",
          "type": "address[5]"
        }
      ],
      "name": "WinnersSet",
      "type": "event"
    },
    {
      "inputs": [],
      "name": "claimRewards",
      "outputs": [],
      "stateMutability": "nonpayable",
      "type": "function"
    },
    {
      "inputs": [
        {
          "internalType": "address",
          "name": "",
          "type": "address"
        }
      ],
      "name": "claimedRewards",
      "outputs": [
        {
          "internalType": "uint256",
          "name": "",
          "type": "uint256"
        }
      ],
      "stateMutability": "view",
      "type": "function"
    },
    {
      "inputs": [
        {
          "internalType": "uint256",
          "name": "amount",
          "type": "uint256"
        }
      ],
      "name": "distributeFees",
      "outputs": [],
      "stateMutability": "nonpayable",
      "type": "function"
    },
    {
      "inputs": [
        {
          "internalType": "address",
          "name": "winner",
          "type": "address"
        }
      ],
      "name": "getClaimedRewards",
      "outputs": [
        {
          "internalType": "uint256",
          "name": "",
          "type": "uint256"
        }
      ],
      "stateMutability": "view",
      "type": "function"
    },
    {
      "inputs": [
        {
          "internalType": "address",
          "name": "winner",
          "type": "address"
        }
      ],
      "name": "getPendingRewards",
      "outputs": [
        {
          "internalType": "uint256",
          "name": "",
          "type": "uint256"
        }
      ],
      "stateMutability": "view",
      "type": "function"
    },
    {
      "inputs": [],
      "name": "getWinners",
      "outputs": [
        {
          "internalType": "address[5]",
          "name": "",
          "type": "address[5]"
        }
      ],
      "stateMutability": "view",
      "type": "function"
    },
    {
      "inputs": [
        {
          "internalType": "uint256",
          "name": "",
          "type": "uint256"
        }
      ],
      "name": "lifetimeWinners",
      "outputs": [
        {
          "internalType": "address",
          "name": "",
          "type": "address"
        }
      ],
      "stateMutability": "view",
      "type": "function"
    },
    {
      "inputs": [],
      "name": "owner",
      "outputs": [
        {
          "internalType": "address",
          "name": "",
          "type": "address"
        }
      ],
      "stateMutability": "view",
      "type": "function"
    },
    {
      "inputs": [
        {
          "internalType": "address",
          "name": "",
          "type": "address"
        }
      ],
      "name": "pendingRewards",
      "outputs": [
        {
          "internalType": "uint256",
          "name": "",
          "type": "uint256"
        }
      ],
      "stateMutability": "view",
      "type": "function"
    },
    {
      "inputs": [],
      "name": "renounceOwnership",
      "outputs": [],
      "stateMutability": "nonpayable",
      "type": "function"
    },
    {
      "inputs": [],
      "name": "rewardToken",
      "outputs": [
        {
          "internalType": "contract IERC20",
          "name": "",
          "type": "address"
        }
      ],
      "stateMutability": "view",
      "type": "function"
    },
    {
      "inputs": [
        {
          "internalType": "address[5]",
          "name": "winners",
          "type": "address[5]"
        }
      ],
      "name": "setLifetimeWinners",
      "outputs": [],
      "stateMutability": "nonpayable",
      "type": "function"
    },
    {
      "inputs": [
        {
          "internalType": "address",
          "name": "_token",
          "type": "address"
        }
      ],
      "name": "setRewardToken",
      "outputs": [],
      "stateMutability": "nonpayable",
      "type": "function"
    },
    {
      "inputs": [
        {
          "internalType": "address",
          "name": "_tokenContract",
          "type": "address"
        }
      ],
      "name": "setTokenContract",
      "outputs": [],
      "stateMutability": "nonpayable",
      "type": "function"
    },
    {
      "inputs": [],
      "name": "tokenContract",
      "outputs": [
        {
          "internalType": "address",
          "name": "",
          "type": "address"
        }
      ],
      "stateMutability": "view",
      "type": "function"
    },
    {
      "inputs": [],
      "name": "totalClaimed",
      "outputs": [
        {
          "internalType": "uint256",
          "name": "",
          "type": "uint256"
        }
      ],
      "stateMutability": "view",
      "type": "function"
    },
    {
      "inputs": [],
      "name": "totalDistributed",
      "outputs": [
        {
          "internalType": "uint256",
          "name": "",
          "type": "uint256"
        }
      ],
      "stateMutability": "view",
      "type": "function"
    },
    {
      "inputs": [
        {
          "internalType": "address",
          "name": "newOwner",
          "type": "address"
        }
      ],
      "name": "transferOwnership",
      "outputs": [],
      "stateMutability": "nonpayable",
      "type": "function"
    },
    {
      "inputs": [],
      "name": "winnersSet",
      "outputs": [
        {
          "internalType": "bool",
          "name": "",
          "type": "bool"
        }
      ],
      "stateMutability": "view",
      "type": "function"
    }
  ],
  "bytecode": "0x608060405234801561001057600080fd5b50338061003757604051631e4fbdf760e01b81526000600482015260240160405180910390fd5b6100408161004a565b506001805561009a565b600080546001600160a01b038381166001600160a01b0319831681178455604051919092169283917f8be0079c531659141344cd1fd0a4f28419497f9722a3daafe3b4186f6b6457e09190a35050565b610d27806100a96000396000f3fe608060405234801561001057600080fd5b50600436106101215760003560e01c8063aaee56aa116100ad578063df15c37e11610071578063df15c37e14610275578063efca2eed1461028a578063f2fde38b14610293578063f6ed2017146102a6578063f7c618c1146102cf57600080fd5b8063aaee56aa146101fd578063b9e35db014610210578063bbcd5bbe14610239578063bd8343451461024c578063d54ad2a11461026c57600080fd5b80636029bf9f116100f45780636029bf9f146101ab578063715018a6146101be5780638aee8127146101c65780638da5cb5b146101d9578063a640a62a146101ea57600080fd5b806331d7a26214610126578063372500ab1461015957806355a373d6146101635780635f1721031461018e575b600080fd5b610146610134366004610b9b565b600a6020526000908152604090205481565b6040519081526020015b60405180910390f35b6101616102e2565b005b600354610176906001600160a01b031681565b6040516001600160a01b039091168152602001610150565b60095461019b9060ff1681565b6040519015158152602001610150565b6101616101b9366004610bbd565b610479565b610161610622565b6101616101d4366004610b9b565b610634565b6000546001600160a01b0316610176565b6101766101f8366004610bbd565b6106cc565b61016161020b366004610bd6565b6106ec565b61014661021e366004610b9b565b6001600160a01b03166000908152600b602052604090205490565b610161610247366004610b9b565b610871565b61014661025a366004610b9b565b600b6020526000908152604090205481565b610146600d5481565b61027d61090b565b6040516101509190610bfe565b610146600c5481565b6101616102a1366004610b9b565b610950565b6101466102b4366004610b9b565b6001600160a01b03166000908152600a602052604090205490565b600254610176906001600160a01b031681565b6102ea61098e565b60095460ff166103375760405162461bcd60e51b815260206004820152601360248201527215da5b9b995c9cc81b9bdd081cd95d081e595d606a1b60448201526064015b60405180910390fd5b610340336109b8565b6103845760405162461bcd60e51b81526020600482015260156024820152742737ba1030903634b332ba34b6b2903bb4b73732b960591b604482015260640161032e565b336000908152600a6020526040902054806103d75760405162461bcd60e51b81526020600482015260136024820152724e6f207265776172647320746f20636c61696d60681b604482015260640161032e565b336000908152600a60209081526040808320839055600b90915281208054839290610403908490610c4e565b9250508190555080600d600082825461041c9190610c4e565b9091555050600254610438906001600160a01b03163383610a16565b60405181815233907ffc30cddea38e2bf4d6ea7d3f9ed3b6ad7f176419f4963bd81318067a4aee73fe9060200160405180910390a25061047760018055565b565b6003546001600160a01b031633146104c25760405162461bcd60e51b815260206004820152600c60248201526b155b985d5d1a1bdc9a5e995960a21b604482015260640161032e565b60095460ff1661050a5760405162461bcd60e51b815260206004820152601360248201527215da5b9b995c9cc81b9bdd081cd95d081e595d606a1b604482015260640161032e565b6000811161054f5760405162461bcd60e51b81526020600482015260126024820152710416d6f756e74206d757374206265203e20360741b604482015260640161032e565b600061055c600583610c67565b90508060000361056a575050565b60005b60058110156105d35781600a60006004846005811061058e5761058e610c89565b01546001600160a01b031681526020810191909152604001600090812080549091906105bb908490610c4e565b909155508190506105cb81610c9f565b91505061056d565b5081600c60008282546105e69190610c4e565b90915550506040518281527f8959421a1320789a49eeec01a4750caf8a30733c3db14f000d84484df89300f99060200160405180910390a15050565b61062a610a6d565b6104776000610a9a565b61063c610a6d565b6001600160a01b0381166106825760405162461bcd60e51b815260206004820152600d60248201526c24b73b30b634b2103a37b5b2b760991b604482015260640161032e565b600280546001600160a01b0319166001600160a01b0383169081179091556040517f2d6b04df9b7d358407d1a014f1114b064add34c19d63d395db155a7e533e967a90600090a250565b600481600581106106dc57600080fd5b01546001600160a01b0316905081565b6106f4610a6d565b60095460ff161561073d5760405162461bcd60e51b815260206004820152601360248201527215da5b9b995c9cc8185b1c9958591e481cd95d606a1b604482015260640161032e565b60005b600581101561082857600082826005811061075d5761075d610c89565b6020020160208101906107709190610b9b565b6001600160a01b0316036107bf5760405162461bcd60e51b8152602060048201526016602482015275496e76616c69642077696e6e6572206164647265737360501b604482015260640161032e565b8181600581106107d1576107d1610c89565b6020020160208101906107e49190610b9b565b600482600581106107f7576107f7610c89565b0180546001600160a01b0319166001600160a01b03929092169190911790558061082081610c9f565b915050610740565b506009805460ff191660011790556040517f1a1a4c349d88dd872b0ccddadfd17058f30128c742efff54da51f58860512d7790610866908390610cb8565b60405180910390a150565b610879610a6d565b6001600160a01b0381166108c15760405162461bcd60e51b815260206004820152600f60248201526e496e76616c6964206164647265737360881b604482015260640161032e565b600380546001600160a01b0319166001600160a01b0383169081179091556040517f9b64004f1a50e51d3c2809b6a8efbae432bfa889e0b4bf67f75e7db8ca816dba90600090a250565b610913610b61565b6040805160a08101918290529060049060059082845b81546001600160a01b03168152600190910190602001808311610929575050505050905090565b610958610a6d565b6001600160a01b03811661098257604051631e4fbdf760e01b81526000600482015260240161032e565b61098b81610a9a565b50565b6002600154036109b157604051633ee5aeb560e01b815260040160405180910390fd5b6002600155565b6000805b6005811015610a0d57826001600160a01b0316600482600581106109e2576109e2610c89565b01546001600160a01b0316036109fb5750600192915050565b80610a0581610c9f565b9150506109bc565b50600092915050565b604080516001600160a01b038416602482015260448082018490528251808303909101815260649091019091526020810180516001600160e01b031663a9059cbb60e01b179052610a68908490610aea565b505050565b6000546001600160a01b031633146104775760405163118cdaa760e01b815233600482015260240161032e565b600080546001600160a01b038381166001600160a01b0319831681178455604051919092169283917f8be0079c531659141344cd1fd0a4f28419497f9722a3daafe3b4186f6b6457e09190a35050565b600080602060008451602086016000885af180610b0d576040513d6000823e3d81fd5b50506000513d91508115610b25578060011415610b32565b6001600160a01b0384163b155b15610b5b57604051635274afe760e01b81526001600160a01b038516600482015260240161032e565b50505050565b6040518060a001604052806005906020820280368337509192915050565b80356001600160a01b0381168114610b9657600080fd5b919050565b600060208284031215610bad57600080fd5b610bb682610b7f565b9392505050565b600060208284031215610bcf57600080fd5b5035919050565b600060a08284031215610be857600080fd5b8260a083011115610bf857600080fd5b50919050565b60a08101818360005b6005811015610c2f5781516001600160a01b0316835260209283019290910190600101610c07565b50505092915050565b634e487b7160e01b600052601160045260246000fd5b80820180821115610c6157610c61610c38565b92915050565b600082610c8457634e487b7160e01b600052601260045260246000fd5b500490565b634e487b7160e01b600052603260045260246000fd5b600060018201610cb157610cb1610c38565b5060010190565b60a08101818360005b6005811015610c2f576001600160a01b03610cdb83610b7f565b1683526020928301929190910190600101610cc156fea26469706673582212208866b2b821066491304519644dc5de4a27df36ba683ed614292ef42c1985d09a64736f6c63430008140033",
  "linkReferences": {},
  "deployedLinkReferences": {}
}