{
  "_format": "hh-sol-artifact-1",
  "contractName": "Rewards",
  "sourceName": "contracts/Rewards.sol",
  "abi": [
    {
      "inputs": [
        {
          "internalType": "address",
          "name": "tokenAddress",
          "type": "address"
        }
      ],
      "stateMutability": "nonpayable",
      "type": "constructor"
    },
    {
      "inputs": [
        {
          "internalType": "address",
          "name": "owner",
          "type": "address"
        }
      ],
      "name": "OwnableInvalidOwner",
      "type": "error"
    },
    {
      "inputs": [
        {
          "internalType": "address",
          "name": "account",
          "type": "address"
        }
      ],
      "name": "OwnableUnauthorizedAccount",
      "type": "error"
    },
    {
      "inputs": [
        {
          "internalType": "address",
          "name": "token",
          "type": "address"
        }
      ],
      "name": "SafeERC20FailedOperation",
      "type": "error"
    },
    {
      "anonymous": false,
      "inputs": [
        {
          "indexed": false,
          "internalType": "address[]",
          "name": "recipients",
          "type": "address[]"
        },
        {
          "indexed": false,
          "internalType": "uint256[]",
          "name": "amounts",
          "type": "uint256[]"
        }
      ],
      "name": "BatchRewardsDistributed",
      "type": "event"
    },
    {
      "anonymous": false,
      "inputs": [
        {
          "indexed": true,
          "internalType": "address",
          "name": "previousOwner",
          "type": "address"
        },
        {
          "indexed": true,
          "internalType": "address",
          "name": "newOwner",
          "type": "address"
        }
      ],
      "name": "OwnershipTransferred",
      "type": "event"
    },
    {
      "anonymous": false,
      "inputs": [
        {
          "indexed": true,
          "internalType": "address",
          "name": "to",
          "type": "address"
        },
        {
          "indexed": false,
          "internalType": "uint256",
          "name": "amount",
          "type": "uint256"
        }
      ],
      "name": "RewardDistributed",
      "type": "event"
    },
    {
      "inputs": [
        {
          "internalType": "address[]",
          "name": "recipients",
          "type": "address[]"
        },
        {
          "internalType": "uint256[]",
          "name": "amounts",
          "type": "uint256[]"
        }
      ],
      "name": "batchDistributeRewards",
      "outputs": [],
      "stateMutability": "nonpayable",
      "type": "function"
    },
    {
      "inputs": [
        {
          "internalType": "address",
          "name": "to",
          "type": "address"
        },
        {
          "internalType": "uint256",
          "name": "amount",
          "type": "uint256"
        }
      ],
      "name": "distributeReward",
      "outputs": [],
      "stateMutability": "nonpayable",
      "type": "function"
    },
    {
      "inputs": [],
      "name": "getBalance",
      "outputs": [
        {
          "internalType": "uint256",
          "name": "",
          "type": "uint256"
        }
      ],
      "stateMutability": "view",
      "type": "function"
    },
    {
      "inputs": [],
      "name": "owner",
      "outputs": [
        {
          "internalType": "address",
          "name": "",
          "type": "address"
        }
      ],
      "stateMutability": "view",
      "type": "function"
    },
    {
      "inputs": [],
      "name": "renounceOwnership",
      "outputs": [],
      "stateMutability": "nonpayable",
      "type": "function"
    },
    {
      "inputs": [],
      "name": "rewardToken",
      "outputs": [
        {
          "internalType": "contract IERC20",
          "name": "",
          "type": "address"
        }
      ],
      "stateMutability": "view",
      "type": "function"
    },
    {
      "inputs": [
        {
          "internalType": "address",
          "name": "newOwner",
          "type": "address"
        }
      ],
      "name": "transferOwnership",
      "outputs": [],
      "stateMutability": "nonpayable",
      "type": "function"
    },
    {
      "inputs": [
        {
          "internalType": "uint256",
          "name": "amount",
          "type": "uint256"
        }
      ],
      "name": "withdrawTokens",
      "outputs": [],
      "stateMutability": "nonpayable",
      "type": "function"
    }
  ],
  "bytecode": "0x608060405234801561001057600080fd5b506040516109cd3803806109cd83398101604081905261002f916100d4565b338061005557604051631e4fbdf760e01b81526000600482015260240160405180910390fd5b61005e81610084565b50600180546001600160a01b0319166001600160a01b0392909216919091179055610104565b600080546001600160a01b038381166001600160a01b0319831681178455604051919092169283917f8be0079c531659141344cd1fd0a4f28419497f9722a3daafe3b4186f6b6457e09190a35050565b6000602082840312156100e657600080fd5b81516001600160a01b03811681146100fd57600080fd5b9392505050565b6108ba806101136000396000f3fe608060405234801561001057600080fd5b50600436106100885760003560e01c80638da5cb5b1161005b5780638da5cb5b146100d857806394ad7e37146100fd578063f2fde38b14610110578063f7c618c11461012357600080fd5b806312065fe01461008d5780631ec8bb8c146100a8578063315a095d146100bd578063715018a6146100d0575b600080fd5b610095610136565b6040519081526020015b60405180910390f35b6100bb6100b6366004610695565b6101a8565b005b6100bb6100cb3660046106bf565b61029c565b6100bb6102cf565b6000546001600160a01b03165b6040516001600160a01b03909116815260200161009f565b6100bb61010b366004610724565b6102e3565b6100bb61011e366004610790565b6104f3565b6001546100e5906001600160a01b031681565b6001546040516370a0823160e01b81523060048201526000916001600160a01b0316906370a0823190602401602060405180830381865afa15801561017f573d6000803e3d6000fd5b505050506040513d601f19601f820116820180604052508101906101a391906107b2565b905090565b6101b061052e565b6001600160a01b0382166101fd5760405162461bcd60e51b815260206004820152600f60248201526e496e76616c6964206164647265737360881b60448201526064015b60405180910390fd5b6000811161023e5760405162461bcd60e51b815260206004820152600e60248201526d125b9d985b1a5908185b5bdd5b9d60921b60448201526064016101f4565b600154610255906001600160a01b0316838361055b565b816001600160a01b03167fe34918ff1c7084970068b53fd71ad6d8b04e9f15d3886cbf006443e6cdc52ea68260405161029091815260200190565b60405180910390a25050565b6102a461052e565b6102cc6102b96000546001600160a01b031690565b6001546001600160a01b0316908361055b565b50565b6102d761052e565b6102e160006105b2565b565b6102eb61052e565b8281146103335760405162461bcd60e51b8152602060048201526016602482015275082e4e4c2f2e640d8cadccee8d040dad2e6dac2e8c6d60531b60448201526064016101f4565b826103705760405162461bcd60e51b815260206004820152600d60248201526c4e6f20726563697069656e747360981b60448201526064016101f4565b60005b838110156104af57600085858381811061038f5761038f6107cb565b90506020020160208101906103a49190610790565b6001600160a01b0316036103ec5760405162461bcd60e51b815260206004820152600f60248201526e496e76616c6964206164647265737360881b60448201526064016101f4565b6000838383818110610400576104006107cb565b90506020020135116104455760405162461bcd60e51b815260206004820152600e60248201526d125b9d985b1a5908185b5bdd5b9d60921b60448201526064016101f4565b61049d85858381811061045a5761045a6107cb565b905060200201602081019061046f9190610790565b848484818110610481576104816107cb565b6001546001600160a01b0316939260209091020135905061055b565b806104a7816107e1565b915050610373565b507f4942ad3ae3df750f6b5ab0865dcfc2323000c13bdd8981cf781a87f302665849848484846040516104e59493929190610808565b60405180910390a150505050565b6104fb61052e565b6001600160a01b03811661052557604051631e4fbdf760e01b8152600060048201526024016101f4565b6102cc816105b2565b6000546001600160a01b031633146102e15760405163118cdaa760e01b81523360048201526024016101f4565b604080516001600160a01b038416602482015260448082018490528251808303909101815260649091019091526020810180516001600160e01b031663a9059cbb60e01b1790526105ad908490610602565b505050565b600080546001600160a01b038381166001600160a01b0319831681178455604051919092169283917f8be0079c531659141344cd1fd0a4f28419497f9722a3daafe3b4186f6b6457e09190a35050565b600080602060008451602086016000885af180610625576040513d6000823e3d81fd5b50506000513d9150811561063d57806001141561064a565b6001600160a01b0384163b155b1561067357604051635274afe760e01b81526001600160a01b03851660048201526024016101f4565b50505050565b80356001600160a01b038116811461069057600080fd5b919050565b600080604083850312156106a857600080fd5b6106b183610679565b946020939093013593505050565b6000602082840312156106d157600080fd5b5035919050565b60008083601f8401126106ea57600080fd5b50813567ffffffffffffffff81111561070257600080fd5b6020830191508360208260051b850101111561071d57600080fd5b9250929050565b6000806000806040858703121561073a57600080fd5b843567ffffffffffffffff8082111561075257600080fd5b61075e888389016106d8565b9096509450602087013591508082111561077757600080fd5b50610784878288016106d8565b95989497509550505050565b6000602082840312156107a257600080fd5b6107ab82610679565b9392505050565b6000602082840312156107c457600080fd5b5051919050565b634e487b7160e01b600052603260045260246000fd5b60006001820161080157634e487b7160e01b600052601160045260246000fd5b5060010190565b6040808252810184905260008560608301825b87811015610849576001600160a01b0361083484610679565b1682526020928301929091019060010161081b565b5083810360208501528481526001600160fb1b0385111561086957600080fd5b8460051b91508186602083013701602001969550505050505056fea2646970667358221220458358f6220b20541628a72de497673f50770cf60cddbd35628b1aa8e259aab064736f6c63430008140033",
  "linkReferences": {},
  "deployedLinkReferences": {}
}