{
  "_format": "hh-sol-artifact-1",
  "contractName": "Staking",
  "sourceName": "contracts/Staking.sol",
  "abi": [
    {
      "inputs": [
        {
          "internalType": "address",
          "name": "tokenAddress",
          "type": "address"
        },
        {
          "internalType": "uint256",
          "name": "_rewardRate",
          "type": "uint256"
        }
      ],
      "stateMutability": "nonpayable",
      "type": "constructor"
    },
    {
      "inputs": [
        {
          "internalType": "address",
          "name": "owner",
          "type": "address"
        }
      ],
      "name": "OwnableInvalidOwner",
      "type": "error"
    },
    {
      "inputs": [
        {
          "internalType": "address",
          "name": "account",
          "type": "address"
        }
      ],
      "name": "OwnableUnauthorizedAccount",
      "type": "error"
    },
    {
      "inputs": [],
      "name": "ReentrancyGuardReentrantCall",
      "type": "error"
    },
    {
      "inputs": [
        {
          "internalType": "address",
          "name": "token",
          "type": "address"
        }
      ],
      "name": "SafeERC20FailedOperation",
      "type": "error"
    },
    {
      "anonymous": false,
      "inputs": [
        {
          "indexed": true,
          "internalType": "address",
          "name": "previousOwner",
          "type": "address"
        },
        {
          "indexed": true,
          "internalType": "address",
          "name": "newOwner",
          "type": "address"
        }
      ],
      "name": "OwnershipTransferred",
      "type": "event"
    },
    {
      "anonymous": false,
      "inputs": [
        {
          "indexed": false,
          "internalType": "uint256",
          "name": "newRate",
          "type": "uint256"
        }
      ],
      "name": "RewardRateUpdated",
      "type": "event"
    },
    {
      "anonymous": false,
      "inputs": [
        {
          "indexed": true,
          "internalType": "address",
          "name": "user",
          "type": "address"
        },
        {
          "indexed": false,
          "internalType": "uint256",
          "name": "amount",
          "type": "uint256"
        }
      ],
      "name": "RewardsClaimed",
      "type": "event"
    },
    {
      "anonymous": false,
      "inputs": [
        {
          "indexed": true,
          "internalType": "address",
          "name": "user",
          "type": "address"
        },
        {
          "indexed": false,
          "internalType": "uint256",
          "name": "amount",
          "type": "uint256"
        }
      ],
      "name": "Staked",
      "type": "event"
    },
    {
      "anonymous": false,
      "inputs": [
        {
          "indexed": true,
          "internalType": "address",
          "name": "user",
          "type": "address"
        },
        {
          "indexed": false,
          "internalType": "uint256",
          "name": "amount",
          "type": "uint256"
        }
      ],
      "name": "Unstaked",
      "type": "event"
    },
    {
      "inputs": [
        {
          "internalType": "uint256",
          "name": "amount",
          "type": "uint256"
        }
      ],
      "name": "addRewards",
      "outputs": [],
      "stateMutability": "nonpayable",
      "type": "function"
    },
    {
      "inputs": [],
      "name": "claimRewards",
      "outputs": [],
      "stateMutability": "nonpayable",
      "type": "function"
    },
    {
      "inputs": [
        {
          "internalType": "address",
          "name": "account",
          "type": "address"
        }
      ],
      "name": "earned",
      "outputs": [
        {
          "internalType": "uint256",
          "name": "",
          "type": "uint256"
        }
      ],
      "stateMutability": "view",
      "type": "function"
    },
    {
      "inputs": [],
      "name": "exit",
      "outputs": [],
      "stateMutability": "nonpayable",
      "type": "function"
    },
    {
      "inputs": [],
      "name": "getRewardBalance",
      "outputs": [
        {
          "internalType": "uint256",
          "name": "",
          "type": "uint256"
        }
      ],
      "stateMutability": "view",
      "type": "function"
    },
    {
      "inputs": [
        {
          "internalType": "address",
          "name": "account",
          "type": "address"
        }
      ],
      "name": "getStakedAmount",
      "outputs": [
        {
          "internalType": "uint256",
          "name": "",
          "type": "uint256"
        }
      ],
      "stateMutability": "view",
      "type": "function"
    },
    {
      "inputs": [],
      "name": "lastUpdateTime",
      "outputs": [
        {
          "internalType": "uint256",
          "name": "",
          "type": "uint256"
        }
      ],
      "stateMutability": "view",
      "type": "function"
    },
    {
      "inputs": [],
      "name": "owner",
      "outputs": [
        {
          "internalType": "address",
          "name": "",
          "type": "address"
        }
      ],
      "stateMutability": "view",
      "type": "function"
    },
    {
      "inputs": [],
      "name": "renounceOwnership",
      "outputs": [],
      "stateMutability": "nonpayable",
      "type": "function"
    },
    {
      "inputs": [],
      "name": "rewardPerToken",
      "outputs": [
        {
          "internalType": "uint256",
          "name": "",
          "type": "uint256"
        }
      ],
      "stateMutability": "view",
      "type": "function"
    },
    {
      "inputs": [],
      "name": "rewardPerTokenStored",
      "outputs": [
        {
          "internalType": "uint256",
          "name": "",
          "type": "uint256"
        }
      ],
      "stateMutability": "view",
      "type": "function"
    },
    {
      "inputs": [],
      "name": "rewardRate",
      "outputs": [
        {
          "internalType": "uint256",
          "name": "",
          "type": "uint256"
        }
      ],
      "stateMutability": "view",
      "type": "function"
    },
    {
      "inputs": [
        {
          "internalType": "uint256",
          "name": "_rate",
          "type": "uint256"
        }
      ],
      "name": "setRewardRate",
      "outputs": [],
      "stateMutability": "nonpayable",
      "type": "function"
    },
    {
      "inputs": [
        {
          "internalType": "uint256",
          "name": "amount",
          "type": "uint256"
        }
      ],
      "name": "stake",
      "outputs": [],
      "stateMutability": "nonpayable",
      "type": "function"
    },
    {
      "inputs": [],
      "name": "stakingToken",
      "outputs": [
        {
          "internalType": "contract IERC20",
          "name": "",
          "type": "address"
        }
      ],
      "stateMutability": "view",
      "type": "function"
    },
    {
      "inputs": [],
      "name": "totalStaked",
      "outputs": [
        {
          "internalType": "uint256",
          "name": "",
          "type": "uint256"
        }
      ],
      "stateMutability": "view",
      "type": "function"
    },
    {
      "inputs": [
        {
          "internalType": "address",
          "name": "newOwner",
          "type": "address"
        }
      ],
      "name": "transferOwnership",
      "outputs": [],
      "stateMutability": "nonpayable",
      "type": "function"
    },
    {
      "inputs": [
        {
          "internalType": "uint256",
          "name": "amount",
          "type": "uint256"
        }
      ],
      "name": "unstake",
      "outputs": [],
      "stateMutability": "nonpayable",
      "type": "function"
    },
    {
      "inputs": [
        {
          "internalType": "address",
          "name": "",
          "type": "address"
        }
      ],
      "name": "userInfo",
      "outputs": [
        {
          "internalType": "uint256",
          "name": "amount",
          "type": "uint256"
        },
        {
          "internalType": "uint256",
          "name": "rewardPerTokenPaid",
          "type": "uint256"
        },
        {
          "internalType": "uint256",
          "name": "rewards",
          "type": "uint256"
        },
        {
          "internalType": "uint256",
          "name": "lastStakeTime",
          "type": "uint256"
        }
      ],
      "stateMutability": "view",
      "type": "function"
    },
    {
      "inputs": [
        {
          "internalType": "uint256",
          "name": "amount",
          "type": "uint256"
        }
      ],
      "name": "withdrawTokens",
      "outputs": [],
      "stateMutability": "nonpayable",
      "type": "function"
    }
  ],
  "bytecode": "0x608060405234801561001057600080fd5b50604051610e68380380610e6883398101604081905261002f916100e0565b338061005557604051631e4fbdf760e01b81526000600482015260240160405180910390fd5b61005e81610090565b5060018055600280546001600160a01b0319166001600160a01b0393909316929092179091556003554260045561011a565b600080546001600160a01b038381166001600160a01b0319831681178455604051919092169283917f8be0079c531659141344cd1fd0a4f28419497f9722a3daafe3b4186f6b6457e09190a35050565b600080604083850312156100f357600080fd5b82516001600160a01b038116811461010a57600080fd5b6020939093015192949293505050565b610d3f806101296000396000f3fe608060405234801561001057600080fd5b506004361061012b5760003560e01c8063817b1cd2116100ad578063c8f33c9111610071578063c8f33c911461029b578063cd3daf9d146102a4578063df136d65146102ac578063e9fad8ee146102b5578063f2fde38b146102bd57600080fd5b8063817b1cd2146102485780638da5cb5b146102515780639e447fc614610262578063a694fc3a14610275578063beceed391461028857600080fd5b80634da6a556116100f45780634da6a556146101db5780635e42b45514610204578063715018a61461020c57806372f702f3146102145780637b0a47ee1461023f57600080fd5b80628cc262146101305780631959a002146101565780632e17de78146101ab578063315a095d146101c0578063372500ab146101d3575b600080fd5b61014361013e366004610c33565b6102d0565b6040519081526020015b60405180910390f35b61018b610164366004610c33565b60076020526000908152604090208054600182015460028301546003909301549192909184565b60408051948552602085019390935291830152606082015260800161014d565b6101be6101b9366004610c5c565b61035c565b005b6101be6101ce366004610c5c565b6104ea565b6101be61051a565b6101436101e9366004610c33565b6001600160a01b031660009081526007602052604090205490565b61014361062b565b6101be6106ab565b600254610227906001600160a01b031681565b6040516001600160a01b03909116815260200161014d565b61014360035481565b61014360065481565b6000546001600160a01b0316610227565b6101be610270366004610c5c565b6106bd565b6101be610283366004610c5c565b610751565b6101be610296366004610c5c565b61087f565b61014360045481565b61014361089f565b61014360055481565b6101be6108f8565b6101be6102cb366004610c33565b610a3d565b6001600160a01b038116600090815260076020908152604080832081516080810183528154815260018201549381018490526002820154928101839052600390910154606082015291670de0b6b3a76400009061032b61089f565b6103359190610c8b565b83516103419190610ca4565b61034b9190610cbb565b6103559190610cdd565b9392505050565b610364610a78565b3361036d61089f565b600555426004556001600160a01b038116156103b3576001600160a01b03811660009081526007602052604090206103a4826102d0565b60028201556005546001909101555b33600090815260076020526040902080548311156104185760405162461bcd60e51b815260206004820152601a60248201527f496e73756666696369656e74207374616b656420616d6f756e7400000000000060448201526064015b60405180910390fd5b6000831161045d5760405162461bcd60e51b81526020600482015260126024820152710416d6f756e74206d757374206265203e20360741b604482015260640161040f565b828160000160008282546104719190610c8b565b92505081905550826006600082825461048a9190610c8b565b90915550506002546104a6906001600160a01b03163385610aa2565b60405183815233907f0f5bb82176feb1b5e747e28471aa92156a04d9f3ab9f45f28e2d704232b93f75906020015b60405180910390a250506104e760018055565b50565b6104f2610b06565b6104e76105076000546001600160a01b031690565b6002546001600160a01b03169083610aa2565b610522610a78565b3361052b61089f565b600555426004556001600160a01b03811615610571576001600160a01b0381166000908152600760205260409020610562826102d0565b60028201556005546001909101555b3360009081526007602052604090206002810154806105c85760405162461bcd60e51b81526020600482015260136024820152724e6f207265776172647320746f20636c61696d60681b604482015260640161040f565b6000600280840191909155546105e8906001600160a01b03163383610aa2565b60405181815233907ffc30cddea38e2bf4d6ea7d3f9ed3b6ad7f176419f4963bd81318067a4aee73fe9060200160405180910390a250505061062960018055565b565b6006546002546040516370a0823160e01b8152306004820152600092916001600160a01b0316906370a0823190602401602060405180830381865afa158015610678573d6000803e3d6000fd5b505050506040513d601f19601f8201168201806040525081019061069c9190610cf0565b6106a69190610c8b565b905090565b6106b3610b06565b6106296000610b33565b6106c5610b06565b60006106cf61089f565b600555426004556001600160a01b03811615610715576001600160a01b0381166000908152600760205260409020610706826102d0565b60028201556005546001909101555b60038290556040518281527f41d466ebd06fb97e7786086ac8b69b7eb7da798592036251291d34e9791cde019060200160405180910390a15050565b610759610a78565b3361076261089f565b600555426004556001600160a01b038116156107a8576001600160a01b0381166000908152600760205260409020610799826102d0565b60028201556005546001909101555b600082116107ed5760405162461bcd60e51b81526020600482015260126024820152710416d6f756e74206d757374206265203e20360741b604482015260640161040f565b600254610805906001600160a01b0316333085610b83565b336000908152600760205260408120805490918491839190610828908490610cdd565b909155505042600382015560068054849190600090610848908490610cdd565b909155505060405183815233907f9e71bc8eea02a63969f509818f2dafb9254532904319f9dbda79b67bd34a5f3d906020016104d4565b610887610b06565b6002546104e7906001600160a01b0316333084610b83565b60006006546000036108b2575060055490565b6006546003546004546108c59042610c8b565b6108cf9190610ca4565b6108e190670de0b6b3a7640000610ca4565b6108eb9190610cbb565b6005546106a69190610cdd565b610900610a78565b3361090961089f565b600555426004556001600160a01b0381161561094f576001600160a01b0381166000908152600760205260409020610940826102d0565b60028201556005546001909101555b3360009081526007602052604090208054600282015481156109d457600080845560068054849290610982908490610c8b565b909155505060025461099e906001600160a01b03163384610aa2565b60405182815233907f0f5bb82176feb1b5e747e28471aa92156a04d9f3ab9f45f28e2d704232b93f759060200160405180910390a25b8015610a30576000600280850191909155546109fa906001600160a01b03163383610aa2565b60405181815233907ffc30cddea38e2bf4d6ea7d3f9ed3b6ad7f176419f4963bd81318067a4aee73fe9060200160405180910390a25b5050505061062960018055565b610a45610b06565b6001600160a01b038116610a6f57604051631e4fbdf760e01b81526000600482015260240161040f565b6104e781610b33565b600260015403610a9b57604051633ee5aeb560e01b815260040160405180910390fd5b6002600155565b6040516001600160a01b03838116602483015260448201839052610b0191859182169063a9059cbb906064015b604051602081830303815290604052915060e01b6020820180516001600160e01b038381831617835250505050610bc2565b505050565b6000546001600160a01b031633146106295760405163118cdaa760e01b815233600482015260240161040f565b600080546001600160a01b038381166001600160a01b0319831681178455604051919092169283917f8be0079c531659141344cd1fd0a4f28419497f9722a3daafe3b4186f6b6457e09190a35050565b6040516001600160a01b038481166024830152838116604483015260648201839052610bbc9186918216906323b872dd90608401610acf565b50505050565b600080602060008451602086016000885af180610be5576040513d6000823e3d81fd5b50506000513d91508115610bfd578060011415610c0a565b6001600160a01b0384163b155b15610bbc57604051635274afe760e01b81526001600160a01b038516600482015260240161040f565b600060208284031215610c4557600080fd5b81356001600160a01b038116811461035557600080fd5b600060208284031215610c6e57600080fd5b5035919050565b634e487b7160e01b600052601160045260246000fd5b81810381811115610c9e57610c9e610c75565b92915050565b8082028115828204841417610c9e57610c9e610c75565b600082610cd857634e487b7160e01b600052601260045260246000fd5b500490565b80820180821115610c9e57610c9e610c75565b600060208284031215610d0257600080fd5b505191905056fea2646970667358221220888ffc7172377897af3ca308ec3f045ea4b999d5600fe769c16a399c9883ab6d64736f6c63430008140033",
  "linkReferences": {},
  "deployedLinkReferences": {}
}