{
  "_format": "hh-sol-artifact-1",
  "contractName": "Presale",
  "sourceName": "contracts/Presale.sol",
  "abi": [
    {
      "inputs": [
        {
          "internalType": "address",
          "name": "tokenAddress",
          "type": "address"
        },
        {
          "internalType": "address",
          "name": "rewardsDistributorAddress",
          "type": "address"
        },
        {
          "internalType": "address",
          "name": "owner",
          "type": "address"
        },
        {
          "internalType": "uint256",
          "name": "_price",
          "type": "uint256"
        },
        {
          "internalType": "uint256",
          "name": "_duration",
          "type": "uint256"
        },
        {
          "internalType": "address",
          "name": "_vrfCoordinator",
          "type": "address"
        },
        {
          "internalType": "uint64",
          "name": "_subscriptionId",
          "type": "uint64"
        },
        {
          "internalType": "bytes32",
          "name": "_keyHash",
          "type": "bytes32"
        },
        {
          "internalType": "uint32",
          "name": "_callbackGasLimit",
          "type": "uint32"
        },
        {
          "internalType": "uint16",
          "name": "_requestConfirmations",
          "type": "uint16"
        },
        {
          "internalType": "uint32",
          "name": "_numWords",
          "type": "uint32"
        }
      ],
      "stateMutability": "nonpayable",
      "type": "constructor"
    },
    {
      "inputs": [
        {
          "internalType": "address",
          "name": "have",
          "type": "address"
        },
        {
          "internalType": "address",
          "name": "want",
          "type": "address"
        }
      ],
      "name": "OnlyCoordinatorCanFulfill",
      "type": "error"
    },
    {
      "inputs": [
        {
          "internalType": "address",
          "name": "owner",
          "type": "address"
        }
      ],
      "name": "OwnableInvalidOwner",
      "type": "error"
    },
    {
      "inputs": [
        {
          "internalType": "address",
          "name": "account",
          "type": "address"
        }
      ],
      "name": "OwnableUnauthorizedAccount",
      "type": "error"
    },
    {
      "inputs": [],
      "name": "ReentrancyGuardReentrantCall",
      "type": "error"
    },
    {
      "inputs": [
        {
          "internalType": "address",
          "name": "token",
          "type": "address"
        }
      ],
      "name": "SafeERC20FailedOperation",
      "type": "error"
    },
    {
      "anonymous": false,
      "inputs": [
        {
          "indexed": true,
          "internalType": "address",
          "name": "contributor",
          "type": "address"
        },
        {
          "indexed": false,
          "internalType": "uint256",
          "name": "amount",
          "type": "uint256"
        },
        {
          "indexed": false,
          "internalType": "uint256",
          "name": "tokens",
          "type": "uint256"
        }
      ],
      "name": "Contributed",
      "type": "event"
    },
    {
      "anonymous": false,
      "inputs": [
        {
          "indexed": true,
          "internalType": "address",
          "name": "previousOwner",
          "type": "address"
        },
        {
          "indexed": true,
          "internalType": "address",
          "name": "newOwner",
          "type": "address"
        }
      ],
      "name": "OwnershipTransferred",
      "type": "event"
    },
    {
      "anonymous": false,
      "inputs": [],
      "name": "PresaleEnded",
      "type": "event"
    },
    {
      "anonymous": false,
      "inputs": [
        {
          "indexed": false,
          "internalType": "uint256",
          "name": "startTime",
          "type": "uint256"
        },
        {
          "indexed": false,
          "internalType": "uint256",
          "name": "endTime",
          "type": "uint256"
        }
      ],
      "name": "PresaleStarted",
      "type": "event"
    },
    {
      "anonymous": false,
      "inputs": [
        {
          "indexed": true,
          "internalType": "address",
          "name": "contributor",
          "type": "address"
        },
        {
          "indexed": false,
          "internalType": "uint256",
          "name": "amount",
          "type": "uint256"
        }
      ],
      "name": "Refund",
      "type": "event"
    },
    {
      "anonymous": false,
      "inputs": [
        {
          "indexed": true,
          "internalType": "address",
          "name": "claimer",
          "type": "address"
        },
        {
          "indexed": false,
          "internalType": "uint256",
          "name": "amount",
          "type": "uint256"
        }
      ],
      "name": "TokensClaimed",
      "type": "event"
    },
    {
      "anonymous": false,
      "inputs": [
        {
          "indexed": false,
          "internalType": "bytes32",
          "name": "requestId",
          "type": "bytes32"
        }
      ],
      "name": "WinnersRequested",
      "type": "event"
    },
    {
      "anonymous": false,
      "inputs": [
        {
          "indexed": false,
          "internalType": "address[5]",
          "name": "winners",
          "type": "address[5]"
        }
      ],
      "name": "WinnersSelected",
      "type": "event"
    },
    {
      "inputs": [],
      "name": "PRESALE_ALLOCATION",
      "outputs": [
        {
          "internalType": "uint256",
          "name": "",
          "type": "uint256"
        }
      ],
      "stateMutability": "view",
      "type": "function"
    },
    {
      "inputs": [],
      "name": "TGE_PERCENTAGE",
      "outputs": [
        {
          "internalType": "uint256",
          "name": "",
          "type": "uint256"
        }
      ],
      "stateMutability": "view",
      "type": "function"
    },
    {
      "inputs": [],
      "name": "VESTING_DURATION",
      "outputs": [
        {
          "internalType": "uint256",
          "name": "",
          "type": "uint256"
        }
      ],
      "stateMutability": "view",
      "type": "function"
    },
    {
      "inputs": [],
      "name": "claimTokens",
      "outputs": [],
      "stateMutability": "nonpayable",
      "type": "function"
    },
    {
      "inputs": [
        {
          "internalType": "address",
          "name": "",
          "type": "address"
        }
      ],
      "name": "claimedTokens",
      "outputs": [
        {
          "internalType": "uint256",
          "name": "",
          "type": "uint256"
        }
      ],
      "stateMutability": "view",
      "type": "function"
    },
    {
      "inputs": [],
      "name": "contribute",
      "outputs": [],
      "stateMutability": "payable",
      "type": "function"
    },
    {
      "inputs": [
        {
          "internalType": "address",
          "name": "",
          "type": "address"
        }
      ],
      "name": "contributions",
      "outputs": [
        {
          "internalType": "uint256",
          "name": "",
          "type": "uint256"
        }
      ],
      "stateMutability": "view",
      "type": "function"
    },
    {
      "inputs": [],
      "name": "duration",
      "outputs": [
        {
          "internalType": "uint256",
          "name": "",
          "type": "uint256"
        }
      ],
      "stateMutability": "view",
      "type": "function"
    },
    {
      "inputs": [],
      "name": "endPresale",
      "outputs": [],
      "stateMutability": "nonpayable",
      "type": "function"
    },
    {
      "inputs": [
        {
          "internalType": "address",
          "name": "contributor",
          "type": "address"
        }
      ],
      "name": "getClaimableTokens",
      "outputs": [
        {
          "internalType": "uint256",
          "name": "",
          "type": "uint256"
        }
      ],
      "stateMutability": "view",
      "type": "function"
    },
    {
      "inputs": [],
      "name": "getParticipantCount",
      "outputs": [
        {
          "internalType": "uint256",
          "name": "",
          "type": "uint256"
        }
      ],
      "stateMutability": "view",
      "type": "function"
    },
    {
      "inputs": [],
      "name": "getRefund",
      "outputs": [],
      "stateMutability": "nonpayable",
      "type": "function"
    },
    {
      "inputs": [],
      "name": "getWinners",
      "outputs": [
        {
          "internalType": "address[5]",
          "name": "",
          "type": "address[5]"
        }
      ],
      "stateMutability": "view",
      "type": "function"
    },
    {
      "inputs": [],
      "name": "hardCap",
      "outputs": [
        {
          "internalType": "uint256",
          "name": "",
          "type": "uint256"
        }
      ],
      "stateMutability": "view",
      "type": "function"
    },
    {
      "inputs": [],
      "name": "hardCapReached",
      "outputs": [
        {
          "internalType": "bool",
          "name": "",
          "type": "bool"
        }
      ],
      "stateMutability": "view",
      "type": "function"
    },
    {
      "inputs": [
        {
          "internalType": "address",
          "name": "",
          "type": "address"
        }
      ],
      "name": "hasContributed",
      "outputs": [
        {
          "internalType": "bool",
          "name": "",
          "type": "bool"
        }
      ],
      "stateMutability": "view",
      "type": "function"
    },
    {
      "inputs": [],
      "name": "hasEnded",
      "outputs": [
        {
          "internalType": "bool",
          "name": "",
          "type": "bool"
        }
      ],
      "stateMutability": "view",
      "type": "function"
    },
    {
      "inputs": [],
      "name": "hasStarted",
      "outputs": [
        {
          "internalType": "bool",
          "name": "",
          "type": "bool"
        }
      ],
      "stateMutability": "view",
      "type": "function"
    },
    {
      "inputs": [],
      "name": "owner",
      "outputs": [
        {
          "internalType": "address",
          "name": "",
          "type": "address"
        }
      ],
      "stateMutability": "view",
      "type": "function"
    },
    {
      "inputs": [
        {
          "internalType": "uint256",
          "name": "",
          "type": "uint256"
        }
      ],
      "name": "participants",
      "outputs": [
        {
          "internalType": "address",
          "name": "",
          "type": "address"
        }
      ],
      "stateMutability": "view",
      "type": "function"
    },
    {
      "inputs": [],
      "name": "presaleEndTime",
      "outputs": [
        {
          "internalType": "uint256",
          "name": "",
          "type": "uint256"
        }
      ],
      "stateMutability": "view",
      "type": "function"
    },
    {
      "inputs": [],
      "name": "presaleStartTime",
      "outputs": [
        {
          "internalType": "uint256",
          "name": "",
          "type": "uint256"
        }
      ],
      "stateMutability": "view",
      "type": "function"
    },
    {
      "inputs": [],
      "name": "price",
      "outputs": [
        {
          "internalType": "uint256",
          "name": "",
          "type": "uint256"
        }
      ],
      "stateMutability": "view",
      "type": "function"
    },
    {
      "inputs": [],
      "name": "randomSeed",
      "outputs": [
        {
          "internalType": "uint256",
          "name": "",
          "type": "uint256"
        }
      ],
      "stateMutability": "view",
      "type": "function"
    },
    {
      "inputs": [
        {
          "internalType": "uint256",
          "name": "requestId",
          "type": "uint256"
        },
        {
          "internalType": "uint256[]",
          "name": "randomWords",
          "type": "uint256[]"
        }
      ],
      "name": "rawFulfillRandomWords",
      "outputs": [],
      "stateMutability": "nonpayable",
      "type": "function"
    },
    {
      "inputs": [],
      "name": "renounceOwnership",
      "outputs": [],
      "stateMutability": "nonpayable",
      "type": "function"
    },
    {
      "inputs": [],
      "name": "rewardsDistributor",
      "outputs": [
        {
          "internalType": "contract IRewardsDistributor",
          "name": "",
          "type": "address"
        }
      ],
      "stateMutability": "view",
      "type": "function"
    },
    {
      "inputs": [
        {
          "internalType": "uint256",
          "name": "seed",
          "type": "uint256"
        }
      ],
      "name": "selectWinnersManually",
      "outputs": [],
      "stateMutability": "nonpayable",
      "type": "function"
    },
    {
      "inputs": [
        {
          "internalType": "uint256",
          "name": "_softCap",
          "type": "uint256"
        },
        {
          "internalType": "uint256",
          "name": "_hardCap",
          "type": "uint256"
        }
      ],
      "name": "setCaps",
      "outputs": [],
      "stateMutability": "nonpayable",
      "type": "function"
    },
    {
      "inputs": [
        {
          "internalType": "uint256",
          "name": "newPrice",
          "type": "uint256"
        }
      ],
      "name": "setPrice",
      "outputs": [],
      "stateMutability": "nonpayable",
      "type": "function"
    },
    {
      "inputs": [],
      "name": "softCap",
      "outputs": [
        {
          "internalType": "uint256",
          "name": "",
          "type": "uint256"
        }
      ],
      "stateMutability": "view",
      "type": "function"
    },
    {
      "inputs": [],
      "name": "softCapReached",
      "outputs": [
        {
          "internalType": "bool",
          "name": "",
          "type": "bool"
        }
      ],
      "stateMutability": "view",
      "type": "function"
    },
    {
      "inputs": [],
      "name": "startPresale",
      "outputs": [],
      "stateMutability": "nonpayable",
      "type": "function"
    },
    {
      "inputs": [],
      "name": "tgeTime",
      "outputs": [
        {
          "internalType": "uint256",
          "name": "",
          "type": "uint256"
        }
      ],
      "stateMutability": "view",
      "type": "function"
    },
    {
      "inputs": [],
      "name": "token",
      "outputs": [
        {
          "internalType": "contract IVerifyzVerifier",
          "name": "",
          "type": "address"
        }
      ],
      "stateMutability": "view",
      "type": "function"
    },
    {
      "inputs": [
        {
          "internalType": "address",
          "name": "",
          "type": "address"
        }
      ],
      "name": "tokensClaimed",
      "outputs": [
        {
          "internalType": "bool",
          "name": "",
          "type": "bool"
        }
      ],
      "stateMutability": "view",
      "type": "function"
    },
    {
      "inputs": [],
      "name": "totalRaised",
      "outputs": [
        {
          "internalType": "uint256",
          "name": "",
          "type": "uint256"
        }
      ],
      "stateMutability": "view",
      "type": "function"
    },
    {
      "inputs": [],
      "name": "totalTokensSold",
      "outputs": [
        {
          "internalType": "uint256",
          "name": "",
          "type": "uint256"
        }
      ],
      "stateMutability": "view",
      "type": "function"
    },
    {
      "inputs": [
        {
          "internalType": "address",
          "name": "newOwner",
          "type": "address"
        }
      ],
      "name": "transferOwnership",
      "outputs": [],
      "stateMutability": "nonpayable",
      "type": "function"
    },
    {
      "inputs": [
        {
          "internalType": "uint256",
          "name": "",
          "type": "uint256"
        }
      ],
      "name": "winners",
      "outputs": [
        {
          "internalType": "address",
          "name": "",
          "type": "address"
        }
      ],
      "stateMutability": "view",
      "type": "function"
    },
    {
      "inputs": [],
      "name": "winnersSelected",
      "outputs": [
        {
          "internalType": "bool",
          "name": "",
          "type": "bool"
        }
      ],
      "stateMutability": "view",
      "type": "function"
    },
    {
      "inputs": [],
      "name": "withdrawETH",
      "outputs": [],
      "stateMutability": "nonpayable",
      "type": "function"
    },
    {
      "inputs": [],
      "name": "withdrawUnsoldTokens",
      "outputs": [],
      "stateMutability": "nonpayable",
      "type": "function"
    }
  ],
  "bytecode": "0x60a06040523480156200001157600080fd5b506040516200215538038062002155833981016040819052620000349162000210565b85896001600160a01b0381166200006557604051631e4fbdf760e01b81526000600482015260240160405180910390fd5b62000070816200018e565b50600180556001600160a01b03908116608052600280549c82166001600160a01b03199d8e16179055600380549b82169b909c169a909a17909a55600496909655600594909455600d805493909716620100000262010000600160b01b031990931692909217909555600f8054600e9290925563ffffffff968716600160701b0263ffffffff60701b1961ffff9095166c01000000000000000000000000029490941665ffffffffffff60601b199790931668010000000000000000026001600160601b03199092166001600160401b039096169590951717949094169390931792909217905550683635c9adc5dea00000600b5568056bc75e2d63100000600c55600a805462ffffff1916905560006008819055600955620002ef565b600080546001600160a01b038381166001600160a01b0319831681178455604051919092169283917f8be0079c531659141344cd1fd0a4f28419497f9722a3daafe3b4186f6b6457e09190a35050565b80516001600160a01b0381168114620001f657600080fd5b919050565b805163ffffffff81168114620001f657600080fd5b60008060008060008060008060008060006101608c8e0312156200023357600080fd5b6200023e8c620001de565b9a506200024e60208d01620001de565b99506200025e60408d01620001de565b985060608c0151975060808c015196506200027c60a08d01620001de565b60c08d01519096506001600160401b03811681146200029a57600080fd5b60e08d01519095509350620002b36101008d01620001fb565b92506101208c015161ffff81168114620002cc57600080fd5b9150620002dd6101408d01620001fb565b90509295989b509295989b9093969950565b608051611e43620003126000396000818161095301526109950152611e436000f3fe60806040526004361061025c5760003560e01c80638da5cb5b11610144578063bda63039116100b6578063df15c37e1161007a578063df15c37e14610695578063e086e5ec146106b7578063ecb70fb7146106cc578063f2fde38b146106eb578063fb86a4041461070b578063fc0c546a1461072157600080fd5b8063bda6303914610623578063c5c4744c14610643578063c7b5a48c14610659578063c8bdbfb614610678578063d7bb99ba1461068d57600080fd5b8063a2fb117511610108578063a2fb117514610581578063a43be57b146105a1578063a82524b2146105b6578063a960c65f146105cc578063ad605729146105f9578063b2d5ae441461060e57600080fd5b80638da5cb5b146104f8578063906a26e01461051657806391b7f5ed1461052c5780639762f8021461054c578063a035b1fe1461056b57600080fd5b806335c1d349116101dd5780634cfc4d30116101a15780634cfc4d301461045157806354ca6bec14610468578063624601b61461047d57806363b20117146104ad578063715018a6146104c35780638bc53285146104d857600080fd5b806335c1d3491461039d5780633f2a5540146103d557806342e94c90146103f557806344691f7e1461042257806348c54b9d1461043c57600080fd5b8063205b194611610224578063205b1946146102f7578063212bf31614610337578063249b7c19146103575780632b9edee91461036d5780633163e3a81461038757600080fd5b806304c98b2b146102615780630b747d91146102785780630fb5a6b4146102a15780631b831ead146102b75780631fe543e3146102d7575b600080fd5b34801561026d57600080fd5b50610276610741565b005b34801561028457600080fd5b5061028e60105481565b6040519081526020015b60405180910390f35b3480156102ad57600080fd5b5061028e60055481565b3480156102c357600080fd5b5061028e6102d2366004611b4d565b610808565b3480156102e357600080fd5b506102766102f2366004611b93565b610948565b34801561030357600080fd5b50610327610312366004611b4d565b60186020526000908152604090205460ff1681565b6040519015158152602001610298565b34801561034357600080fd5b50610276610352366004611c5d565b6109d0565b34801561036357600080fd5b5061028e60075481565b34801561037957600080fd5b50600d546103279060ff1681565b34801561039357600080fd5b5061028e601a5481565b3480156103a957600080fd5b506103bd6103b8366004611c7f565b610a86565b6040516001600160a01b039091168152602001610298565b3480156103e157600080fd5b506003546103bd906001600160a01b031681565b34801561040157600080fd5b5061028e610410366004611b4d565b60176020526000908152604090205481565b34801561042e57600080fd5b50600a546103279060ff1681565b34801561044857600080fd5b50610276610ab0565b34801561045d57600080fd5b5061028e62ed4e0081565b34801561047457600080fd5b5061028e601981565b34801561048957600080fd5b50610327610498366004611b4d565b60196020526000908152604090205460ff1681565b3480156104b957600080fd5b5061028e60085481565b3480156104cf57600080fd5b50610276610c55565b3480156104e457600080fd5b50600a546103279062010000900460ff1681565b34801561050457600080fd5b506000546001600160a01b03166103bd565b34801561052257600080fd5b5061028e600c5481565b34801561053857600080fd5b50610276610547366004611c7f565b610c67565b34801561055857600080fd5b50600d5461032790610100900460ff1681565b34801561057757600080fd5b5061028e60045481565b34801561058d57600080fd5b506103bd61059c366004611c7f565b610cc7565b3480156105ad57600080fd5b50610276610ce7565b3480156105c257600080fd5b5061028e60065481565b3480156105d857600080fd5b5061028e6105e7366004611b4d565b601b6020526000908152604090205481565b34801561060557600080fd5b5060165461028e565b34801561061a57600080fd5b50610276610d9c565b34801561062f57600080fd5b5061027661063e366004611c7f565b610f52565b34801561064f57600080fd5b5061028e60095481565b34801561066557600080fd5b5061028e6a90c1b1025e16710f00000081565b34801561068457600080fd5b5061027661102e565b6102766110a8565b3480156106a157600080fd5b506106aa611404565b6040516102989190611c98565b3480156106c357600080fd5b50610276611449565b3480156106d857600080fd5b50600a5461032790610100900460ff1681565b3480156106f757600080fd5b50610276610706366004611b4d565b61159b565b34801561071757600080fd5b5061028e600b5481565b34801561072d57600080fd5b506002546103bd906001600160a01b031681565b6107496115d6565b600a5460ff16156107a15760405162461bcd60e51b815260206004820152601760248201527f50726573616c6520616c7265616479207374617274656400000000000000000060448201526064015b60405180910390fd5b600a805460ff191660011790554260068190556005546107c091611ce8565b60078190556006546040517f884f0ecd854b5bcb742f0156e594094458bddc3f2cc8c9e4048a7cedfa6f01cc926107fe928252602082015260400190565b60405180910390a1565b600a54600090610100900460ff1615806108255750600d5460ff16155b8061084657506001600160a01b038216600090815260176020526040902054155b1561085357506000919050565b6004546001600160a01b03831660009081526017602052604081205490919061088490670de0b6b3a7640000611d01565b61088e9190611d2e565b90506000606461089f601984611d01565b6108a99190611d2e565b90506000601a5442111561090c576000601a54426108c79190611d42565b905062ed4e0081106108e4576108dd8385611d42565b915061090a565b62ed4e00816108f38587611d42565b6108fd9190611d01565b6109079190611d2e565b91505b505b60006109188284611ce8565b6001600160a01b0387166000908152601b602052604090205490915061093e9082611d42565b9695505050505050565b336001600160a01b037f000000000000000000000000000000000000000000000000000000000000000016146109c25760405163073e64fd60e21b81523360048201526001600160a01b037f0000000000000000000000000000000000000000000000000000000000000000166024820152604401610798565b6109cc8282611603565b5050565b6109d86115d6565b600a5460ff1615610a2b5760405162461bcd60e51b815260206004820152601e60248201527f43616e6e6f74206368616e6765206361707320616674657220737461727400006044820152606401610798565b80821115610a7b5760405162461bcd60e51b815260206004820152601c60248201527f536f667420636170206d757374206265203c3d206861726420636170000000006044820152606401610798565b600c91909155600b55565b60168181548110610a9657600080fd5b6000918252602090912001546001600160a01b0316905081565b610ab861162f565b600a54610100900460ff16610adf5760405162461bcd60e51b815260040161079890611d55565b600d5460ff16610b285760405162461bcd60e51b815260206004820152601460248201527314dbd99d0818d85c081b9bdd081c995858da195960621b6044820152606401610798565b33600090815260176020526040902054610b7c5760405162461bcd60e51b8152602060048201526015602482015274139bc818dbdb9d1c9a589d5d1a5bdb88199bdd5b99605a1b6044820152606401610798565b6000610b8733610808565b905060008111610bd95760405162461bcd60e51b815260206004820152601c60248201527f4e6f20746f6b656e7320617661696c61626c6520746f20636c61696d000000006044820152606401610798565b336000908152601b602052604081208054839290610bf8908490611ce8565b9091555050600254610c14906001600160a01b03163383611659565b60405181815233907f896e034966eaaf1adc54acc0f257056febbd300c9e47182cf761982cf1f5e4309060200160405180910390a250610c5360018055565b565b610c5d6115d6565b610c5360006116b0565b610c6f6115d6565b600a5460ff1615610cc25760405162461bcd60e51b815260206004820152601f60248201527f43616e6e6f74206368616e6765207072696365206166746572207374617274006044820152606401610798565b600455565b60118160058110610cd757600080fd5b01546001600160a01b0316905081565b610cef6115d6565b600a5460ff16610d375760405162461bcd60e51b8152602060048201526013602482015272141c995cd85b19481b9bdd081cdd185c9d1959606a1b6044820152606401610798565b60075442101580610d4f5750600d54610100900460ff165b610d945760405162461bcd60e51b815260206004820152601660248201527510d85b9b9bdd08195b99081c1c995cd85b19481e595d60521b6044820152606401610798565b610c53611700565b610da461162f565b600a54610100900460ff16610dcb5760405162461bcd60e51b815260040161079890611d55565b600d5460ff1615610e1e5760405162461bcd60e51b815260206004820181905260248201527f536f6674206361702077617320726561636865642c206e6f20726566756e64736044820152606401610798565b3360009081526017602052604090205480610e7b5760405162461bcd60e51b815260206004820152601960248201527f4e6f20636f6e747269627574696f6e20746f20726566756e64000000000000006044820152606401610798565b336000818152601760205260408082208290555190919083908381818185875af1925050503d8060008114610ecc576040519150601f19603f3d011682016040523d82523d6000602084013e610ed1565b606091505b5050905080610f125760405162461bcd60e51b815260206004820152600d60248201526c1499599d5b990819985a5b1959609a1b6044820152606401610798565b60405182815233907fbb28353e4598c3b9199101a66e0989549b659a59a54d2c27fbb183f1932c8e6d9060200160405180910390a25050610c5360018055565b610f5a6115d6565b600a54610100900460ff16610f815760405162461bcd60e51b815260040161079890611d55565b600a5462010000900460ff1615610fd55760405162461bcd60e51b815260206004820152601860248201527715da5b9b995c9cc8185b1c9958591e481cd95b1958dd195960421b6044820152606401610798565b601654600511156110225760405162461bcd60e51b81526020600482015260176024820152764e6f7420656e6f756768207061727469636970616e747360481b6044820152606401610798565b61102b8161176d565b50565b6110366115d6565b600a54610100900460ff1661105d5760405162461bcd60e51b815260040161079890611d55565b60006008546a90c1b1025e16710f0000006110789190611d42565b9050801561102b5761102b6110956000546001600160a01b031690565b6002546001600160a01b03169083611659565b6110b061162f565b600a5460ff166110f85760405162461bcd60e51b8152602060048201526013602482015272141c995cd85b19481b9bdd081cdd185c9d1959606a1b6044820152606401610798565b60075442111561113e5760405162461bcd60e51b8152602060048201526011602482015270141c995cd85b19481a185cc8195b991959607a1b6044820152606401610798565b600d54610100900460ff16156111895760405162461bcd60e51b815260206004820152601060248201526f12185c990818d85c081c995858da195960821b6044820152606401610798565b600034116111c95760405162461bcd60e51b815260206004820152600d60248201526c09aeae6e840e6cadcc8408aa89609b1b6044820152606401610798565b6000346009546111d99190611ce8565b9050600b5481111561122d5760405162461bcd60e51b815260206004820152601d60248201527f436f6e747269627574696f6e20657863656564732068617264206361700000006044820152606401610798565b60045460009061124534670de0b6b3a7640000611d01565b61124f9190611d2e565b90506a90c1b1025e16710f0000008160085461126b9190611ce8565b11156112b95760405162461bcd60e51b815260206004820152601b60248201527f4e6f7420656e6f75676820746f6b656e7320617661696c61626c6500000000006044820152606401610798565b3360009081526018602052604090205460ff1661132b576016805460018181019092557fd833147d7dc355ba459fc788f669e58cfaf9dc25ddcd0702e87d69c7b51242890180546001600160a01b031916339081179091556000908152601860205260409020805460ff191690911790555b336000908152601760205260408120805434929061134a908490611ce8565b9250508190555080600860008282546113639190611ce8565b90915550506009829055604080513481526020810183905233917ffa35a310d7113dddce1c275da946348e9aaebf9050b00b372033c4d84b0bd6eb910160405180910390a2600b54600954106113cf57600d805461ff0019166101001790556113ca611700565b6113f9565b600c54600954101580156113e65750600d5460ff16155b156113f957600d805460ff191660011790555b5050610c5360018055565b61140c611b2f565b6040805160a08101918290529060119060059082845b81546001600160a01b03168152600190910190602001808311611422575050505050905090565b6114516115d6565b600a54610100900460ff166114785760405162461bcd60e51b815260040161079890611d55565b600d5460ff166114c15760405162461bcd60e51b815260206004820152601460248201527314dbd99d0818d85c081b9bdd081c995858da195960621b6044820152606401610798565b47806115045760405162461bcd60e51b81526020600482015260126024820152714e6f2045544820746f20776974686472617760701b6044820152606401610798565b600080546040516001600160a01b039091169083908381818185875af1925050503d8060008114611551576040519150601f19603f3d011682016040523d82523d6000602084013e611556565b606091505b50509050806109cc5760405162461bcd60e51b815260206004820152601160248201527015da5d1a191c985dd85b0819985a5b1959607a1b6044820152606401610798565b6115a36115d6565b6001600160a01b0381166115cd57604051631e4fbdf760e01b815260006004820152602401610798565b61102b816116b0565b6000546001600160a01b03163314610c535760405163118cdaa760e01b8152336004820152602401610798565b8060008151811061161657611616611d80565b60200260200101516010819055506109cc60105461176d565b60026001540361165257604051633ee5aeb560e01b815260040160405180910390fd5b6002600155565b604080516001600160a01b038416602482015260448082018490528251808303909101815260649091019091526020810180516001600160e01b031663a9059cbb60e01b1790526116ab9084906119bb565b505050565b600080546001600160a01b038381166001600160a01b0319831681178455604051919092169283917f8be0079c531659141344cd1fd0a4f28419497f9722a3daafe3b4186f6b6457e09190a35050565b600a54610100900460ff16610c5357600a805461ffff19166101001790556040517f1eb1561f8507eb9bc6988331f66f369e75710f2b4b678ad5b4a52454b6636f5f90600090a142601a556016546005118015906117605750600d5460ff165b15610c5357610c53611a32565b601654600511156117ba5760405162461bcd60e51b81526020600482015260176024820152764e6f7420656e6f756768207061727469636970616e747360481b6044820152606401610798565b600a5462010000900460ff161561180e5760405162461bcd60e51b815260206004820152601860248201527715da5b9b995c9cc8185b1c9958591e481cd95b1958dd195960421b6044820152606401610798565b601654611819611b2f565b60005b60058110156119095760005b604080516020810187905290810183905260600160408051601f19818403018152919052805160209091012094506118608486611d96565b905082816005811061187457611874611d80565b602002015161182857600183826005811061189157611891611d80565b9115156020909202015260168054829081106118af576118af611d80565b6000918252602090912001546001600160a01b0316601183600581106118d7576118d7611d80565b0180546001600160a01b0319166001600160a01b0392909216919091179055508061190181611daa565b91505061181c565b50600a805462ff00001916620100001790556003546040516355772b5560e11b81526001600160a01b039091169063aaee56aa9061194c90601190600401611dc3565b600060405180830381600087803b15801561196657600080fd5b505af115801561197a573d6000803e3d6000fd5b505050507fff75c5279ddc7a095501d299f7ac8a29f8b7b6295cb8f040472e7ba6c5c9219660116040516119ae9190611dc3565b60405180910390a1505050565b600080602060008451602086016000885af1806119de576040513d6000823e3d81fd5b50506000513d915081156119f6578060011415611a03565b6001600160a01b0384163b155b15611a2c57604051635274afe760e01b81526001600160a01b0385166004820152602401610798565b50505050565b600d54600e54600f546040516305d3b1d360e41b8152600481019290925267ffffffffffffffff81166024830152600160601b810461ffff16604483015268010000000000000000810463ffffffff9081166064840152600160701b9091041660848201526000916201000090046001600160a01b031690635d3b1d309060a4016020604051808303816000875af1158015611ad2573d6000803e3d6000fd5b505050506040513d601f19601f82011682018060405250810190611af69190611df4565b6040518181529091507f312afd85ca1211325c05c38ba86b55a4735c8ac761f7db99d91243dee33c1a729060200160405180910390a150565b6040518060a001604052806005906020820280368337509192915050565b600060208284031215611b5f57600080fd5b81356001600160a01b0381168114611b7657600080fd5b9392505050565b634e487b7160e01b600052604160045260246000fd5b60008060408385031215611ba657600080fd5b8235915060208084013567ffffffffffffffff80821115611bc657600080fd5b818601915086601f830112611bda57600080fd5b813581811115611bec57611bec611b7d565b8060051b604051601f19603f83011681018181108582111715611c1157611c11611b7d565b604052918252848201925083810185019189831115611c2f57600080fd5b938501935b82851015611c4d57843584529385019392850192611c34565b8096505050505050509250929050565b60008060408385031215611c7057600080fd5b50508035926020909101359150565b600060208284031215611c9157600080fd5b5035919050565b60a08101818360005b6005811015611cc95781516001600160a01b0316835260209283019290910190600101611ca1565b50505092915050565b634e487b7160e01b600052601160045260246000fd5b80820180821115611cfb57611cfb611cd2565b92915050565b8082028115828204841417611cfb57611cfb611cd2565b634e487b7160e01b600052601260045260246000fd5b600082611d3d57611d3d611d18565b500490565b81810381811115611cfb57611cfb611cd2565b602080825260119082015270141c995cd85b19481b9bdd08195b991959607a1b604082015260600190565b634e487b7160e01b600052603260045260246000fd5b600082611da557611da5611d18565b500690565b600060018201611dbc57611dbc611cd2565b5060010190565b60a08101818360005b6005811015611cc95781546001600160a01b0316835260209092019160019182019101611dcc565b600060208284031215611e0657600080fd5b505191905056fea264697066735822122056768e0acb24a6f2b9512facb1488f6f15b5b0153541a0a20c0637c9f38834e564736f6c63430008140033",
  "linkReferences": {},
  "deployedLinkReferences": {}
}